{"abi":[{"type":"constructor","inputs":[],"stateMutability":"nonpayable"},{"type":"function","name":"TOTAL_ROOMS","inputs":[],"outputs":[{"name":"","type":"uint256","internalType":"uint256"}],"stateMutability":"view"},{"type":"function","name":"approve","inputs":[{"name":"to","type":"address","internalType":"address"},{"name":"tokenId","type":"uint256","internalType":"uint256"}],"outputs":[],"stateMutability":"nonpayable"},{"type":"function","name":"balanceOf","inputs":[{"name":"owner","type":"address","internalType":"address"}],"outputs":[{"name":"","type":"uint256","internalType":"uint256"}],"stateMutability":"view"},{"type":"function","name":"getAllRoomDays","inputs":[{"name":"offset","type":"uint256","internalType":"uint256"},{"name":"limit","type":"uint256","internalType":"uint256"}],"outputs":[{"name":"","type":"tuple[]","internalType":"struct HotelRooms.RoomDay[]","components":[{"name":"roomId","type":"uint256","internalType":"uint256"},{"name":"date","type":"uint256","internalType":"uint256"},{"name":"roomType","type":"uint8","internalType":"enum HotelRooms.RoomType"},{"name":"pricePerNight","type":"uint256","internalType":"uint256"},{"name":"status","type":"uint8","internalType":"enum HotelRooms.RoomStatus"}]}],"stateMutability":"view"},{"type":"function","name":"getApproved","inputs":[{"name":"tokenId","type":"uint256","internalType":"uint256"}],"outputs":[{"name":"","type":"address","internalType":"address"}],"stateMutability":"view"},{"type":"function","name":"getRoomDay","inputs":[{"name":"tokenId","type":"uint256","internalType":"uint256"}],"outputs":[{"name":"roomId","type":"uint256","internalType":"uint256"},{"name":"date","type":"uint256","internalType":"uint256"}],"stateMutability":"view"},{"type":"function","name":"getRoomDayToken","inputs":[{"name":"roomId","type":"uint256","internalType":"uint256"},{"name":"date","type":"uint256","internalType":"uint256"}],"outputs":[{"name":"tokenId","type":"uint256","internalType":"uint256"}],"stateMutability":"view"},{"type":"function","name":"isApprovedForAll","inputs":[{"name":"owner","type":"address","internalType":"address"},{"name":"operator","type":"address","internalType":"address"}],"outputs":[{"name":"","type":"bool","internalType":"bool"}],"stateMutability":"view"},{"type":"function","name":"isRoomBooked","inputs":[{"name":"roomId","type":"uint256","internalType":"uint256"},{"name":"date","type":"uint256","internalType":"uint256"}],"outputs":[{"name":"","type":"uint8","internalType":"enum HotelRooms.RoomStatus"}],"stateMutability":"view"},{"type":"function","name":"mintRoomDays","inputs":[{"name":"roomId","type":"uint256","internalType":"uint256"},{"name":"startDate","type":"uint256","internalType":"uint256"},{"name":"endDate","type":"uint256","internalType":"uint256"},{"name":"roomType","type":"uint8","internalType":"enum HotelRooms.RoomType"},{"name":"pricePerNight","type":"uint256","internalType":"uint256"}],"outputs":[],"stateMutability":"nonpayable"},{"type":"function","name":"name","inputs":[],"outputs":[{"name":"","type":"string","internalType":"string"}],"stateMutability":"view"},{"type":"function","name":"owner","inputs":[],"outputs":[{"name":"","type":"address","internalType":"address"}],"stateMutability":"view"},{"type":"function","name":"ownerOf","inputs":[{"name":"tokenId","type":"uint256","internalType":"uint256"}],"outputs":[{"name":"","type":"address","internalType":"address"}],"stateMutability":"view"},{"type":"function","name":"renounceOwnership","inputs":[],"outputs":[],"stateMutability":"nonpayable"},{"type":"function","name":"safeTransferFrom","inputs":[{"name":"from","type":"address","internalType":"address"},{"name":"to","type":"address","internalType":"address"},{"name":"tokenId","type":"uint256","internalType":"uint256"}],"outputs":[],"stateMutability":"nonpayable"},{"type":"function","name":"safeTransferFrom","inputs":[{"name":"from","type":"address","internalType":"address"},{"name":"to","type":"address","internalType":"address"},{"name":"tokenId","type":"uint256","internalType":"uint256"},{"name":"data","type":"bytes","internalType":"bytes"}],"outputs":[],"stateMutability":"nonpayable"},{"type":"function","name":"setApprovalForAll","inputs":[{"name":"operator","type":"address","internalType":"address"},{"name":"approved","type":"bool","internalType":"bool"}],"outputs":[],"stateMutability":"nonpayable"},{"type":"function","name":"setPricePerNight","inputs":[{"name":"roomId","type":"uint256","internalType":"uint256"},{"name":"date","type":"uint256","internalType":"uint256"},{"name":"pricePerNight","type":"uint256","internalType":"uint256"}],"outputs":[],"stateMutability":"nonpayable"},{"type":"function","name":"supportsInterface","inputs":[{"name":"interfaceId","type":"bytes4","internalType":"bytes4"}],"outputs":[{"name":"","type":"bool","internalType":"bool"}],"stateMutability":"view"},{"type":"function","name":"symbol","inputs":[],"outputs":[{"name":"","type":"string","internalType":"string"}],"stateMutability":"view"},{"type":"function","name":"tokenURI","inputs":[{"name":"tokenId","type":"uint256","internalType":"uint256"}],"outputs":[{"name":"","type":"string","internalType":"string"}],"stateMutability":"view"},{"type":"function","name":"totalRoomDays","inputs":[],"outputs":[{"name":"","type":"uint256","internalType":"uint256"}],"stateMutability":"view"},{"type":"function","name":"transferFrom","inputs":[{"name":"from","type":"address","internalType":"address"},{"name":"to","type":"address","internalType":"address"},{"name":"tokenId","type":"uint256","internalType":"uint256"}],"outputs":[],"stateMutability":"nonpayable"},{"type":"function","name":"transferOwnership","inputs":[{"name":"newOwner","type":"address","internalType":"address"}],"outputs":[],"stateMutability":"nonpayable"},{"type":"function","name":"transferRoomDay","inputs":[{"name":"tokenId","type":"uint256","internalType":"uint256"}],"outputs":[],"stateMutability":"payable"},{"type":"function","name":"withdrawFunds","inputs":[],"outputs":[],"stateMutability":"nonpayable"},{"type":"event","name":"Approval","inputs":[{"name":"owner","type":"address","indexed":true,"internalType":"address"},{"name":"approved","type":"address","indexed":true,"internalType":"address"},{"name":"tokenId","type":"uint256","indexed":true,"internalType":"uint256"}],"anonymous":false},{"type":"event","name":"ApprovalForAll","inputs":[{"name":"owner","type":"address","indexed":true,"internalType":"address"},{"name":"operator","type":"address","indexed":true,"internalType":"address"},{"name":"approved","type":"bool","indexed":false,"internalType":"bool"}],"anonymous":false},{"type":"event","name":"OwnershipTransferred","inputs":[{"name":"previousOwner","type":"address","indexed":true,"internalType":"address"},{"name":"newOwner","type":"address","indexed":true,"internalType":"address"}],"anonymous":false},{"type":"event","name":"Transfer","inputs":[{"name":"from","type":"address","indexed":true,"internalType":"address"},{"name":"to","type":"address","indexed":true,"internalType":"address"},{"name":"tokenId","type":"uint256","indexed":true,"internalType":"uint256"}],"anonymous":false},{"type":"error","name":"ERC721IncorrectOwner","inputs":[{"name":"sender","type":"address","internalType":"address"},{"name":"tokenId","type":"uint256","internalType":"uint256"},{"name":"owner","type":"address","internalType":"address"}]},{"type":"error","name":"ERC721InsufficientApproval","inputs":[{"name":"operator","type":"address","internalType":"address"},{"name":"tokenId","type":"uint256","internalType":"uint256"}]},{"type":"error","name":"ERC721InvalidApprover","inputs":[{"name":"approver","type":"address","internalType":"address"}]},{"type":"error","name":"ERC721InvalidOperator","inputs":[{"name":"operator","type":"address","internalType":"address"}]},{"type":"error","name":"ERC721InvalidOwner","inputs":[{"name":"owner","type":"address","internalType":"address"}]},{"type":"error","name":"ERC721InvalidReceiver","inputs":[{"name":"receiver","type":"address","internalType":"address"}]},{"type":"error","name":"ERC721InvalidSender","inputs":[{"name":"sender","type":"address","internalType":"address"}]},{"type":"error","name":"ERC721NonexistentToken","inputs":[{"name":"tokenId","type":"uint256","internalType":"uint256"}]},{"type":"error","name":"OwnableInvalidOwner","inputs":[{"name":"owner","type":"address","internalType":"address"}]},{"type":"error","name":"OwnableUnauthorizedAccount","inputs":[{"name":"account","type":"address","internalType":"address"}]}],"bytecode":{"object":"0x608060405234801561001057600080fd5b50336040518060400160405280600a815260200169486f74656c526f6f6d7360b01b8152506040518060400160405280600581526020016448524f4f4d60d81b815250816000908161006291906101b2565b50600161006f82826101b2565b5050506001600160a01b0381166100a057604051631e4fbdf760e01b81526000600482015260240160405180910390fd5b6100a9816100c1565b50600780546001600160a01b03191633179055610270565b600680546001600160a01b038381166001600160a01b0319831681179093556040519116919082907f8be0079c531659141344cd1fd0a4f28419497f9722a3daafe3b4186f6b6457e090600090a35050565b634e487b7160e01b600052604160045260246000fd5b600181811c9082168061013d57607f821691505b60208210810361015d57634e487b7160e01b600052602260045260246000fd5b50919050565b601f8211156101ad57806000526020600020601f840160051c8101602085101561018a5750805b601f840160051c820191505b818110156101aa5760008155600101610196565b50505b505050565b81516001600160401b038111156101cb576101cb610113565b6101df816101d98454610129565b84610163565b6020601f82116001811461021357600083156101fb5750848201515b600019600385901b1c1916600184901b1784556101aa565b600084815260208120601f198516915b828110156102435787850151825560209485019460019092019101610223565b50848210156102615786840151600019600387901b60f8161c191681555b50505050600190811b01905550565b6121488061027f6000396000f3fe6080604052600436106101815760003560e01c8063509fb0cd116100d15780639d3f4c281161008a578063c87b56dd11610064578063c87b56dd14610462578063d30dba9814610482578063e985e9c5146104ed578063f2fde38b1461050d57600080fd5b80639d3f4c281461040d578063a22cb46514610422578063b88d4fde1461044257600080fd5b8063509fb0cd146103585780636352211e1461038557806370a08231146103a5578063715018a6146103c55780638da5cb5b146103da57806395d89b41146103f857600080fd5b806323b872dd1161013e57806330a32f661161011857806330a32f66146102ef5780633282e1a41461030557806342842e0e14610318578063488bab481461033857600080fd5b806323b872dd1461028c57806324600fc3146102ac5780632d9cb9d5146102c157600080fd5b806301ffc9a7146101865780630396cde6146101bb57806306fdde03146101dd578063081812fc146101ff578063095ea7b314610237578063194adba214610257575b600080fd5b34801561019257600080fd5b506101a66101a1366004611be6565b61052d565b60405190151581526020015b60405180910390f35b3480156101c757600080fd5b506101db6101d6366004611c03565b61057f565b005b3480156101e957600080fd5b506101f2610962565b6040516101b29190611ca0565b34801561020b57600080fd5b5061021f61021a366004611cb3565b6109f4565b6040516001600160a01b0390911681526020016101b2565b34801561024357600080fd5b506101db610252366004611ce8565b610a1d565b34801561026357600080fd5b50610277610272366004611cb3565b610a2c565b604080519283526020830191909152016101b2565b34801561029857600080fd5b506101db6102a7366004611d12565b610b24565b3480156102b857600080fd5b506101db610baf565b3480156102cd57600080fd5b506102e16102dc366004611d4f565b610c5e565b6040519081526020016101b2565b3480156102fb57600080fd5b506102e160085481565b6101db610313366004611cb3565b610cdd565b34801561032457600080fd5b506101db610333366004611d12565b610ed5565b34801561034457600080fd5b506101db610353366004611d71565b610ef5565b34801561036457600080fd5b50610378610373366004611d4f565b611081565b6040516101b29190611dc7565b34801561039157600080fd5b5061021f6103a0366004611cb3565b6111fe565b3480156103b157600080fd5b506102e16103c0366004611e52565b611209565b3480156103d157600080fd5b506101db611251565b3480156103e657600080fd5b506006546001600160a01b031661021f565b34801561040457600080fd5b506101f2611265565b34801561041957600080fd5b506102e1606481565b34801561042e57600080fd5b506101db61043d366004611e6d565b611274565b34801561044e57600080fd5b506101db61045d366004611ebf565b61127f565b34801561046e57600080fd5b506101f261047d366004611cb3565b611297565b34801561048e57600080fd5b506104e061049d366004611d4f565b6040805160208082019490945280820192909252805180830382018152606090920181528151918301919091206000908152600a90925290206004015460ff1690565b6040516101b29190611fa3565b3480156104f957600080fd5b506101a6610508366004611fb1565b61130c565b34801561051957600080fd5b506101db610528366004611e52565b61133a565b60006001600160e01b031982166380ac58cd60e01b148061055e57506001600160e01b03198216635b5e139f60e01b145b8061057957506301ffc9a760e01b6001600160e01b03198316145b92915050565b6007546001600160a01b031633146105de5760405162461bcd60e51b815260206004820152601d60248201527f4f6e6c79206f776e65722063616e206d696e7420726f6f6d206461797300000060448201526064015b60405180910390fd5b6000851180156105ef575060648511155b6106315760405162461bcd60e51b815260206004820152601360248201527224b73b30b634b2103937b7b690373ab6b132b960691b60448201526064016105d5565b828411156106765760405162461bcd60e51b8152602060048201526012602482015271496e76616c696420646174652072616e676560701b60448201526064016105d5565b428410156106bf5760405162461bcd60e51b815260206004820152601660248201527543616e6e6f7420626f6f6b207061737420646174657360501b60448201526064016105d5565b835b83811161095a57604080516020808201899052818301849052825180830384018152606090920183528151918101919091206000898152600b83528381208582529092529190205460ff16156107635760405162461bcd60e51b815260206004820152602160248201527f526f6f6d20616c726561647920626f6f6b656420666f722074686973206461746044820152606560f81b60648201526084016105d5565b6008805490600061077383611ffa565b919050555060006040518060a001604052808981526020018481526020018660028111156107a3576107a3611d9d565b81526020810186905260400160009052600980546001808201835560009290925282517f6e1540171b6c0c960b71a7020d9f60077f6af931a8bbf590da0223dacf75c7af600590920291820190815560208401517f6e1540171b6c0c960b71a7020d9f60077f6af931a8bbf590da0223dacf75c7b083015560408401517f6e1540171b6c0c960b71a7020d9f60077f6af931a8bbf590da0223dacf75c7b1909201805494955085949193909160ff19169083600281111561086657610866611d9d565b02179055506060820151816003015560808201518160040160006101000a81548160ff0219169083600381111561089f5761089f611d9d565b0217905550505080600a6000848152602001908152602001600020600082015181600001556020820151816001015560408201518160020160006101000a81548160ff021916908360028111156108f8576108f8611d9d565b02179055506060820151816003015560808201518160040160006101000a81548160ff0219169083600381111561093157610931611d9d565b02179055509050506109433383611378565b5061095390506201518082612013565b90506106c1565b505050505050565b60606000805461097190612026565b80601f016020809104026020016040519081016040528092919081815260200182805461099d90612026565b80156109ea5780601f106109bf576101008083540402835291602001916109ea565b820191906000526020600020905b8154815290600101906020018083116109cd57829003601f168201915b5050505050905090565b60006109ff82611392565b506000828152600460205260409020546001600160a01b0316610579565b610a288282336113cb565b5050565b6000818152600a60209081526040808320815160a08101835281548152600182015493810193909352600280820154859485949093929084019160ff1690811115610a7957610a79611d9d565b6002811115610a8a57610a8a611d9d565b81526003828101546020830152600483015460409092019160ff1690811115610ab557610ab5611d9d565b6003811115610ac657610ac6611d9d565b9052508051909150600003610b125760405162461bcd60e51b8152602060048201526012602482015271149bdbdb4819185e481b9bdd08199bdd5b9960721b60448201526064016105d5565b80516020909101519094909350915050565b6001600160a01b038216610b4e57604051633250574960e11b8152600060048201526024016105d5565b6000610b5b8383336113d8565b9050836001600160a01b0316816001600160a01b031614610ba9576040516364283d7b60e01b81526001600160a01b03808616600483015260248201849052821660448201526064016105d5565b50505050565b610bb76114d1565b476000610bcc6006546001600160a01b031690565b6001600160a01b03168260405160006040518083038185875af1925050503d8060008114610c16576040519150601f19603f3d011682016040523d82523d6000602084013e610c1b565b606091505b5050905080610a285760405162461bcd60e51b815260206004820152600f60248201526e151c985b9cd9995c8819985a5b1959608a1b60448201526064016105d5565b604080516020808201859052818301849052825180830384018152606090920190925280519101206000906000818152600a6020526040812054919250036105795760405162461bcd60e51b8152602060048201526012602482015271149bdbdb4819185e481b9bdd08199bdd5b9960721b60448201526064016105d5565b6000818152600a60209081526040808320815160a08101835281548152600182015493810193909352600280820154919284019160ff1690811115610d2457610d24611d9d565b6002811115610d3557610d35611d9d565b81526003828101546020830152600483015460409092019160ff1690811115610d6057610d60611d9d565b6003811115610d7157610d71611d9d565b9052509050600081608001516003811115610d8e57610d8e611d9d565b14610de65760405162461bcd60e51b815260206004820152602260248201527f526f6f6d206973206e6f7420617661696c61626c6520666f72207472616e736660448201526132b960f11b60648201526084016105d5565b8060600151341015610e445760405162461bcd60e51b815260206004820152602160248201527f496e73756666696369656e74207061796d656e7420666f72207472616e7366656044820152603960f91b60648201526084016105d5565b4281602001511015610ea25760405162461bcd60e51b815260206004820152602160248201527f43616e6e6f74207472616e73666572206578706972656420726f6f6d206461796044820152607360f81b60648201526084016105d5565b6000828152600a60205260409020600401805460ff19166001179055600754610a28906001600160a01b031633846114fe565b610ef08383836040518060200160405280600081525061127f565b505050565b610efd6114d1565b6000838152600b6020908152604080832085845290915290205460ff1615610f605760405162461bcd60e51b8152602060048201526016602482015275149bdbdb481a5cc8185b1c9958591e48189bdbdad95960521b60448201526064016105d5565b600083118015610f71575060648311155b610fb35760405162461bcd60e51b815260206004820152601360248201527224b73b30b634b2103937b7b690373ab6b132b960691b60448201526064016105d5565b60008211610ff25760405162461bcd60e51b815260206004820152600c60248201526b496e76616c6964206461746560a01b60448201526064016105d5565b600081116110425760405162461bcd60e51b815260206004820152601760248201527f496e76616c696420707269636520706572206e6967687400000000000000000060448201526064016105d5565b6040805160208082019590955280820193909352805180840382018152606090930181528251928401929092206000908152600a909352912060030155565b6060600061108f8385612013565b6009549091508111156110a157506009545b60006110ad8583612060565b905060008167ffffffffffffffff8111156110ca576110ca611ea9565b60405190808252806020026020018201604052801561110357816020015b6110f0611b80565b8152602001906001900390816110e85790505b50905060005b828110156111f457600961111d8289612013565b8154811061112d5761112d612073565b90600052602060002090600502016040518060a001604052908160008201548152602001600182015481526020016002820160009054906101000a900460ff16600281111561117e5761117e611d9d565b600281111561118f5761118f611d9d565b81526003828101546020830152600483015460409092019160ff16908111156111ba576111ba611d9d565b60038111156111cb576111cb611d9d565b815250508282815181106111e1576111e1612073565b6020908102919091010152600101611109565b5095945050505050565b600061057982611392565b60006001600160a01b038216611235576040516322718ad960e21b8152600060048201526024016105d5565b506001600160a01b031660009081526003602052604090205490565b6112596114d1565b61126360006115ae565b565b60606001805461097190612026565b610a28338383611600565b61128a848484610b24565b610ba9338585858561169f565b60606112a282611392565b5060006112ba60408051602081019091526000815290565b905060008151116112da5760405180602001604052806000815250611305565b806112e4846117c8565b6040516020016112f5929190612089565b6040516020818303038152906040525b9392505050565b6001600160a01b03918216600090815260056020908152604080832093909416825291909152205460ff1690565b6113426114d1565b6001600160a01b03811661136c57604051631e4fbdf760e01b8152600060048201526024016105d5565b611375816115ae565b50565b610a2882826040518060200160405280600081525061185b565b6000818152600260205260408120546001600160a01b03168061057957604051637e27328960e01b8152600481018490526024016105d5565b610ef08383836001611873565b6000828152600260205260408120546001600160a01b039081169083161561140557611405818486611979565b6001600160a01b0381161561144357611422600085600080611873565b6001600160a01b038116600090815260036020526040902080546000190190555b6001600160a01b03851615611472576001600160a01b0385166000908152600360205260409020805460010190555b60008481526002602052604080822080546001600160a01b0319166001600160a01b0389811691821790925591518793918516917fddf252ad1be2c89b69c2b068fc378daa952ba7f163c4a11628f55a4df523b3ef91a4949350505050565b6006546001600160a01b031633146112635760405163118cdaa760e01b81523360048201526024016105d5565b6001600160a01b03821661152857604051633250574960e11b8152600060048201526024016105d5565b6000611536838360006113d8565b90506001600160a01b03811661156257604051637e27328960e01b8152600481018390526024016105d5565b836001600160a01b0316816001600160a01b031614610ba9576040516364283d7b60e01b81526001600160a01b03808616600483015260248201849052821660448201526064016105d5565b600680546001600160a01b038381166001600160a01b0319831681179093556040519116919082907f8be0079c531659141344cd1fd0a4f28419497f9722a3daafe3b4186f6b6457e090600090a35050565b6001600160a01b03821661163257604051630b61174360e31b81526001600160a01b03831660048201526024016105d5565b6001600160a01b03838116600081815260056020908152604080832094871680845294825291829020805460ff191686151590811790915591519182527f17307eab39ab6107e8899845ad3d59bd9653f200f220920489ca2b5937696c31910160405180910390a3505050565b6001600160a01b0383163b156117c157604051630a85bd0160e11b81526001600160a01b0384169063150b7a02906116e19088908890879087906004016120b8565b6020604051808303816000875af192505050801561171c575060408051601f3d908101601f19168201909252611719918101906120f5565b60015b611785573d80801561174a576040519150601f19603f3d011682016040523d82523d6000602084013e61174f565b606091505b50805160000361177d57604051633250574960e11b81526001600160a01b03851660048201526024016105d5565b805181602001fd5b6001600160e01b03198116630a85bd0160e11b1461095a57604051633250574960e11b81526001600160a01b03851660048201526024016105d5565b5050505050565b606060006117d5836119dd565b600101905060008167ffffffffffffffff8111156117f5576117f5611ea9565b6040519080825280601f01601f19166020018201604052801561181f576020820181803683370190505b5090508181016020015b600019016f181899199a1a9b1b9c1cb0b131b232b360811b600a86061a8153600a850494508461182957509392505050565b6118658383611ab5565b610ef033600085858561169f565b808061188757506001600160a01b03821615155b1561194957600061189784611392565b90506001600160a01b038316158015906118c35750826001600160a01b0316816001600160a01b031614155b80156118d657506118d4818461130c565b155b156118ff5760405163a9fbf51f60e01b81526001600160a01b03841660048201526024016105d5565b81156119475783856001600160a01b0316826001600160a01b03167f8c5be1e5ebec7d5bd14f71427d1e84f3dd0314c0f7b2291e5b200ac8c7c3b92560405160405180910390a45b505b5050600090815260046020526040902080546001600160a01b0319166001600160a01b0392909216919091179055565b611984838383611b1a565b610ef0576001600160a01b0383166119b257604051637e27328960e01b8152600481018290526024016105d5565b60405163177e802f60e01b81526001600160a01b0383166004820152602481018290526044016105d5565b60008072184f03e93ff9f4daa797ed6e38ed64bf6a1f0160401b8310611a1c5772184f03e93ff9f4daa797ed6e38ed64bf6a1f0160401b830492506040015b6d04ee2d6d415b85acef81000000008310611a48576d04ee2d6d415b85acef8100000000830492506020015b662386f26fc100008310611a6657662386f26fc10000830492506010015b6305f5e1008310611a7e576305f5e100830492506008015b6127108310611a9257612710830492506004015b60648310611aa4576064830492506002015b600a83106105795760010192915050565b6001600160a01b038216611adf57604051633250574960e11b8152600060048201526024016105d5565b6000611aed838360006113d8565b90506001600160a01b03811615610ef0576040516339e3563760e11b8152600060048201526024016105d5565b60006001600160a01b03831615801590611b785750826001600160a01b0316846001600160a01b03161480611b545750611b54848461130c565b80611b7857506000828152600460205260409020546001600160a01b038481169116145b949350505050565b6040518060a00160405280600081526020016000815260200160006002811115611bac57611bac611d9d565b81526020016000815260200160006003811115611bcb57611bcb611d9d565b905290565b6001600160e01b03198116811461137557600080fd5b600060208284031215611bf857600080fd5b813561130581611bd0565b600080600080600060a08688031215611c1b57600080fd5b853594506020860135935060408601359250606086013560038110611c3f57600080fd5b949793965091946080013592915050565b60005b83811015611c6b578181015183820152602001611c53565b50506000910152565b60008151808452611c8c816020860160208601611c50565b601f01601f19169290920160200192915050565b6020815260006113056020830184611c74565b600060208284031215611cc557600080fd5b5035919050565b80356001600160a01b0381168114611ce357600080fd5b919050565b60008060408385031215611cfb57600080fd5b611d0483611ccc565b946020939093013593505050565b600080600060608486031215611d2757600080fd5b611d3084611ccc565b9250611d3e60208501611ccc565b929592945050506040919091013590565b60008060408385031215611d6257600080fd5b50508035926020909101359150565b600080600060608486031215611d8657600080fd5b505081359360208301359350604090920135919050565b634e487b7160e01b600052602160045260246000fd5b60048110611dc357611dc3611d9d565b9052565b602080825282518282018190526000918401906040840190835b81811015611e475783518051845260208101516020850152604081015160038110611e0e57611e0e611d9d565b60408501526060818101519085015260809081015190611e3090850182611db3565b506020939093019260a09290920191600101611de1565b509095945050505050565b600060208284031215611e6457600080fd5b61130582611ccc565b60008060408385031215611e8057600080fd5b611e8983611ccc565b915060208301358015158114611e9e57600080fd5b809150509250929050565b634e487b7160e01b600052604160045260246000fd5b60008060008060808587031215611ed557600080fd5b611ede85611ccc565b9350611eec60208601611ccc565b925060408501359150606085013567ffffffffffffffff811115611f0f57600080fd5b8501601f81018713611f2057600080fd5b803567ffffffffffffffff811115611f3a57611f3a611ea9565b604051601f8201601f19908116603f0116810167ffffffffffffffff81118282101715611f6957611f69611ea9565b604052818152828201602001891015611f8157600080fd5b8160208401602083013760006020838301015280935050505092959194509250565b602081016105798284611db3565b60008060408385031215611fc457600080fd5b611fcd83611ccc565b9150611fdb60208401611ccc565b90509250929050565b634e487b7160e01b600052601160045260246000fd5b60006001820161200c5761200c611fe4565b5060010190565b8082018082111561057957610579611fe4565b600181811c9082168061203a57607f821691505b60208210810361205a57634e487b7160e01b600052602260045260246000fd5b50919050565b8181038181111561057957610579611fe4565b634e487b7160e01b600052603260045260246000fd5b6000835161209b818460208801611c50565b8351908301906120af818360208801611c50565b01949350505050565b6001600160a01b03858116825284166020820152604081018390526080606082018190526000906120eb90830184611c74565b9695505050505050565b60006020828403121561210757600080fd5b815161130581611bd056fea264697066735822122071af0e7a5e8fd44e964c9bcb81cdb879d2dbe90826a6e4372b2e630b79e28b8b64736f6c634300081a0033","linkReferences":{}},"methodIdentifiers":{"TOTAL_ROOMS()":"9d3f4c28","approve(address,uint256)":"095ea7b3","balanceOf(address)":"70a08231","getAllRoomDays(uint256,uint256)":"509fb0cd","getApproved(uint256)":"081812fc","getRoomDay(uint256)":"194adba2","getRoomDayToken(uint256,uint256)":"2d9cb9d5","isApprovedForAll(address,address)":"e985e9c5","isRoomBooked(uint256,uint256)":"d30dba98","mintRoomDays(uint256,uint256,uint256,uint8,uint256)":"0396cde6","name()":"06fdde03","owner()":"8da5cb5b","ownerOf(uint256)":"6352211e","renounceOwnership()":"715018a6","safeTransferFrom(address,address,uint256)":"42842e0e","safeTransferFrom(address,address,uint256,bytes)":"b88d4fde","setApprovalForAll(address,bool)":"a22cb465","setPricePerNight(uint256,uint256,uint256)":"488bab48","supportsInterface(bytes4)":"01ffc9a7","symbol()":"95d89b41","tokenURI(uint256)":"c87b56dd","totalRoomDays()":"30a32f66","transferFrom(address,address,uint256)":"23b872dd","transferOwnership(address)":"f2fde38b","transferRoomDay(uint256)":"3282e1a4","withdrawFunds()":"24600fc3"},"id":33}