{"abi":[{"type":"constructor","inputs":[],"stateMutability":"nonpayable"},{"type":"function","name":"TOTAL_ROOMS","inputs":[],"outputs":[{"name":"","type":"uint256","internalType":"uint256"}],"stateMutability":"view"},{"type":"function","name":"approve","inputs":[{"name":"to","type":"address","internalType":"address"},{"name":"tokenId","type":"uint256","internalType":"uint256"}],"outputs":[],"stateMutability":"nonpayable"},{"type":"function","name":"balanceOf","inputs":[{"name":"owner","type":"address","internalType":"address"}],"outputs":[{"name":"","type":"uint256","internalType":"uint256"}],"stateMutability":"view"},{"type":"function","name":"getAllRoomDays","inputs":[{"name":"offset","type":"uint256","internalType":"uint256"},{"name":"limit","type":"uint256","internalType":"uint256"}],"outputs":[{"name":"","type":"tuple[]","internalType":"struct HotelRooms.RoomDay[]","components":[{"name":"roomId","type":"uint256","internalType":"uint256"},{"name":"date","type":"uint256","internalType":"uint256"},{"name":"year","type":"uint256","internalType":"uint256"},{"name":"month","type":"uint256","internalType":"uint256"},{"name":"day","type":"uint256","internalType":"uint256"},{"name":"roomType","type":"uint8","internalType":"enum HotelRooms.RoomType"},{"name":"pricePerNight","type":"uint256","internalType":"uint256"},{"name":"status","type":"uint8","internalType":"enum HotelRooms.RoomStatus"},{"name":"tokenId","type":"uint256","internalType":"uint256"},{"name":"owner","type":"address","internalType":"address"}]}],"stateMutability":"view"},{"type":"function","name":"getApproved","inputs":[{"name":"tokenId","type":"uint256","internalType":"uint256"}],"outputs":[{"name":"","type":"address","internalType":"address"}],"stateMutability":"view"},{"type":"function","name":"getRoomDay","inputs":[{"name":"tokenId","type":"uint256","internalType":"uint256"}],"outputs":[{"name":"roomId","type":"uint256","internalType":"uint256"},{"name":"date","type":"uint256","internalType":"uint256"}],"stateMutability":"view"},{"type":"function","name":"getRoomDayFilter","inputs":[{"name":"owner","type":"address","internalType":"address"},{"name":"status","type":"uint8","internalType":"enum HotelRooms.RoomStatus"},{"name":"roomType","type":"uint8","internalType":"enum HotelRooms.RoomType"},{"name":"year","type":"uint256","internalType":"uint256"},{"name":"month","type":"uint256","internalType":"uint256"},{"name":"day","type":"uint256","internalType":"uint256"}],"outputs":[{"name":"","type":"tuple[]","internalType":"struct HotelRooms.RoomDay[]","components":[{"name":"roomId","type":"uint256","internalType":"uint256"},{"name":"date","type":"uint256","internalType":"uint256"},{"name":"year","type":"uint256","internalType":"uint256"},{"name":"month","type":"uint256","internalType":"uint256"},{"name":"day","type":"uint256","internalType":"uint256"},{"name":"roomType","type":"uint8","internalType":"enum HotelRooms.RoomType"},{"name":"pricePerNight","type":"uint256","internalType":"uint256"},{"name":"status","type":"uint8","internalType":"enum HotelRooms.RoomStatus"},{"name":"tokenId","type":"uint256","internalType":"uint256"},{"name":"owner","type":"address","internalType":"address"}]}],"stateMutability":"view"},{"type":"function","name":"getRoomDayToken","inputs":[{"name":"roomId","type":"uint256","internalType":"uint256"},{"name":"date","type":"uint256","internalType":"uint256"}],"outputs":[{"name":"tokenId","type":"uint256","internalType":"uint256"}],"stateMutability":"view"},{"type":"function","name":"getTotals","inputs":[],"outputs":[{"name":"","type":"tuple[]","internalType":"struct HotelRooms.Total[]","components":[{"name":"year","type":"uint256","internalType":"uint256"},{"name":"month","type":"uint256","internalType":"uint256"},{"name":"day","type":"uint256","internalType":"uint256"},{"name":"status","type":"uint8","internalType":"enum HotelRooms.RoomStatus"},{"name":"roomType","type":"uint8","internalType":"enum HotelRooms.RoomType"},{"name":"count","type":"uint256","internalType":"uint256"}]}],"stateMutability":"view"},{"type":"function","name":"isApprovedForAll","inputs":[{"name":"owner","type":"address","internalType":"address"},{"name":"operator","type":"address","internalType":"address"}],"outputs":[{"name":"","type":"bool","internalType":"bool"}],"stateMutability":"view"},{"type":"function","name":"isRoomBooked","inputs":[{"name":"roomId","type":"uint256","internalType":"uint256"},{"name":"date","type":"uint256","internalType":"uint256"}],"outputs":[{"name":"","type":"uint8","internalType":"enum HotelRooms.RoomStatus"}],"stateMutability":"view"},{"type":"function","name":"mintRoomDays","inputs":[{"name":"roomId","type":"uint256","internalType":"uint256"},{"name":"startDate","type":"uint256","internalType":"uint256"},{"name":"endDate","type":"uint256","internalType":"uint256"},{"name":"roomType","type":"uint8","internalType":"enum HotelRooms.RoomType"},{"name":"pricePerNight","type":"uint256","internalType":"uint256"}],"outputs":[],"stateMutability":"nonpayable"},{"type":"function","name":"name","inputs":[],"outputs":[{"name":"","type":"string","internalType":"string"}],"stateMutability":"view"},{"type":"function","name":"owner","inputs":[],"outputs":[{"name":"","type":"address","internalType":"address"}],"stateMutability":"view"},{"type":"function","name":"ownerOf","inputs":[{"name":"tokenId","type":"uint256","internalType":"uint256"}],"outputs":[{"name":"","type":"address","internalType":"address"}],"stateMutability":"view"},{"type":"function","name":"renounceOwnership","inputs":[],"outputs":[],"stateMutability":"nonpayable"},{"type":"function","name":"safeTransferFrom","inputs":[{"name":"from","type":"address","internalType":"address"},{"name":"to","type":"address","internalType":"address"},{"name":"tokenId","type":"uint256","internalType":"uint256"}],"outputs":[],"stateMutability":"nonpayable"},{"type":"function","name":"safeTransferFrom","inputs":[{"name":"from","type":"address","internalType":"address"},{"name":"to","type":"address","internalType":"address"},{"name":"tokenId","type":"uint256","internalType":"uint256"},{"name":"data","type":"bytes","internalType":"bytes"}],"outputs":[],"stateMutability":"nonpayable"},{"type":"function","name":"setApprovalForAll","inputs":[{"name":"operator","type":"address","internalType":"address"},{"name":"approved","type":"bool","internalType":"bool"}],"outputs":[],"stateMutability":"nonpayable"},{"type":"function","name":"setPricePerNight","inputs":[{"name":"roomId","type":"uint256","internalType":"uint256"},{"name":"date","type":"uint256","internalType":"uint256"},{"name":"pricePerNight","type":"uint256","internalType":"uint256"}],"outputs":[],"stateMutability":"nonpayable"},{"type":"function","name":"setToUsed","inputs":[{"name":"tokenId","type":"uint256","internalType":"uint256"}],"outputs":[],"stateMutability":"nonpayable"},{"type":"function","name":"supportsInterface","inputs":[{"name":"interfaceId","type":"bytes4","internalType":"bytes4"}],"outputs":[{"name":"","type":"bool","internalType":"bool"}],"stateMutability":"view"},{"type":"function","name":"symbol","inputs":[],"outputs":[{"name":"","type":"string","internalType":"string"}],"stateMutability":"view"},{"type":"function","name":"tokenURI","inputs":[{"name":"tokenId","type":"uint256","internalType":"uint256"}],"outputs":[{"name":"","type":"string","internalType":"string"}],"stateMutability":"view"},{"type":"function","name":"totalRoomDays","inputs":[],"outputs":[{"name":"","type":"uint256","internalType":"uint256"}],"stateMutability":"view"},{"type":"function","name":"transferFrom","inputs":[{"name":"from","type":"address","internalType":"address"},{"name":"to","type":"address","internalType":"address"},{"name":"tokenId","type":"uint256","internalType":"uint256"}],"outputs":[],"stateMutability":"nonpayable"},{"type":"function","name":"transferOwnership","inputs":[{"name":"newOwner","type":"address","internalType":"address"}],"outputs":[],"stateMutability":"nonpayable"},{"type":"function","name":"transferRoomDay","inputs":[{"name":"tokenId","type":"uint256","internalType":"uint256"}],"outputs":[],"stateMutability":"payable"},{"type":"function","name":"withdrawFunds","inputs":[],"outputs":[],"stateMutability":"nonpayable"},{"type":"event","name":"Approval","inputs":[{"name":"owner","type":"address","indexed":true,"internalType":"address"},{"name":"approved","type":"address","indexed":true,"internalType":"address"},{"name":"tokenId","type":"uint256","indexed":true,"internalType":"uint256"}],"anonymous":false},{"type":"event","name":"ApprovalForAll","inputs":[{"name":"owner","type":"address","indexed":true,"internalType":"address"},{"name":"operator","type":"address","indexed":true,"internalType":"address"},{"name":"approved","type":"bool","indexed":false,"internalType":"bool"}],"anonymous":false},{"type":"event","name":"OwnershipTransferred","inputs":[{"name":"previousOwner","type":"address","indexed":true,"internalType":"address"},{"name":"newOwner","type":"address","indexed":true,"internalType":"address"}],"anonymous":false},{"type":"event","name":"Transfer","inputs":[{"name":"from","type":"address","indexed":true,"internalType":"address"},{"name":"to","type":"address","indexed":true,"internalType":"address"},{"name":"tokenId","type":"uint256","indexed":true,"internalType":"uint256"}],"anonymous":false},{"type":"error","name":"ERC721IncorrectOwner","inputs":[{"name":"sender","type":"address","internalType":"address"},{"name":"tokenId","type":"uint256","internalType":"uint256"},{"name":"owner","type":"address","internalType":"address"}]},{"type":"error","name":"ERC721InsufficientApproval","inputs":[{"name":"operator","type":"address","internalType":"address"},{"name":"tokenId","type":"uint256","internalType":"uint256"}]},{"type":"error","name":"ERC721InvalidApprover","inputs":[{"name":"approver","type":"address","internalType":"address"}]},{"type":"error","name":"ERC721InvalidOperator","inputs":[{"name":"operator","type":"address","internalType":"address"}]},{"type":"error","name":"ERC721InvalidOwner","inputs":[{"name":"owner","type":"address","internalType":"address"}]},{"type":"error","name":"ERC721InvalidReceiver","inputs":[{"name":"receiver","type":"address","internalType":"address"}]},{"type":"error","name":"ERC721InvalidSender","inputs":[{"name":"sender","type":"address","internalType":"address"}]},{"type":"error","name":"ERC721NonexistentToken","inputs":[{"name":"tokenId","type":"uint256","internalType":"uint256"}]},{"type":"error","name":"OwnableInvalidOwner","inputs":[{"name":"owner","type":"address","internalType":"address"}]},{"type":"error","name":"OwnableUnauthorizedAccount","inputs":[{"name":"account","type":"address","internalType":"address"}]}],"bytecode":{"object":"0x608060405234801561000f575f5ffd5b50336040518060400160405280600a81526020017f486f74656c526f6f6d73000000000000000000000000000000000000000000008152506040518060400160405280600581526020017f48524f4f4d000000000000000000000000000000000000000000000000000000815250815f908161008b9190610463565b50806001908161009b9190610463565b5050505f73ffffffffffffffffffffffffffffffffffffffff168173ffffffffffffffffffffffffffffffffffffffff160361010e575f6040517f1e4fbdf70000000000000000000000000000000000000000000000000000000081526004016101059190610571565b60405180910390fd5b61011d8161016360201b60201c565b503360075f6101000a81548173ffffffffffffffffffffffffffffffffffffffff021916908373ffffffffffffffffffffffffffffffffffffffff16021790555061058a565b5f60065f9054906101000a900473ffffffffffffffffffffffffffffffffffffffff1690508160065f6101000a81548173ffffffffffffffffffffffffffffffffffffffff021916908373ffffffffffffffffffffffffffffffffffffffff1602179055508173ffffffffffffffffffffffffffffffffffffffff168173ffffffffffffffffffffffffffffffffffffffff167f8be0079c531659141344cd1fd0a4f28419497f9722a3daafe3b4186f6b6457e060405160405180910390a35050565b5f81519050919050565b7f4e487b71000000000000000000000000000000000000000000000000000000005f52604160045260245ffd5b7f4e487b71000000000000000000000000000000000000000000000000000000005f52602260045260245ffd5b5f60028204905060018216806102a157607f821691505b6020821081036102b4576102b361025d565b5b50919050565b5f819050815f5260205f209050919050565b5f6020601f8301049050919050565b5f82821b905092915050565b5f600883026103167fffffffffffffffffffffffffffffffffffffffffffffffffffffffffffffffff826102db565b61032086836102db565b95508019841693508086168417925050509392505050565b5f819050919050565b5f819050919050565b5f61036461035f61035a84610338565b610341565b610338565b9050919050565b5f819050919050565b61037d8361034a565b6103916103898261036b565b8484546102e7565b825550505050565b5f5f905090565b6103a8610399565b6103b3818484610374565b505050565b5b818110156103d6576103cb5f826103a0565b6001810190506103b9565b5050565b601f82111561041b576103ec816102ba565b6103f5846102cc565b81016020851015610404578190505b610418610410856102cc565b8301826103b8565b50505b505050565b5f82821c905092915050565b5f61043b5f1984600802610420565b1980831691505092915050565b5f610453838361042c565b9150826002028217905092915050565b61046c82610226565b67ffffffffffffffff81111561048557610484610230565b5b61048f825461028a565b61049a8282856103da565b5f60209050601f8311600181146104cb575f84156104b9578287015190505b6104c38582610448565b86555061052a565b601f1984166104d9866102ba565b5f5b82811015610500578489015182556001820191506020850194506020810190506104db565b8683101561051d5784890151610519601f89168261042c565b8355505b6001600288020188555050505b505050505050565b5f73ffffffffffffffffffffffffffffffffffffffff82169050919050565b5f61055b82610532565b9050919050565b61056b81610551565b82525050565b5f6020820190506105845f830184610562565b92915050565b615141806105975f395ff3fe6080604052600436106101c1575f3560e01c80636352211e116100f6578063a22cb46511610094578063d37d721b11610063578063d37d721b1461063e578063e7b67f0314610666578063e985e9c5146106a2578063f2fde38b146106de576101c1565b8063a22cb46514610576578063b88d4fde1461059e578063c87b56dd146105c6578063d30dba9814610602576101c1565b806384e10a90116100d057806384e10a90146104ce5780638da5cb5b146104f857806395d89b41146105225780639d3f4c281461054c576101c1565b80636352211e1461044057806370a082311461047c578063715018a6146104b8576101c1565b806324600fc3116101635780633282e1a41161013d5780633282e1a41461039857806342842e0e146103b4578063488bab48146103dc578063509fb0cd14610404576101c1565b806324600fc31461031c5780632d9cb9d51461033257806330a32f661461036e576101c1565b8063081812fc1161019f578063081812fc14610253578063095ea7b31461028f578063194adba2146102b757806323b872dd146102f4576101c1565b806301ffc9a7146101c55780630396cde61461020157806306fdde0314610229575b5f5ffd5b3480156101d0575f5ffd5b506101eb60048036038101906101e69190613a27565b610706565b6040516101f89190613a6c565b60405180910390f35b34801561020c575f5ffd5b5061022760048036038101906102229190613adb565b6107e7565b005b348015610234575f5ffd5b5061023d610cc9565b60405161024a9190613bc2565b60405180910390f35b34801561025e575f5ffd5b5061027960048036038101906102749190613be2565b610d58565b6040516102869190613c4c565b60405180910390f35b34801561029a575f5ffd5b506102b560048036038101906102b09190613c8f565b610d73565b005b3480156102c2575f5ffd5b506102dd60048036038101906102d89190613be2565b610d89565b6040516102eb929190613cdc565b60405180910390f35b3480156102ff575f5ffd5b5061031a60048036038101906103159190613d03565b610f11565b005b348015610327575f5ffd5b50610330611010565b005b34801561033d575f5ffd5b5061035860048036038101906103539190613d53565b6110cf565b6040516103659190613d91565b60405180910390f35b348015610379575f5ffd5b50610382611137565b60405161038f9190613d91565b60405180910390f35b6103b260048036038101906103ad9190613be2565b61113d565b005b3480156103bf575f5ffd5b506103da60048036038101906103d59190613d03565b611435565b005b3480156103e7575f5ffd5b5061040260048036038101906103fd9190613daa565b611454565b005b34801561040f575f5ffd5b5061042a60048036038101906104259190613d53565b6115c3565b6040516104379190614044565b60405180910390f35b34801561044b575f5ffd5b5061046660048036038101906104619190613be2565b6117da565b6040516104739190613c4c565b60405180910390f35b348015610487575f5ffd5b506104a2600480360381019061049d9190614064565b6117eb565b6040516104af9190613d91565b60405180910390f35b3480156104c3575f5ffd5b506104cc6118a1565b005b3480156104d9575f5ffd5b506104e26118b4565b6040516104ef91906141b0565b60405180910390f35b348015610503575f5ffd5b5061050c6119ac565b6040516105199190613c4c565b60405180910390f35b34801561052d575f5ffd5b506105366119d4565b6040516105439190613bc2565b60405180910390f35b348015610557575f5ffd5b50610560611a64565b60405161056d9190613d91565b60405180910390f35b348015610581575f5ffd5b5061059c600480360381019061059791906141fa565b611a69565b005b3480156105a9575f5ffd5b506105c460048036038101906105bf9190614364565b611a7f565b005b3480156105d1575f5ffd5b506105ec60048036038101906105e79190613be2565b611aa4565b6040516105f99190613bc2565b60405180910390f35b34801561060d575f5ffd5b5061062860048036038101906106239190613d53565b611b0a565b60405161063591906143f3565b60405180910390f35b348015610649575f5ffd5b50610664600480360381019061065f9190613be2565b611b3d565b005b348015610671575f5ffd5b5061068c6004803603810190610687919061442f565b611e1e565b6040516106999190614044565b60405180910390f35b3480156106ad575f5ffd5b506106c860048036038101906106c391906144b8565b61232c565b6040516106d59190613a6c565b60405180910390f35b3480156106e9575f5ffd5b5061070460048036038101906106ff9190614064565b6123ba565b005b5f7f80ac58cd000000000000000000000000000000000000000000000000000000007bffffffffffffffffffffffffffffffffffffffffffffffffffffffff1916827bffffffffffffffffffffffffffffffffffffffffffffffffffffffff191614806107d057507f5b5e139f000000000000000000000000000000000000000000000000000000007bffffffffffffffffffffffffffffffffffffffffffffffffffffffff1916827bffffffffffffffffffffffffffffffffffffffffffffffffffffffff1916145b806107e057506107df8261243e565b5b9050919050565b60075f9054906101000a900473ffffffffffffffffffffffffffffffffffffffff1673ffffffffffffffffffffffffffffffffffffffff163373ffffffffffffffffffffffffffffffffffffffff1614610876576040517f08c379a000000000000000000000000000000000000000000000000000000000815260040161086d90614540565b60405180910390fd5b5f85118015610886575060648511155b6108c5576040517f08c379a00000000000000000000000000000000000000000000000000000000081526004016108bc906145a8565b60405180910390fd5b82841115610908576040517f08c379a00000000000000000000000000000000000000000000000000000000081526004016108ff90614610565b60405180910390fd5b4284101561094b576040517f08c379a000000000000000000000000000000000000000000000000000000000815260040161094290614678565b60405180910390fd5b5f8490505b838111610cc1575f61096287836124a7565b9050600c5f8881526020019081526020015f205f8381526020019081526020015f205f9054906101000a900460ff16156109d1576040517f08c379a00000000000000000000000000000000000000000000000000000000081526004016109c890614706565b60405180910390fd5b60085f8154809291906109e390614751565b91905055505f5f5f6109f48561250d565b9250925092505f6040518061014001604052808c8152602001878152602001858152602001848152602001838152602001896003811115610a3857610a37613e32565b5b81526020018881526020015f6004811115610a5657610a55613e32565b5b81526020018681526020013373ffffffffffffffffffffffffffffffffffffffff168152509050600a81908060018154018082558091505060019003905f5260205f2090600a02015f909190919091505f820151815f01556020820151816001015560408201518160020155606082015181600301556080820151816004015560a0820151816005015f6101000a81548160ff02191690836003811115610b0057610aff613e32565b5b021790555060c0820151816006015560e0820151816007015f6101000a81548160ff02191690836004811115610b3957610b38613e32565b5b02179055506101008201518160080155610120820151816009015f6101000a81548173ffffffffffffffffffffffffffffffffffffffff021916908373ffffffffffffffffffffffffffffffffffffffff1602179055505050610b9d86895f61253a565b80600b5f8781526020019081526020015f205f820151815f01556020820151816001015560408201518160020155606082015181600301556080820151816004015560a0820151816005015f6101000a81548160ff02191690836003811115610c0957610c08613e32565b5b021790555060c0820151816006015560e0820151816007015f6101000a81548160ff02191690836004811115610c4257610c41613e32565b5b02179055506101008201518160080155610120820151816009015f6101000a81548173ffffffffffffffffffffffffffffffffffffffff021916908373ffffffffffffffffffffffffffffffffffffffff160217905550905050610ca63386612561565b50505050506201518081610cba9190614798565b9050610950565b505050505050565b60605f8054610cd7906147f8565b80601f0160208091040260200160405190810160405280929190818152602001828054610d03906147f8565b8015610d4e5780601f10610d2557610100808354040283529160200191610d4e565b820191905f5260205f20905b815481529060010190602001808311610d3157829003601f168201915b5050505050905090565b5f610d628261257e565b50610d6c82612604565b9050919050565b610d858282610d8061263d565b612644565b5050565b5f5f5f600b5f8581526020019081526020015f20604051806101400160405290815f820154815260200160018201548152602001600282015481526020016003820154815260200160048201548152602001600582015f9054906101000a900460ff166003811115610dfe57610dfd613e32565b5b6003811115610e1057610e0f613e32565b5b815260200160068201548152602001600782015f9054906101000a900460ff166004811115610e4257610e41613e32565b5b6004811115610e5457610e53613e32565b5b815260200160088201548152602001600982015f9054906101000a900473ffffffffffffffffffffffffffffffffffffffff1673ffffffffffffffffffffffffffffffffffffffff1673ffffffffffffffffffffffffffffffffffffffff168152505090505f815f015103610efe576040517f08c379a0000000000000000000000000000000000000000000000000000000008152600401610ef590614872565b60405180910390fd5b805f015181602001519250925050915091565b5f73ffffffffffffffffffffffffffffffffffffffff168273ffffffffffffffffffffffffffffffffffffffff1603610f81575f6040517f64a0ae92000000000000000000000000000000000000000000000000000000008152600401610f789190613c4c565b60405180910390fd5b5f610f948383610f8f61263d565b612656565b90508373ffffffffffffffffffffffffffffffffffffffff168173ffffffffffffffffffffffffffffffffffffffff161461100a578382826040517f64283d7b00000000000000000000000000000000000000000000000000000000815260040161100193929190614890565b60405180910390fd5b50505050565b611018612861565b5f4790505f6110256119ac565b73ffffffffffffffffffffffffffffffffffffffff1682604051611048906148f2565b5f6040518083038185875af1925050503d805f8114611082576040519150601f19603f3d011682016040523d82523d5f602084013e611087565b606091505b50509050806110cb576040517f08c379a00000000000000000000000000000000000000000000000000000000081526004016110c290614950565b60405180910390fd5b5050565b5f6110da83836124a7565b90505f600b5f8381526020019081526020015f205f015403611131576040517f08c379a000000000000000000000000000000000000000000000000000000000815260040161112890614872565b60405180910390fd5b92915050565b60085481565b5f600b5f8381526020019081526020015f20604051806101400160405290815f820154815260200160018201548152602001600282015481526020016003820154815260200160048201548152602001600582015f9054906101000a900460ff1660038111156111b0576111af613e32565b5b60038111156111c2576111c1613e32565b5b815260200160068201548152602001600782015f9054906101000a900460ff1660048111156111f4576111f3613e32565b5b600481111561120657611205613e32565b5b815260200160088201548152602001600982015f9054906101000a900473ffffffffffffffffffffffffffffffffffffffff1673ffffffffffffffffffffffffffffffffffffffff1673ffffffffffffffffffffffffffffffffffffffff168152505090505f600481111561127e5761127d613e32565b5b8160e00151600481111561129557611294613e32565b5b146112d5576040517f08c379a00000000000000000000000000000000000000000000000000000000081526004016112cc906149de565b60405180910390fd5b8060c0015134101561131c576040517f08c379a000000000000000000000000000000000000000000000000000000000815260040161131390614a6c565b60405180910390fd5b4281602001511015611363576040517f08c379a000000000000000000000000000000000000000000000000000000000815260040161135a90614afa565b60405180910390fd5b6001600b5f8481526020019081526020015f206007015f6101000a81548160ff0219169083600481111561139a57611399613e32565b5b021790555033600b5f8481526020019081526020015f206009015f6101000a81548173ffffffffffffffffffffffffffffffffffffffff021916908373ffffffffffffffffffffffffffffffffffffffff16021790555061140581602001518260a00151600161253a565b61143160075f9054906101000a900473ffffffffffffffffffffffffffffffffffffffff1633846128e8565b5050565b61144f83838360405180602001604052805f815250611a7f565b505050565b61145c612861565b600c5f8481526020019081526020015f205f8381526020019081526020015f205f9054906101000a900460ff16156114c9576040517f08c379a00000000000000000000000000000000000000000000000000000000081526004016114c090614b62565b60405180910390fd5b5f831180156114d9575060648311155b611518576040517f08c379a000000000000000000000000000000000000000000000000000000000815260040161150f906145a8565b60405180910390fd5b5f821161155a576040517f08c379a000000000000000000000000000000000000000000000000000000000815260040161155190614bca565b60405180910390fd5b5f811161159c576040517f08c379a000000000000000000000000000000000000000000000000000000000815260040161159390614c32565b60405180910390fd5b80600b5f6115aa86866124a7565b81526020019081526020015f2060060181905550505050565b60605f82846115d29190614798565b9050600a805490508111156115ea57600a8054905090505b5f84826115f79190614c50565b90505f8167ffffffffffffffff81111561161457611613614240565b5b60405190808252806020026020018201604052801561164d57816020015b61163a61393e565b8152602001906001900390816116325790505b5090505f5f90505b828110156117cd57600a818861166b9190614798565b8154811061167c5761167b614c83565b5b905f5260205f2090600a0201604051806101400160405290815f820154815260200160018201548152602001600282015481526020016003820154815260200160048201548152602001600582015f9054906101000a900460ff1660038111156116e9576116e8613e32565b5b60038111156116fb576116fa613e32565b5b815260200160068201548152602001600782015f9054906101000a900460ff16600481111561172d5761172c613e32565b5b600481111561173f5761173e613e32565b5b815260200160088201548152602001600982015f9054906101000a900473ffffffffffffffffffffffffffffffffffffffff1673ffffffffffffffffffffffffffffffffffffffff1673ffffffffffffffffffffffffffffffffffffffff16815250508282815181106117b5576117b4614c83565b5b60200260200101819052508080600101915050611655565b5080935050505092915050565b5f6117e48261257e565b9050919050565b5f5f73ffffffffffffffffffffffffffffffffffffffff168273ffffffffffffffffffffffffffffffffffffffff160361185c575f6040517f89c62b640000000000000000000000000000000000000000000000000000000081526004016118539190613c4c565b60405180910390fd5b60035f8373ffffffffffffffffffffffffffffffffffffffff1673ffffffffffffffffffffffffffffffffffffffff1681526020019081526020015f20549050919050565b6118a9612861565b6118b25f612a50565b565b60606009805480602002602001604051908101604052809291908181526020015f905b828210156119a3578382905f5260205f2090600502016040518060c00160405290815f82015481526020016001820154815260200160028201548152602001600382015f9054906101000a900460ff16600481111561193957611938613e32565b5b600481111561194b5761194a613e32565b5b81526020016003820160019054906101000a900460ff16600381111561197457611973613e32565b5b600381111561198657611985613e32565b5b8152602001600482015481525050815260200190600101906118d7565b50505050905090565b5f60065f9054906101000a900473ffffffffffffffffffffffffffffffffffffffff16905090565b6060600180546119e3906147f8565b80601f0160208091040260200160405190810160405280929190818152602001828054611a0f906147f8565b8015611a5a5780601f10611a3157610100808354040283529160200191611a5a565b820191905f5260205f20905b815481529060010190602001808311611a3d57829003601f168201915b5050505050905090565b606481565b611a7b611a7461263d565b8383612b13565b5050565b611a8a848484610f11565b611a9e611a9561263d565b85858585612c7c565b50505050565b6060611aaf8261257e565b505f611ab9612e28565b90505f815111611ad75760405180602001604052805f815250611b02565b80611ae184612e3e565b604051602001611af2929190614cea565b6040516020818303038152906040525b915050919050565b5f600b5f611b1885856124a7565b81526020019081526020015f206007015f9054906101000a900460ff16905092915050565b5f600b5f8381526020019081526020015f205f015403611b92576040517f08c379a0000000000000000000000000000000000000000000000000000000008152600401611b8990614872565b60405180910390fd5b5f600b5f8381526020019081526020015f20604051806101400160405290815f820154815260200160018201548152602001600282015481526020016003820154815260200160048201548152602001600582015f9054906101000a900460ff166003811115611c0557611c04613e32565b5b6003811115611c1757611c16613e32565b5b815260200160068201548152602001600782015f9054906101000a900460ff166004811115611c4957611c48613e32565b5b6004811115611c5b57611c5a613e32565b5b815260200160088201548152602001600982015f9054906101000a900473ffffffffffffffffffffffffffffffffffffffff1673ffffffffffffffffffffffffffffffffffffffff1673ffffffffffffffffffffffffffffffffffffffff1681525050905060016004811115611cd457611cd3613e32565b5b8160e001516004811115611ceb57611cea613e32565b5b14611d2b576040517f08c379a0000000000000000000000000000000000000000000000000000000008152600401611d2290614d57565b60405180910390fd5b3373ffffffffffffffffffffffffffffffffffffffff1681610120015173ffffffffffffffffffffffffffffffffffffffff1614611d9e576040517f08c379a0000000000000000000000000000000000000000000000000000000008152600401611d9590614de5565b60405180910390fd5b6003600b5f8481526020019081526020015f206007015f6101000a81548160ff02191690836004811115611dd557611dd4613e32565b5b0217905550611dee81602001518260a00151600361253a565b611e1a3360075f9054906101000a900473ffffffffffffffffffffffffffffffffffffffff16846128e8565b5050565b60605f600a8054905067ffffffffffffffff811115611e4057611e3f614240565b5b604051908082528060200260200182016040528015611e7957816020015b611e6661393e565b815260200190600190039081611e5e5790505b5090505f5f90505f5f90505b600a80549050811015612270575f73ffffffffffffffffffffffffffffffffffffffff168a73ffffffffffffffffffffffffffffffffffffffff161480611f3957508973ffffffffffffffffffffffffffffffffffffffff16600a8281548110611ef257611ef1614c83565b5b905f5260205f2090600a02016009015f9054906101000a900473ffffffffffffffffffffffffffffffffffffffff1673ffffffffffffffffffffffffffffffffffffffff16145b8015611fc55750886004811115611f5357611f52613e32565b5b600a8281548110611f6757611f66614c83565b5b905f5260205f2090600a02016007015f9054906101000a900460ff166004811115611f9557611f94613e32565b5b1480611fc45750600480811115611faf57611fae613e32565b5b896004811115611fc257611fc1613e32565b5b145b5b80156120515750876003811115611fdf57611fde613e32565b5b600a8281548110611ff357611ff2614c83565b5b905f5260205f2090600a02016005015f9054906101000a900460ff16600381111561202157612020613e32565b5b1480612050575060038081111561203b5761203a613e32565b5b88600381111561204e5761204d613e32565b5b145b5b801561208957505f871480612088575086600a828154811061207657612075614c83565b5b905f5260205f2090600a020160020154145b5b80156120c157505f8614806120c0575085600a82815481106120ae576120ad614c83565b5b905f5260205f2090600a020160030154145b5b80156120f957505f8514806120f8575084600a82815481106120e6576120e5614c83565b5b905f5260205f2090600a020160040154145b5b1561226357600a818154811061211257612111614c83565b5b905f5260205f2090600a0201604051806101400160405290815f820154815260200160018201548152602001600282015481526020016003820154815260200160048201548152602001600582015f9054906101000a900460ff16600381111561217f5761217e613e32565b5b600381111561219157612190613e32565b5b815260200160068201548152602001600782015f9054906101000a900460ff1660048111156121c3576121c2613e32565b5b60048111156121d5576121d4613e32565b5b815260200160088201548152602001600982015f9054906101000a900473ffffffffffffffffffffffffffffffffffffffff1673ffffffffffffffffffffffffffffffffffffffff1673ffffffffffffffffffffffffffffffffffffffff168152505083838061224490614751565b94508151811061225757612256614c83565b5b60200260200101819052505b8080600101915050611e85565b505f8167ffffffffffffffff81111561228c5761228b614240565b5b6040519080825280602002602001820160405280156122c557816020015b6122b261393e565b8152602001906001900390816122aa5790505b5090505f5f90505b8281101561231b578381815181106122e8576122e7614c83565b5b602002602001015182828151811061230357612302614c83565b5b602002602001018190525080806001019150506122cd565b508093505050509695505050505050565b5f60055f8473ffffffffffffffffffffffffffffffffffffffff1673ffffffffffffffffffffffffffffffffffffffff1681526020019081526020015f205f8373ffffffffffffffffffffffffffffffffffffffff1673ffffffffffffffffffffffffffffffffffffffff1681526020019081526020015f205f9054906101000a900460ff16905092915050565b6123c2612861565b5f73ffffffffffffffffffffffffffffffffffffffff168173ffffffffffffffffffffffffffffffffffffffff1603612432575f6040517f1e4fbdf70000000000000000000000000000000000000000000000000000000081526004016124299190613c4c565b60405180910390fd5b61243b81612a50565b50565b5f7f01ffc9a7000000000000000000000000000000000000000000000000000000007bffffffffffffffffffffffffffffffffffffffffffffffffffffffff1916827bffffffffffffffffffffffffffffffffffffffffffffffffffffffff1916149050919050565b5f5f5f5f6124b48561250d565b925092509250856103e8826064856124cc9190614e03565b612710876124da9190614e03565b6124e49190614798565b6124ee9190614798565b6124f89190614e03565b6125029190614798565b935050505092915050565b5f5f5f61252762015180856125229190614e71565b612f08565b8093508194508295505050509193909250565b5f5f5f6125468661250d565b92509250925061255983838387896130a0565b505050505050565b61257a828260405180602001604052805f81525061335c565b5050565b5f5f6125898361337f565b90505f73ffffffffffffffffffffffffffffffffffffffff168173ffffffffffffffffffffffffffffffffffffffff16036125fb57826040517f7e2732890000000000000000000000000000000000000000000000000000000081526004016125f29190613d91565b60405180910390fd5b80915050919050565b5f60045f8381526020019081526020015f205f9054906101000a900473ffffffffffffffffffffffffffffffffffffffff169050919050565b5f33905090565b61265183838360016133b8565b505050565b5f5f6126618461337f565b90505f73ffffffffffffffffffffffffffffffffffffffff168373ffffffffffffffffffffffffffffffffffffffff16146126a2576126a1818486613577565b5b5f73ffffffffffffffffffffffffffffffffffffffff168173ffffffffffffffffffffffffffffffffffffffff161461272d576126e15f855f5f6133b8565b600160035f8373ffffffffffffffffffffffffffffffffffffffff1673ffffffffffffffffffffffffffffffffffffffff1681526020019081526020015f205f82825403925050819055505b5f73ffffffffffffffffffffffffffffffffffffffff168573ffffffffffffffffffffffffffffffffffffffff16146127ac57600160035f8773ffffffffffffffffffffffffffffffffffffffff1673ffffffffffffffffffffffffffffffffffffffff1681526020019081526020015f205f82825401925050819055505b8460025f8681526020019081526020015f205f6101000a81548173ffffffffffffffffffffffffffffffffffffffff021916908373ffffffffffffffffffffffffffffffffffffffff160217905550838573ffffffffffffffffffffffffffffffffffffffff168273ffffffffffffffffffffffffffffffffffffffff167fddf252ad1be2c89b69c2b068fc378daa952ba7f163c4a11628f55a4df523b3ef60405160405180910390a4809150509392505050565b61286961263d565b73ffffffffffffffffffffffffffffffffffffffff166128876119ac565b73ffffffffffffffffffffffffffffffffffffffff16146128e6576128aa61263d565b6040517f118cdaa70000000000000000000000000000000000000000000000000000000081526004016128dd9190613c4c565b60405180910390fd5b565b5f73ffffffffffffffffffffffffffffffffffffffff168273ffffffffffffffffffffffffffffffffffffffff1603612958575f6040517f64a0ae9200000000000000000000000000000000000000000000000000000000815260040161294f9190613c4c565b60405180910390fd5b5f61296483835f612656565b90505f73ffffffffffffffffffffffffffffffffffffffff168173ffffffffffffffffffffffffffffffffffffffff16036129d657816040517f7e2732890000000000000000000000000000000000000000000000000000000081526004016129cd9190613d91565b60405180910390fd5b8373ffffffffffffffffffffffffffffffffffffffff168173ffffffffffffffffffffffffffffffffffffffff1614612a4a578382826040517f64283d7b000000000000000000000000000000000000000000000000000000008152600401612a4193929190614890565b60405180910390fd5b50505050565b5f60065f9054906101000a900473ffffffffffffffffffffffffffffffffffffffff1690508160065f6101000a81548173ffffffffffffffffffffffffffffffffffffffff021916908373ffffffffffffffffffffffffffffffffffffffff1602179055508173ffffffffffffffffffffffffffffffffffffffff168173ffffffffffffffffffffffffffffffffffffffff167f8be0079c531659141344cd1fd0a4f28419497f9722a3daafe3b4186f6b6457e060405160405180910390a35050565b5f73ffffffffffffffffffffffffffffffffffffffff168273ffffffffffffffffffffffffffffffffffffffff1603612b8357816040517f5b08ba18000000000000000000000000000000000000000000000000000000008152600401612b7a9190613c4c565b60405180910390fd5b8060055f8573ffffffffffffffffffffffffffffffffffffffff1673ffffffffffffffffffffffffffffffffffffffff1681526020019081526020015f205f8473ffffffffffffffffffffffffffffffffffffffff1673ffffffffffffffffffffffffffffffffffffffff1681526020019081526020015f205f6101000a81548160ff0219169083151502179055508173ffffffffffffffffffffffffffffffffffffffff168373ffffffffffffffffffffffffffffffffffffffff167f17307eab39ab6107e8899845ad3d59bd9653f200f220920489ca2b5937696c3183604051612c6f9190613a6c565b60405180910390a3505050565b5f8373ffffffffffffffffffffffffffffffffffffffff163b1115612e21578273ffffffffffffffffffffffffffffffffffffffff1663150b7a02868685856040518563ffffffff1660e01b8152600401612cda9493929190614ef3565b6020604051808303815f875af1925050508015612d1557506040513d601f19601f82011682018060405250810190612d129190614f51565b60015b612d96573d805f8114612d43576040519150601f19603f3d011682016040523d82523d5f602084013e612d48565b606091505b505f815103612d8e57836040517f64a0ae92000000000000000000000000000000000000000000000000000000008152600401612d859190613c4c565b60405180910390fd5b805181602001fd5b63150b7a0260e01b7bffffffffffffffffffffffffffffffffffffffffffffffffffffffff1916817bffffffffffffffffffffffffffffffffffffffffffffffffffffffff191614612e1f57836040517f64a0ae92000000000000000000000000000000000000000000000000000000008152600401612e169190613c4c565b60405180910390fd5b505b5050505050565b606060405180602001604052805f815250905090565b60605f6001612e4c8461363a565b0190505f8167ffffffffffffffff811115612e6a57612e69614240565b5b6040519080825280601f01601f191660200182016040528015612e9c5781602001600182028036833780820191505090505b5090505f82602001820190505b600115612efd578080600190039150507f3031323334353637383961626364656600000000000000000000000000000000600a86061a8153600a8581612ef257612ef1614e44565b5b0494505f8503612ea9575b819350505050919050565b5f5f5f5f8490505f62253d8c62010bd983612f239190614f85565b612f2d9190614f85565b90505f62023ab1826004612f419190614fc6565b612f4b919061503c565b9050600460038262023ab1612f609190614fc6565b612f6a9190614f85565b612f74919061503c565b82612f7f91906150a4565b91505f62164b09600184612f939190614f85565b610fa0612fa09190614fc6565b612faa919061503c565b9050601f6004826105b5612fbe9190614fc6565b612fc8919061503c565b84612fd391906150a4565b612fdd9190614f85565b92505f61098f846050612ff09190614fc6565b612ffa919061503c565b90505f60508261098f61300d9190614fc6565b613017919061503c565b8561302291906150a4565b9050600b82613031919061503c565b945084600c6130409190614fc6565b60028361304d9190614f85565b61305791906150a4565b9150848360318661306891906150a4565b60646130749190614fc6565b61307e9190614f85565b6130889190614f85565b92508298508197508096505050505050509193909250565b5f5f90505f5f90505b6009805490508110156132475786600982815481106130cb576130ca614c83565b5b905f5260205f2090600502015f0154148015613109575085600982815481106130f7576130f6614c83565b5b905f5260205f20906005020160010154145b80156131375750846009828154811061312557613124614c83565b5b905f5260205f20906005020160020154145b8015613195575083600481111561315157613150613e32565b5b6009828154811061316557613164614c83565b5b905f5260205f2090600502016003015f9054906101000a900460ff16600481111561319357613192613e32565b5b145b80156131f457508260038111156131af576131ae613e32565b5b600982815481106131c3576131c2614c83565b5b905f5260205f20906005020160030160019054906101000a900460ff1660038111156131f2576131f1613e32565b5b145b1561323a576009818154811061320d5761320c614c83565b5b905f5260205f2090600502016004015f81548092919061322c90614751565b919050555060019150613247565b80806001019150506130a9565b5080613354575f6040518060c0016040528088815260200187815260200186815260200185600481111561327e5761327d613e32565b5b815260200184600381111561329657613295613e32565b5b815260200160018152509050600981908060018154018082558091505060019003905f5260205f2090600502015f909190919091505f820151815f015560208201518160010155604082015181600201556060820151816003015f6101000a81548160ff0219169083600481111561331157613310613e32565b5b021790555060808201518160030160016101000a81548160ff0219169083600381111561334157613340613e32565b5b021790555060a082015181600401555050505b505050505050565b613366838361378b565b61337a61337161263d565b5f858585612c7c565b505050565b5f60025f8381526020019081526020015f205f9054906101000a900473ffffffffffffffffffffffffffffffffffffffff169050919050565b80806133f057505f73ffffffffffffffffffffffffffffffffffffffff168273ffffffffffffffffffffffffffffffffffffffff1614155b15613522575f6133ff8461257e565b90505f73ffffffffffffffffffffffffffffffffffffffff168373ffffffffffffffffffffffffffffffffffffffff161415801561346957508273ffffffffffffffffffffffffffffffffffffffff168173ffffffffffffffffffffffffffffffffffffffff1614155b801561347c575061347a818461232c565b155b156134be57826040517fa9fbf51f0000000000000000000000000000000000000000000000000000000081526004016134b59190613c4c565b60405180910390fd5b811561352057838573ffffffffffffffffffffffffffffffffffffffff168273ffffffffffffffffffffffffffffffffffffffff167f8c5be1e5ebec7d5bd14f71427d1e84f3dd0314c0f7b2291e5b200ac8c7c3b92560405160405180910390a45b505b8360045f8581526020019081526020015f205f6101000a81548173ffffffffffffffffffffffffffffffffffffffff021916908373ffffffffffffffffffffffffffffffffffffffff16021790555050505050565b61358283838361387e565b613635575f73ffffffffffffffffffffffffffffffffffffffff168373ffffffffffffffffffffffffffffffffffffffff16036135f657806040517f7e2732890000000000000000000000000000000000000000000000000000000081526004016135ed9190613d91565b60405180910390fd5b81816040517f177e802f00000000000000000000000000000000000000000000000000000000815260040161362c9291906150e4565b60405180910390fd5b505050565b5f5f5f90507a184f03e93ff9f4daa797ed6e38ed64bf6a1f0100000000000000008310613696577a184f03e93ff9f4daa797ed6e38ed64bf6a1f010000000000000000838161368c5761368b614e44565b5b0492506040810190505b6d04ee2d6d415b85acef810000000083106136d3576d04ee2d6d415b85acef810000000083816136c9576136c8614e44565b5b0492506020810190505b662386f26fc10000831061370257662386f26fc1000083816136f8576136f7614e44565b5b0492506010810190505b6305f5e100831061372b576305f5e100838161372157613720614e44565b5b0492506008810190505b612710831061375057612710838161374657613745614e44565b5b0492506004810190505b60648310613773576064838161376957613768614e44565b5b0492506002810190505b600a8310613782576001810190505b80915050919050565b5f73ffffffffffffffffffffffffffffffffffffffff168273ffffffffffffffffffffffffffffffffffffffff16036137fb575f6040517f64a0ae920000000000000000000000000000000000000000000000000000000081526004016137f29190613c4c565b60405180910390fd5b5f61380783835f612656565b90505f73ffffffffffffffffffffffffffffffffffffffff168173ffffffffffffffffffffffffffffffffffffffff1614613879575f6040517f73c6ac6e0000000000000000000000000000000000000000000000000000000081526004016138709190613c4c565b60405180910390fd5b505050565b5f5f73ffffffffffffffffffffffffffffffffffffffff168373ffffffffffffffffffffffffffffffffffffffff161415801561393557508273ffffffffffffffffffffffffffffffffffffffff168473ffffffffffffffffffffffffffffffffffffffff1614806138f657506138f5848461232c565b5b8061393457508273ffffffffffffffffffffffffffffffffffffffff1661391c83612604565b73ffffffffffffffffffffffffffffffffffffffff16145b5b90509392505050565b6040518061014001604052805f81526020015f81526020015f81526020015f81526020015f81526020015f600381111561397b5761397a613e32565b5b81526020015f81526020015f600481111561399957613998613e32565b5b81526020015f81526020015f73ffffffffffffffffffffffffffffffffffffffff1681525090565b5f604051905090565b5f5ffd5b5f5ffd5b5f7fffffffff0000000000000000000000000000000000000000000000000000000082169050919050565b613a06816139d2565b8114613a10575f5ffd5b50565b5f81359050613a21816139fd565b92915050565b5f60208284031215613a3c57613a3b6139ca565b5b5f613a4984828501613a13565b91505092915050565b5f8115159050919050565b613a6681613a52565b82525050565b5f602082019050613a7f5f830184613a5d565b92915050565b5f819050919050565b613a9781613a85565b8114613aa1575f5ffd5b50565b5f81359050613ab281613a8e565b92915050565b60048110613ac4575f5ffd5b50565b5f81359050613ad581613ab8565b92915050565b5f5f5f5f5f60a08688031215613af457613af36139ca565b5b5f613b0188828901613aa4565b9550506020613b1288828901613aa4565b9450506040613b2388828901613aa4565b9350506060613b3488828901613ac7565b9250506080613b4588828901613aa4565b9150509295509295909350565b5f81519050919050565b5f82825260208201905092915050565b8281835e5f83830152505050565b5f601f19601f8301169050919050565b5f613b9482613b52565b613b9e8185613b5c565b9350613bae818560208601613b6c565b613bb781613b7a565b840191505092915050565b5f6020820190508181035f830152613bda8184613b8a565b905092915050565b5f60208284031215613bf757613bf66139ca565b5b5f613c0484828501613aa4565b91505092915050565b5f73ffffffffffffffffffffffffffffffffffffffff82169050919050565b5f613c3682613c0d565b9050919050565b613c4681613c2c565b82525050565b5f602082019050613c5f5f830184613c3d565b92915050565b613c6e81613c2c565b8114613c78575f5ffd5b50565b5f81359050613c8981613c65565b92915050565b5f5f60408385031215613ca557613ca46139ca565b5b5f613cb285828601613c7b565b9250506020613cc385828601613aa4565b9150509250929050565b613cd681613a85565b82525050565b5f604082019050613cef5f830185613ccd565b613cfc6020830184613ccd565b9392505050565b5f5f5f60608486031215613d1a57613d196139ca565b5b5f613d2786828701613c7b565b9350506020613d3886828701613c7b565b9250506040613d4986828701613aa4565b9150509250925092565b5f5f60408385031215613d6957613d686139ca565b5b5f613d7685828601613aa4565b9250506020613d8785828601613aa4565b9150509250929050565b5f602082019050613da45f830184613ccd565b92915050565b5f5f5f60608486031215613dc157613dc06139ca565b5b5f613dce86828701613aa4565b9350506020613ddf86828701613aa4565b9250506040613df086828701613aa4565b9150509250925092565b5f81519050919050565b5f82825260208201905092915050565b5f819050602082019050919050565b613e2c81613a85565b82525050565b7f4e487b71000000000000000000000000000000000000000000000000000000005f52602160045260245ffd5b60048110613e7057613e6f613e32565b5b50565b5f819050613e8082613e5f565b919050565b5f613e8f82613e73565b9050919050565b613e9f81613e85565b82525050565b60058110613eb657613eb5613e32565b5b50565b5f819050613ec682613ea5565b919050565b5f613ed582613eb9565b9050919050565b613ee581613ecb565b82525050565b613ef481613c2c565b82525050565b61014082015f820151613f0f5f850182613e23565b506020820151613f226020850182613e23565b506040820151613f356040850182613e23565b506060820151613f486060850182613e23565b506080820151613f5b6080850182613e23565b5060a0820151613f6e60a0850182613e96565b5060c0820151613f8160c0850182613e23565b5060e0820151613f9460e0850182613edc565b50610100820151613fa9610100850182613e23565b50610120820151613fbe610120850182613eeb565b50505050565b5f613fcf8383613efa565b6101408301905092915050565b5f602082019050919050565b5f613ff282613dfa565b613ffc8185613e04565b935061400783613e14565b805f5b8381101561403757815161401e8882613fc4565b975061402983613fdc565b92505060018101905061400a565b5085935050505092915050565b5f6020820190508181035f83015261405c8184613fe8565b905092915050565b5f60208284031215614079576140786139ca565b5b5f61408684828501613c7b565b91505092915050565b5f81519050919050565b5f82825260208201905092915050565b5f819050602082019050919050565b60c082015f8201516140cc5f850182613e23565b5060208201516140df6020850182613e23565b5060408201516140f26040850182613e23565b5060608201516141056060850182613edc565b5060808201516141186080850182613e96565b5060a082015161412b60a0850182613e23565b50505050565b5f61413c83836140b8565b60c08301905092915050565b5f602082019050919050565b5f61415e8261408f565b6141688185614099565b9350614173836140a9565b805f5b838110156141a357815161418a8882614131565b975061419583614148565b925050600181019050614176565b5085935050505092915050565b5f6020820190508181035f8301526141c88184614154565b905092915050565b6141d981613a52565b81146141e3575f5ffd5b50565b5f813590506141f4816141d0565b92915050565b5f5f604083850312156142105761420f6139ca565b5b5f61421d85828601613c7b565b925050602061422e858286016141e6565b9150509250929050565b5f5ffd5b5f5ffd5b7f4e487b71000000000000000000000000000000000000000000000000000000005f52604160045260245ffd5b61427682613b7a565b810181811067ffffffffffffffff8211171561429557614294614240565b5b80604052505050565b5f6142a76139c1565b90506142b3828261426d565b919050565b5f67ffffffffffffffff8211156142d2576142d1614240565b5b6142db82613b7a565b9050602081019050919050565b828183375f83830152505050565b5f614308614303846142b8565b61429e565b9050828152602081018484840111156143245761432361423c565b5b61432f8482856142e8565b509392505050565b5f82601f83011261434b5761434a614238565b5b813561435b8482602086016142f6565b91505092915050565b5f5f5f5f6080858703121561437c5761437b6139ca565b5b5f61438987828801613c7b565b945050602061439a87828801613c7b565b93505060406143ab87828801613aa4565b925050606085013567ffffffffffffffff8111156143cc576143cb6139ce565b5b6143d887828801614337565b91505092959194509250565b6143ed81613ecb565b82525050565b5f6020820190506144065f8301846143e4565b92915050565b60058110614418575f5ffd5b50565b5f813590506144298161440c565b92915050565b5f5f5f5f5f5f60c08789031215614449576144486139ca565b5b5f61445689828a01613c7b565b965050602061446789828a0161441b565b955050604061447889828a01613ac7565b945050606061448989828a01613aa4565b935050608061449a89828a01613aa4565b92505060a06144ab89828a01613aa4565b9150509295509295509295565b5f5f604083850312156144ce576144cd6139ca565b5b5f6144db85828601613c7b565b92505060206144ec85828601613c7b565b9150509250929050565b7f4f6e6c79206f776e65722063616e206d696e7420726f6f6d20646179730000005f82015250565b5f61452a601d83613b5c565b9150614535826144f6565b602082019050919050565b5f6020820190508181035f8301526145578161451e565b9050919050565b7f496e76616c696420726f6f6d206e756d626572000000000000000000000000005f82015250565b5f614592601383613b5c565b915061459d8261455e565b602082019050919050565b5f6020820190508181035f8301526145bf81614586565b9050919050565b7f496e76616c696420646174652072616e676500000000000000000000000000005f82015250565b5f6145fa601283613b5c565b9150614605826145c6565b602082019050919050565b5f6020820190508181035f830152614627816145ee565b9050919050565b7f43616e6e6f7420626f6f6b2070617374206461746573000000000000000000005f82015250565b5f614662601683613b5c565b915061466d8261462e565b602082019050919050565b5f6020820190508181035f83015261468f81614656565b9050919050565b7f526f6f6d20616c726561647920626f6f6b656420666f722074686973206461745f8201527f6500000000000000000000000000000000000000000000000000000000000000602082015250565b5f6146f0602183613b5c565b91506146fb82614696565b604082019050919050565b5f6020820190508181035f83015261471d816146e4565b9050919050565b7f4e487b71000000000000000000000000000000000000000000000000000000005f52601160045260245ffd5b5f61475b82613a85565b91507fffffffffffffffffffffffffffffffffffffffffffffffffffffffffffffffff820361478d5761478c614724565b5b600182019050919050565b5f6147a282613a85565b91506147ad83613a85565b92508282019050808211156147c5576147c4614724565b5b92915050565b7f4e487b71000000000000000000000000000000000000000000000000000000005f52602260045260245ffd5b5f600282049050600182168061480f57607f821691505b602082108103614822576148216147cb565b5b50919050565b7f526f6f6d20646179206e6f7420666f756e6400000000000000000000000000005f82015250565b5f61485c601283613b5c565b915061486782614828565b602082019050919050565b5f6020820190508181035f83015261488981614850565b9050919050565b5f6060820190506148a35f830186613c3d565b6148b06020830185613ccd565b6148bd6040830184613c3d565b949350505050565b5f81905092915050565b50565b5f6148dd5f836148c5565b91506148e8826148cf565b5f82019050919050565b5f6148fc826148d2565b9150819050919050565b7f5472616e73666572206661696c656400000000000000000000000000000000005f82015250565b5f61493a600f83613b5c565b915061494582614906565b602082019050919050565b5f6020820190508181035f8301526149678161492e565b9050919050565b7f526f6f6d206973206e6f7420617661696c61626c6520666f72207472616e73665f8201527f6572000000000000000000000000000000000000000000000000000000000000602082015250565b5f6149c8602283613b5c565b91506149d38261496e565b604082019050919050565b5f6020820190508181035f8301526149f5816149bc565b9050919050565b7f496e73756666696369656e74207061796d656e7420666f72207472616e7366655f8201527f7200000000000000000000000000000000000000000000000000000000000000602082015250565b5f614a56602183613b5c565b9150614a61826149fc565b604082019050919050565b5f6020820190508181035f830152614a8381614a4a565b9050919050565b7f43616e6e6f74207472616e73666572206578706972656420726f6f6d206461795f8201527f7300000000000000000000000000000000000000000000000000000000000000602082015250565b5f614ae4602183613b5c565b9150614aef82614a8a565b604082019050919050565b5f6020820190508181035f830152614b1181614ad8565b9050919050565b7f526f6f6d20697320616c726561647920626f6f6b6564000000000000000000005f82015250565b5f614b4c601683613b5c565b9150614b5782614b18565b602082019050919050565b5f6020820190508181035f830152614b7981614b40565b9050919050565b7f496e76616c6964206461746500000000000000000000000000000000000000005f82015250565b5f614bb4600c83613b5c565b9150614bbf82614b80565b602082019050919050565b5f6020820190508181035f830152614be181614ba8565b9050919050565b7f496e76616c696420707269636520706572206e696768740000000000000000005f82015250565b5f614c1c601783613b5c565b9150614c2782614be8565b602082019050919050565b5f6020820190508181035f830152614c4981614c10565b9050919050565b5f614c5a82613a85565b9150614c6583613a85565b9250828203905081811115614c7d57614c7c614724565b5b92915050565b7f4e487b71000000000000000000000000000000000000000000000000000000005f52603260045260245ffd5b5f81905092915050565b5f614cc482613b52565b614cce8185614cb0565b9350614cde818560208601613b6c565b80840191505092915050565b5f614cf58285614cba565b9150614d018284614cba565b91508190509392505050565b7f526f6f6d206973206e6f7420626f6f6b656400000000000000000000000000005f82015250565b5f614d41601283613b5c565b9150614d4c82614d0d565b602082019050919050565b5f6020820190508181035f830152614d6e81614d35565b9050919050565b7f596f7520617265206e6f7420746865206f776e6572206f66207468697320726f5f8201527f6f6d000000000000000000000000000000000000000000000000000000000000602082015250565b5f614dcf602283613b5c565b9150614dda82614d75565b604082019050919050565b5f6020820190508181035f830152614dfc81614dc3565b9050919050565b5f614e0d82613a85565b9150614e1883613a85565b9250828202614e2681613a85565b91508282048414831517614e3d57614e3c614724565b5b5092915050565b7f4e487b71000000000000000000000000000000000000000000000000000000005f52601260045260245ffd5b5f614e7b82613a85565b9150614e8683613a85565b925082614e9657614e95614e44565b5b828204905092915050565b5f81519050919050565b5f82825260208201905092915050565b5f614ec582614ea1565b614ecf8185614eab565b9350614edf818560208601613b6c565b614ee881613b7a565b840191505092915050565b5f608082019050614f065f830187613c3d565b614f136020830186613c3d565b614f206040830185613ccd565b8181036060830152614f328184614ebb565b905095945050505050565b5f81519050614f4b816139fd565b92915050565b5f60208284031215614f6657614f656139ca565b5b5f614f7384828501614f3d565b91505092915050565b5f819050919050565b5f614f8f82614f7c565b9150614f9a83614f7c565b92508282019050828112155f8312168382125f841215161715614fc057614fbf614724565b5b92915050565b5f614fd082614f7c565b9150614fdb83614f7c565b9250828202614fe981614f7c565b91507f800000000000000000000000000000000000000000000000000000000000000084145f841216156150205761501f614724565b5b828205841483151761503557615034614724565b5b5092915050565b5f61504682614f7c565b915061505183614f7c565b92508261506157615060614e44565b5b60015f0383147f80000000000000000000000000000000000000000000000000000000000000008314161561509957615098614724565b5b828205905092915050565b5f6150ae82614f7c565b91506150b983614f7c565b925082820390508181125f8412168282135f8512151617156150de576150dd614724565b5b92915050565b5f6040820190506150f75f830185613c3d565b6151046020830184613ccd565b939250505056fea26469706673582212205865aac4d34239b6cafdfb91d1124c766242bfb13883b8d7953fd339d7ff7e5a64736f6c634300081c0033","linkReferences":{}},"methodIdentifiers":{"TOTAL_ROOMS()":"9d3f4c28","approve(address,uint256)":"095ea7b3","balanceOf(address)":"70a08231","getAllRoomDays(uint256,uint256)":"509fb0cd","getApproved(uint256)":"081812fc","getRoomDay(uint256)":"194adba2","getRoomDayFilter(address,uint8,uint8,uint256,uint256,uint256)":"e7b67f03","getRoomDayToken(uint256,uint256)":"2d9cb9d5","getTotals()":"84e10a90","isApprovedForAll(address,address)":"e985e9c5","isRoomBooked(uint256,uint256)":"d30dba98","mintRoomDays(uint256,uint256,uint256,uint8,uint256)":"0396cde6","name()":"06fdde03","owner()":"8da5cb5b","ownerOf(uint256)":"6352211e","renounceOwnership()":"715018a6","safeTransferFrom(address,address,uint256)":"42842e0e","safeTransferFrom(address,address,uint256,bytes)":"b88d4fde","setApprovalForAll(address,bool)":"a22cb465","setPricePerNight(uint256,uint256,uint256)":"488bab48","setToUsed(uint256)":"d37d721b","supportsInterface(bytes4)":"01ffc9a7","symbol()":"95d89b41","tokenURI(uint256)":"c87b56dd","totalRoomDays()":"30a32f66","transferFrom(address,address,uint256)":"23b872dd","transferOwnership(address)":"f2fde38b","transferRoomDay(uint256)":"3282e1a4","withdrawFunds()":"24600fc3"},"id":16}