{"abi":[{"type":"constructor","inputs":[],"stateMutability":"nonpayable"},{"type":"function","name":"TOTAL_ROOMS","inputs":[],"outputs":[{"name":"","type":"uint256","internalType":"uint256"}],"stateMutability":"view"},{"type":"function","name":"approve","inputs":[{"name":"to","type":"address","internalType":"address"},{"name":"tokenId","type":"uint256","internalType":"uint256"}],"outputs":[],"stateMutability":"nonpayable"},{"type":"function","name":"balanceOf","inputs":[{"name":"owner","type":"address","internalType":"address"}],"outputs":[{"name":"","type":"uint256","internalType":"uint256"}],"stateMutability":"view"},{"type":"function","name":"getAllData","inputs":[],"outputs":[{"name":"","type":"tuple[]","internalType":"struct HotelRooms.RoomDay[]","components":[{"name":"roomId","type":"uint256","internalType":"uint256"},{"name":"date","type":"uint256","internalType":"uint256"},{"name":"year","type":"uint256","internalType":"uint256"},{"name":"month","type":"uint256","internalType":"uint256"},{"name":"day","type":"uint256","internalType":"uint256"},{"name":"roomType","type":"uint8","internalType":"enum HotelRooms.RoomType"},{"name":"pricePerNight","type":"uint256","internalType":"uint256"},{"name":"status","type":"uint8","internalType":"enum HotelRooms.RoomStatus"},{"name":"tokenId","type":"uint256","internalType":"uint256"},{"name":"owner","type":"address","internalType":"address"}]},{"name":"","type":"tuple[]","internalType":"struct HotelRooms.Total[]","components":[{"name":"year","type":"uint256","internalType":"uint256"},{"name":"month","type":"uint256","internalType":"uint256"},{"name":"day","type":"uint256","internalType":"uint256"},{"name":"status","type":"uint8","internalType":"enum HotelRooms.RoomStatus"},{"name":"roomType","type":"uint8","internalType":"enum HotelRooms.RoomType"},{"name":"count","type":"int256","internalType":"int256"}]}],"stateMutability":"view"},{"type":"function","name":"getAllRoomDays","inputs":[{"name":"offset","type":"uint256","internalType":"uint256"},{"name":"limit","type":"uint256","internalType":"uint256"}],"outputs":[{"name":"","type":"tuple[]","internalType":"struct HotelRooms.RoomDay[]","components":[{"name":"roomId","type":"uint256","internalType":"uint256"},{"name":"date","type":"uint256","internalType":"uint256"},{"name":"year","type":"uint256","internalType":"uint256"},{"name":"month","type":"uint256","internalType":"uint256"},{"name":"day","type":"uint256","internalType":"uint256"},{"name":"roomType","type":"uint8","internalType":"enum HotelRooms.RoomType"},{"name":"pricePerNight","type":"uint256","internalType":"uint256"},{"name":"status","type":"uint8","internalType":"enum HotelRooms.RoomStatus"},{"name":"tokenId","type":"uint256","internalType":"uint256"},{"name":"owner","type":"address","internalType":"address"}]}],"stateMutability":"view"},{"type":"function","name":"getApproved","inputs":[{"name":"tokenId","type":"uint256","internalType":"uint256"}],"outputs":[{"name":"","type":"address","internalType":"address"}],"stateMutability":"view"},{"type":"function","name":"getRoomDay","inputs":[{"name":"tokenId","type":"uint256","internalType":"uint256"}],"outputs":[{"name":"roomId","type":"uint256","internalType":"uint256"},{"name":"date","type":"uint256","internalType":"uint256"}],"stateMutability":"view"},{"type":"function","name":"getRoomDayFilter","inputs":[{"name":"owner","type":"address","internalType":"address"},{"name":"status","type":"uint8","internalType":"enum HotelRooms.RoomStatus"},{"name":"roomType","type":"uint8","internalType":"enum HotelRooms.RoomType"},{"name":"year","type":"uint256","internalType":"uint256"},{"name":"month","type":"uint256","internalType":"uint256"},{"name":"day","type":"uint256","internalType":"uint256"}],"outputs":[{"name":"","type":"tuple[]","internalType":"struct HotelRooms.RoomDay[]","components":[{"name":"roomId","type":"uint256","internalType":"uint256"},{"name":"date","type":"uint256","internalType":"uint256"},{"name":"year","type":"uint256","internalType":"uint256"},{"name":"month","type":"uint256","internalType":"uint256"},{"name":"day","type":"uint256","internalType":"uint256"},{"name":"roomType","type":"uint8","internalType":"enum HotelRooms.RoomType"},{"name":"pricePerNight","type":"uint256","internalType":"uint256"},{"name":"status","type":"uint8","internalType":"enum HotelRooms.RoomStatus"},{"name":"tokenId","type":"uint256","internalType":"uint256"},{"name":"owner","type":"address","internalType":"address"}]}],"stateMutability":"view"},{"type":"function","name":"getRoomDayToken","inputs":[{"name":"roomId","type":"uint256","internalType":"uint256"},{"name":"date","type":"uint256","internalType":"uint256"}],"outputs":[{"name":"tokenId","type":"uint256","internalType":"uint256"}],"stateMutability":"view"},{"type":"function","name":"getRoomsBetweenDates","inputs":[{"name":"dateFrom","type":"uint256","internalType":"uint256"},{"name":"dateTo","type":"uint256","internalType":"uint256"}],"outputs":[{"name":"","type":"tuple[]","internalType":"struct HotelRooms.RoomDay[]","components":[{"name":"roomId","type":"uint256","internalType":"uint256"},{"name":"date","type":"uint256","internalType":"uint256"},{"name":"year","type":"uint256","internalType":"uint256"},{"name":"month","type":"uint256","internalType":"uint256"},{"name":"day","type":"uint256","internalType":"uint256"},{"name":"roomType","type":"uint8","internalType":"enum HotelRooms.RoomType"},{"name":"pricePerNight","type":"uint256","internalType":"uint256"},{"name":"status","type":"uint8","internalType":"enum HotelRooms.RoomStatus"},{"name":"tokenId","type":"uint256","internalType":"uint256"},{"name":"owner","type":"address","internalType":"address"}]}],"stateMutability":"view"},{"type":"function","name":"getTotals","inputs":[],"outputs":[{"name":"","type":"tuple[]","internalType":"struct HotelRooms.Total[]","components":[{"name":"year","type":"uint256","internalType":"uint256"},{"name":"month","type":"uint256","internalType":"uint256"},{"name":"day","type":"uint256","internalType":"uint256"},{"name":"status","type":"uint8","internalType":"enum HotelRooms.RoomStatus"},{"name":"roomType","type":"uint8","internalType":"enum HotelRooms.RoomType"},{"name":"count","type":"int256","internalType":"int256"}]}],"stateMutability":"view"},{"type":"function","name":"isApprovedForAll","inputs":[{"name":"owner","type":"address","internalType":"address"},{"name":"operator","type":"address","internalType":"address"}],"outputs":[{"name":"","type":"bool","internalType":"bool"}],"stateMutability":"view"},{"type":"function","name":"isRoomBooked","inputs":[{"name":"roomId","type":"uint256","internalType":"uint256"},{"name":"date","type":"uint256","internalType":"uint256"}],"outputs":[{"name":"","type":"uint8","internalType":"enum HotelRooms.RoomStatus"}],"stateMutability":"view"},{"type":"function","name":"mintMultipleRoomDays","inputs":[{"name":"roomIdStart","type":"uint256","internalType":"uint256"},{"name":"roomIdEnd","type":"uint256","internalType":"uint256"},{"name":"startDate","type":"uint256","internalType":"uint256"},{"name":"endDate","type":"uint256","internalType":"uint256"},{"name":"roomType","type":"uint8","internalType":"enum HotelRooms.RoomType"},{"name":"pricePerNight","type":"uint256","internalType":"uint256"}],"outputs":[],"stateMutability":"nonpayable"},{"type":"function","name":"mintRoomDays","inputs":[{"name":"roomId","type":"uint256","internalType":"uint256"},{"name":"startDate","type":"uint256","internalType":"uint256"},{"name":"endDate","type":"uint256","internalType":"uint256"},{"name":"roomType","type":"uint8","internalType":"enum HotelRooms.RoomType"},{"name":"pricePerNight","type":"uint256","internalType":"uint256"}],"outputs":[],"stateMutability":"nonpayable"},{"type":"function","name":"mintRoomDaysMultiple","inputs":[{"name":"tokenIds","type":"uint256[]","internalType":"uint256[]"}],"outputs":[],"stateMutability":"payable"},{"type":"function","name":"misTokens","inputs":[],"outputs":[{"name":"","type":"uint256[]","internalType":"uint256[]"}],"stateMutability":"view"},{"type":"function","name":"name","inputs":[],"outputs":[{"name":"","type":"string","internalType":"string"}],"stateMutability":"view"},{"type":"function","name":"owner","inputs":[],"outputs":[{"name":"","type":"address","internalType":"address"}],"stateMutability":"view"},{"type":"function","name":"ownerOf","inputs":[{"name":"tokenId","type":"uint256","internalType":"uint256"}],"outputs":[{"name":"","type":"address","internalType":"address"}],"stateMutability":"view"},{"type":"function","name":"renounceOwnership","inputs":[],"outputs":[],"stateMutability":"nonpayable"},{"type":"function","name":"safeTransferFrom","inputs":[{"name":"from","type":"address","internalType":"address"},{"name":"to","type":"address","internalType":"address"},{"name":"tokenId","type":"uint256","internalType":"uint256"}],"outputs":[],"stateMutability":"nonpayable"},{"type":"function","name":"safeTransferFrom","inputs":[{"name":"from","type":"address","internalType":"address"},{"name":"to","type":"address","internalType":"address"},{"name":"tokenId","type":"uint256","internalType":"uint256"},{"name":"data","type":"bytes","internalType":"bytes"}],"outputs":[],"stateMutability":"nonpayable"},{"type":"function","name":"setApprovalForAll","inputs":[{"name":"operator","type":"address","internalType":"address"},{"name":"approved","type":"bool","internalType":"bool"}],"outputs":[],"stateMutability":"nonpayable"},{"type":"function","name":"setPricePerNight","inputs":[{"name":"roomId","type":"uint256","internalType":"uint256"},{"name":"date","type":"uint256","internalType":"uint256"},{"name":"pricePerNight","type":"uint256","internalType":"uint256"}],"outputs":[],"stateMutability":"nonpayable"},{"type":"function","name":"setToUsed","inputs":[{"name":"tokenId","type":"uint256","internalType":"uint256"}],"outputs":[],"stateMutability":"nonpayable"},{"type":"function","name":"supportsInterface","inputs":[{"name":"interfaceId","type":"bytes4","internalType":"bytes4"}],"outputs":[{"name":"","type":"bool","internalType":"bool"}],"stateMutability":"view"},{"type":"function","name":"symbol","inputs":[],"outputs":[{"name":"","type":"string","internalType":"string"}],"stateMutability":"view"},{"type":"function","name":"tokenURI","inputs":[{"name":"tokenId","type":"uint256","internalType":"uint256"}],"outputs":[{"name":"","type":"string","internalType":"string"}],"stateMutability":"view"},{"type":"function","name":"totalRoomDays","inputs":[],"outputs":[{"name":"","type":"uint256","internalType":"uint256"}],"stateMutability":"view"},{"type":"function","name":"transferFrom","inputs":[{"name":"from","type":"address","internalType":"address"},{"name":"to","type":"address","internalType":"address"},{"name":"tokenId","type":"uint256","internalType":"uint256"}],"outputs":[],"stateMutability":"nonpayable"},{"type":"function","name":"transferOwnership","inputs":[{"name":"newOwner","type":"address","internalType":"address"}],"outputs":[],"stateMutability":"nonpayable"},{"type":"function","name":"transferRoomDay","inputs":[{"name":"tokenId","type":"uint256","internalType":"uint256"}],"outputs":[],"stateMutability":"payable"},{"type":"function","name":"transferRoomDayMultiple","inputs":[{"name":"tokenIds","type":"uint256[]","internalType":"uint256[]"}],"outputs":[],"stateMutability":"payable"},{"type":"function","name":"withdrawFunds","inputs":[],"outputs":[],"stateMutability":"nonpayable"},{"type":"event","name":"Approval","inputs":[{"name":"owner","type":"address","indexed":true,"internalType":"address"},{"name":"approved","type":"address","indexed":true,"internalType":"address"},{"name":"tokenId","type":"uint256","indexed":true,"internalType":"uint256"}],"anonymous":false},{"type":"event","name":"ApprovalForAll","inputs":[{"name":"owner","type":"address","indexed":true,"internalType":"address"},{"name":"operator","type":"address","indexed":true,"internalType":"address"},{"name":"approved","type":"bool","indexed":false,"internalType":"bool"}],"anonymous":false},{"type":"event","name":"OwnershipTransferred","inputs":[{"name":"previousOwner","type":"address","indexed":true,"internalType":"address"},{"name":"newOwner","type":"address","indexed":true,"internalType":"address"}],"anonymous":false},{"type":"event","name":"Transfer","inputs":[{"name":"from","type":"address","indexed":true,"internalType":"address"},{"name":"to","type":"address","indexed":true,"internalType":"address"},{"name":"tokenId","type":"uint256","indexed":true,"internalType":"uint256"}],"anonymous":false},{"type":"error","name":"ERC721IncorrectOwner","inputs":[{"name":"sender","type":"address","internalType":"address"},{"name":"tokenId","type":"uint256","internalType":"uint256"},{"name":"owner","type":"address","internalType":"address"}]},{"type":"error","name":"ERC721InsufficientApproval","inputs":[{"name":"operator","type":"address","internalType":"address"},{"name":"tokenId","type":"uint256","internalType":"uint256"}]},{"type":"error","name":"ERC721InvalidApprover","inputs":[{"name":"approver","type":"address","internalType":"address"}]},{"type":"error","name":"ERC721InvalidOperator","inputs":[{"name":"operator","type":"address","internalType":"address"}]},{"type":"error","name":"ERC721InvalidOwner","inputs":[{"name":"owner","type":"address","internalType":"address"}]},{"type":"error","name":"ERC721InvalidReceiver","inputs":[{"name":"receiver","type":"address","internalType":"address"}]},{"type":"error","name":"ERC721InvalidSender","inputs":[{"name":"sender","type":"address","internalType":"address"}]},{"type":"error","name":"ERC721NonexistentToken","inputs":[{"name":"tokenId","type":"uint256","internalType":"uint256"}]},{"type":"error","name":"OwnableInvalidOwner","inputs":[{"name":"owner","type":"address","internalType":"address"}]},{"type":"error","name":"OwnableUnauthorizedAccount","inputs":[{"name":"account","type":"address","internalType":"address"}]}],"bytecode":{"object":"0x608060405234801561001057600080fd5b50336040518060400160405280600a815260200169486f74656c526f6f6d7360b01b8152506040518060400160405280600581526020016448524f4f4d60d81b815250816000908161006291906101a0565b50600161006f82826101a0565b5050506001600160a01b0381166100a057604051631e4fbdf760e01b81526000600482015260240160405180910390fd5b6100a9816100af565b5061025e565b600680546001600160a01b038381166001600160a01b0319831681179093556040519116919082907f8be0079c531659141344cd1fd0a4f28419497f9722a3daafe3b4186f6b6457e090600090a35050565b634e487b7160e01b600052604160045260246000fd5b600181811c9082168061012b57607f821691505b60208210810361014b57634e487b7160e01b600052602260045260246000fd5b50919050565b601f82111561019b57806000526020600020601f840160051c810160208510156101785750805b601f840160051c820191505b818110156101985760008155600101610184565b50505b505050565b81516001600160401b038111156101b9576101b9610101565b6101cd816101c78454610117565b84610151565b6020601f82116001811461020157600083156101e95750848201515b600019600385901b1c1916600184901b178455610198565b600084815260208120601f198516915b828110156102315787850151825560209485019460019092019101610211565b508482101561024f5786840151600019600387901b60f8161c191681555b50505050600190811b01905550565b613adc8061026d6000396000f3fe6080604052600436106102045760003560e01c80636352211e11610118578063b88d4fde116100a0578063dbf91f551161006f578063dbf91f55146105ec578063e7b67f031461060c578063e985e9c51461062c578063f2fde38b1461064c578063fc3766451461066c57600080fd5b8063b88d4fde1461055f578063c87b56dd1461057f578063d30dba981461059f578063d37d721b146105cc57600080fd5b80638da5cb5b116100e75780638da5cb5b146104d757806395d89b41146104f55780639d3f4c281461050a578063a22cb4651461051f578063b4788d6f1461053f57600080fd5b80636352211e1461046057806370a0823114610480578063715018a6146104a057806384e10a90146104b557600080fd5b806324600fc31161019b5780633282e1a41161016a5780633282e1a4146103cd57806342842e0e146103e0578063488bab48146104005780634bb17aa914610420578063509fb0cd1461043357600080fd5b806324600fc3146103515780632d10fa28146103665780632d9cb9d51461038957806330a32f66146103b757600080fd5b8063095ea7b3116101d7578063095ea7b3146102ba578063194adba2146102da57806321e0528b1461030f57806323b872dd1461033157600080fd5b806301ffc9a7146102095780630396cde61461023e57806306fdde0314610260578063081812fc14610282575b600080fd5b34801561021557600080fd5b506102296102243660046131dc565b61067f565b60405190151581526020015b60405180910390f35b34801561024a57600080fd5b5061025e61025936600461320d565b6106d1565b005b34801561026c57600080fd5b50610275610ba1565b60405161023591906132a4565b34801561028e57600080fd5b506102a261029d3660046132b7565b610c33565b6040516001600160a01b039091168152602001610235565b3480156102c657600080fd5b5061025e6102d53660046132e7565b610c5c565b3480156102e657600080fd5b506102fa6102f53660046132b7565b610c6b565b60408051928352602083019190915201610235565b34801561031b57600080fd5b50610324610d89565b6040516102359190613311565b34801561033d57600080fd5b5061025e61034c366004613354565b610ee1565b34801561035d57600080fd5b5061025e610f6c565b34801561037257600080fd5b5061037b61101b565b60405161023592919061350c565b34801561039557600080fd5b506103a96103a436600461353a565b611240565b604051908152602001610235565b3480156103c357600080fd5b506103a960075481565b61025e6103db3660046132b7565b61127b565b3480156103ec57600080fd5b5061025e6103fb366004613354565b611551565b34801561040c57600080fd5b5061025e61041b36600461355c565b611571565b61025e61042e366004613588565b611683565b34801561043f57600080fd5b5061045361044e36600461353a565b6116b7565b60405161023591906135ff565b34801561046c57600080fd5b506102a261047b3660046132b7565b611872565b34801561048c57600080fd5b506103a961049b366004613612565b61187d565b3480156104ac57600080fd5b5061025e6118c5565b3480156104c157600080fd5b506104ca6118d9565b604051610235919061362d565b3480156104e357600080fd5b506006546001600160a01b03166102a2565b34801561050157600080fd5b506102756119d2565b34801561051657600080fd5b506103a9606481565b34801561052b57600080fd5b5061025e61053a366004613640565b6119e1565b34801561054b57600080fd5b5061045361055a36600461353a565b6119ec565b34801561056b57600080fd5b5061025e61057a366004613692565b611be0565b34801561058b57600080fd5b5061027561059a3660046132b7565b611bf8565b3480156105ab57600080fd5b506105bf6105ba36600461353a565b611c6d565b6040516102359190613776565b3480156105d857600080fd5b5061025e6105e73660046132b7565b611c9b565b3480156105f857600080fd5b5061025e610607366004613784565b611ee9565b34801561061857600080fd5b506104536106273660046137d7565b611f22565b34801561063857600080fd5b5061022961064736600461383c565b612338565b34801561065857600080fd5b5061025e610667366004613612565b612366565b61025e61067a366004613588565b6123a4565b60006001600160e01b031982166380ac58cd60e01b14806106b057506001600160e01b03198216635b5e139f60e01b145b806106cb57506301ffc9a760e01b6001600160e01b03198316145b92915050565b6106d961242a565b6000851180156106ea575060648511155b6107315760405162461bcd60e51b815260206004820152601360248201527224b73b30b634b2103937b7b690373ab6b132b960691b60448201526064015b60405180910390fd5b828411156107765760405162461bcd60e51b8152602060048201526012602482015271496e76616c696420646174652072616e676560701b6044820152606401610728565b428410156107bf5760405162461bcd60e51b815260206004820152601660248201527543616e6e6f7420626f6f6b207061737420646174657360501b6044820152606401610728565b835b838111610b995760006107d48783612457565b6000888152600b6020908152604080832086845290915290205490915060ff161561084b5760405162461bcd60e51b815260206004820152602160248201527f526f6f6d20616c726561647920626f6f6b656420666f722074686973206461746044820152606560f81b6064820152608401610728565b6007805490600061085b83613885565b9190505550600080600061086e856124ba565b92509250925060006040518061014001604052808c81526020018781526020018581526020018481526020018381526020018960038111156108b2576108b2613391565b8152602081018990526040016000815260208082018890523360409283015260098054600181810183556000929092528451600a9091027f6e1540171b6c0c960b71a7020d9f60077f6af931a8bbf590da0223dacf75c7af8101918255928501517f6e1540171b6c0c960b71a7020d9f60077f6af931a8bbf590da0223dacf75c7b0840155928401517f6e1540171b6c0c960b71a7020d9f60077f6af931a8bbf590da0223dacf75c7b183015560608401517f6e1540171b6c0c960b71a7020d9f60077f6af931a8bbf590da0223dacf75c7b283015560808401517f6e1540171b6c0c960b71a7020d9f60077f6af931a8bbf590da0223dacf75c7b383015560a08401517f6e1540171b6c0c960b71a7020d9f60077f6af931a8bbf590da0223dacf75c7b490920180549495508594909160ff19909116908360038111156109fc576109fc613391565b021790555060c0820151600682015560e082015160078201805460ff19166001836004811115610a2e57610a2e613391565b0217905550610100820151600882015561012090910151600990910180546001600160a01b0319166001600160a01b03909216919091179055610a758689600060016124e0565b80600a6000878152602001908152602001600020600082015181600001556020820151816001015560408201518160020155606082015181600301556080820151816004015560a08201518160050160006101000a81548160ff02191690836003811115610ae557610ae5613391565b021790555060c0820151600682015560e082015160078201805460ff19166001836004811115610b1757610b17613391565b0217905550610100820151600882015561012090910151600990910180546001600160a01b0319166001600160a01b0390921691909117905560008b8152600b602090815260408083208984529091529020805460ff19166001179055610b7e3386612502565b50505050506201518081610b92919061389e565b90506107c1565b505050505050565b606060008054610bb0906138b1565b80601f0160208091040260200160405190810160405280929190818152602001828054610bdc906138b1565b8015610c295780601f10610bfe57610100808354040283529160200191610c29565b820191906000526020600020905b815481529060010190602001808311610c0c57829003601f168201915b5050505050905090565b6000610c3e82612567565b506000828152600460205260409020546001600160a01b03166106cb565b610c678282336125a0565b5050565b6000806000600a60008581526020019081526020016000206040518061014001604052908160008201548152602001600182015481526020016002820154815260200160038201548152602001600482015481526020016005820160009054906101000a900460ff166003811115610ce557610ce5613391565b6003811115610cf657610cf6613391565b815260068201546020820152600782015460409091019060ff166004811115610d2157610d21613391565b6004811115610d3257610d32613391565b8152600882015460208201526009909101546001600160a01b03166040909101528051909150600003610d775760405162461bcd60e51b8152600401610728906138eb565b80516020909101519094909350915050565b60606000805b600954811015610dee57336001600160a01b031660098281548110610db657610db6613917565b600091825260209091206009600a9092020101546001600160a01b031603610de65781610de281613885565b9250505b600101610d8f565b5060008167ffffffffffffffff811115610e0a57610e0a61367c565b604051908082528060200260200182016040528015610e33578160200160208202803683370190505b50905060005b600954811015610eda57336001600160a01b031660098281548110610e6057610e60613917565b600091825260209091206009600a9092020101546001600160a01b031603610ed25760098181548110610e9557610e95613917565b90600052602060002090600a020160080154828481518110610eb957610eb9613917565b602090810291909101015282610ece81613885565b9350505b600101610e39565b5092915050565b6001600160a01b038216610f0b57604051633250574960e11b815260006004820152602401610728565b6000610f188383336125ad565b9050836001600160a01b0316816001600160a01b031614610f66576040516364283d7b60e01b81526001600160a01b0380861660048301526024820184905282166044820152606401610728565b50505050565b610f7461242a565b476000610f896006546001600160a01b031690565b6001600160a01b03168260405160006040518083038185875af1925050503d8060008114610fd3576040519150601f19603f3d011682016040523d82523d6000602084013e610fd8565b606091505b5050905080610c675760405162461bcd60e51b815260206004820152600f60248201526e151c985b9cd9995c8819985a5b1959608a1b6044820152606401610728565b6060806009600881805480602002602001604051908101604052809291908181526020016000905b8282101561113f57838290600052602060002090600a02016040518061014001604052908160008201548152602001600182015481526020016002820154815260200160038201548152602001600482015481526020016005820160009054906101000a900460ff1660038111156110bd576110bd613391565b60038111156110ce576110ce613391565b815260068201546020820152600782015460409091019060ff1660048111156110f9576110f9613391565b600481111561110a5761110a613391565b815260088201546020808301919091526009909201546001600160a01b03166040909101529082526001929092019101611043565b50505050915080805480602002602001604051908101604052809291908181526020016000905b8282101561123257838290600052602060002090600502016040518060c00160405290816000820154815260200160018201548152602001600282015481526020016003820160009054906101000a900460ff1660048111156111cb576111cb613391565b60048111156111dc576111dc613391565b81526020016003820160019054906101000a900460ff16600381111561120457611204613391565b600381111561121557611215613391565b815260200160048201548152505081526020019060010190611166565b505050509050915091509091565b600061124c8383612457565b6000818152600a6020526040812054919250036106cb5760405162461bcd60e51b8152600401610728906138eb565b6000818152600a6020908152604080832081516101408101835281548152600182015493810193909352600281015491830191909152600380820154606084015260048201546080840152600582015460a084019160ff909116908111156112e5576112e5613391565b60038111156112f6576112f6613391565b815260068201546020820152600782015460409091019060ff16600481111561132157611321613391565b600481111561133257611332613391565b8152600882015460208201526009909101546001600160a01b0316604090910152905060008160e00151600481111561136d5761136d613391565b146113c55760405162461bcd60e51b815260206004820152602260248201527f526f6f6d206973206e6f7420617661696c61626c6520666f72207472616e736660448201526132b960f11b6064820152608401610728565b42816020015110156114235760405162461bcd60e51b815260206004820152602160248201527f43616e6e6f74207472616e73666572206578706972656420726f6f6d206461796044820152607360f81b6064820152608401610728565b60005b6009548110156114f857826009828154811061144457611444613917565b90600052602060002090600a020160080154036114f05760016009828154811061147057611470613917565b600091825260209091206007600a9092020101805460ff1916600183600481111561149d5761149d613391565b021790555033600982815481106114b6576114b6613917565b90600052602060002090600a020160090160006101000a8154816001600160a01b0302191690836001600160a01b031602179055506114f8565b600101611426565b50600160e082015233610120820152602081015160a0820151611520919060006000196124e0565b61153581602001518260a001516001806124e0565b610c6761154a6006546001600160a01b031690565b33846126a6565b61156c83838360405180602001604052806000815250611be0565b505050565b61157961242a565b60008311801561158a575060648311155b6115cc5760405162461bcd60e51b815260206004820152601360248201527224b73b30b634b2103937b7b690373ab6b132b960691b6044820152606401610728565b6000821161160b5760405162461bcd60e51b815260206004820152600c60248201526b496e76616c6964206461746560a01b6044820152606401610728565b6000811161165b5760405162461bcd60e51b815260206004820152601760248201527f496e76616c696420707269636520706572206e696768740000000000000000006044820152606401610728565b80600a600061166a8686612457565b8152602081019190915260400160002060060155505050565b60005b8181101561156c576116af8383838181106116a3576116a3613917565b9050602002013561127b565b600101611686565b606060006116c5838561389e565b6009549091508111156116d757506009545b60006116e3858361392d565b905060008167ffffffffffffffff8111156117005761170061367c565b60405190808252806020026020018201604052801561173957816020015b611726613151565b81526020019060019003908161171e5790505b50905060005b82811015611868576009611753828961389e565b8154811061176357611763613917565b90600052602060002090600a02016040518061014001604052908160008201548152602001600182015481526020016002820154815260200160038201548152602001600482015481526020016005820160009054906101000a900460ff1660038111156117d3576117d3613391565b60038111156117e4576117e4613391565b815260068201546020820152600782015460409091019060ff16600481111561180f5761180f613391565b600481111561182057611820613391565b8152600882015460208201526009909101546001600160a01b0316604090910152825183908390811061185557611855613917565b602090810291909101015260010161173f565b5095945050505050565b60006106cb82612567565b60006001600160a01b0382166118a9576040516322718ad960e21b815260006004820152602401610728565b506001600160a01b031660009081526003602052604090205490565b6118cd61242a565b6118d76000612756565b565b60606008805480602002602001604051908101604052809291908181526020016000905b828210156119c957838290600052602060002090600502016040518060c00160405290816000820154815260200160018201548152602001600282015481526020016003820160009054906101000a900460ff16600481111561196257611962613391565b600481111561197357611973613391565b81526020016003820160019054906101000a900460ff16600381111561199b5761199b613391565b60038111156119ac576119ac613391565b8152602001600482015481525050815260200190600101906118fd565b50505050905090565b606060018054610bb0906138b1565b610c673383836127a8565b60095460609060009067ffffffffffffffff811115611a0d57611a0d61367c565b604051908082528060200260200182016040528015611a4657816020015b611a33613151565b815260200190600190039081611a2b5790505b5090506000805b600954811015611bd6578560098281548110611a6b57611a6b613917565b90600052602060002090600a02016001015410158015611aaf57508460098281548110611a9a57611a9a613917565b90600052602060002090600a02016001015411155b15611bce5760098181548110611ac757611ac7613917565b90600052602060002090600a02016040518061014001604052908160008201548152602001600182015481526020016002820154815260200160038201548152602001600482015481526020016005820160009054906101000a900460ff166003811115611b3757611b37613391565b6003811115611b4857611b48613391565b815260068201546020820152600782015460409091019060ff166004811115611b7357611b73613391565b6004811115611b8457611b84613391565b8152600882015460208201526009909101546001600160a01b03166040909101528383611bb081613885565b945081518110611bc257611bc2613917565b60200260200101819052505b600101611a4d565b5090949350505050565b611beb848484610ee1565b610f663385858585612847565b6060611c0382612567565b506000611c1b60408051602081019091526000815290565b90506000815111611c3b5760405180602001604052806000815250611c66565b80611c4584612970565b604051602001611c56929190613940565b6040516020818303038152906040525b9392505050565b6000600a6000611c7d8585612457565b815260208101919091526040016000206007015460ff169392505050565b6000818152600a60205260408120549003611cc85760405162461bcd60e51b8152600401610728906138eb565b6000818152600a6020908152604080832081516101408101835281548152600182015493810193909352600281015491830191909152600380820154606084015260048201546080840152600582015460a084019160ff90911690811115611d3257611d32613391565b6003811115611d4357611d43613391565b815260068201546020820152600782015460409091019060ff166004811115611d6e57611d6e613391565b6004811115611d7f57611d7f613391565b815260088201546020808301919091526009909201546001600160a01b03166040918201526000858152600a9092528120600701805460ff191660031790559091505b600954811015611e9f578260098281548110611de057611de0613917565b90600052602060002090600a02016008015403611e9757600360098281548110611e0c57611e0c613917565b600091825260209091206007600a9092020101805460ff19166001836004811115611e3957611e39613391565b02179055506006546001600160a01b031660098281548110611e5d57611e5d613917565b90600052602060002090600a020160090160006101000a8154816001600160a01b0302191690836001600160a01b03160217905550611e9f565b600101611dc2565b50611eb781602001518260a0015160016000196124e0565b611ecd81602001518260a00151600360016124e0565b610c6733611ee36006546001600160a01b031690565b846126a6565b611ef161242a565b855b858111611f1957611f0781868686866106d1565b80611f1181613885565b915050611ef3565b50505050505050565b60095460609060009067ffffffffffffffff811115611f4357611f4361367c565b604051908082528060200260200182016040528015611f7c57816020015b611f69613151565b815260200190600190039081611f615790505b5090506000805b600954811015612288576001600160a01b038a161580611fda5750896001600160a01b031660098281548110611fbb57611fbb613917565b600091825260209091206009600a9092020101546001600160a01b0316145b801561204b5750886004811115611ff357611ff3613391565b6009828154811061200657612006613917565b600091825260209091206007600a90920201015460ff16600481111561202e5761202e613391565b148061204b5750600489600481111561204957612049613391565b145b80156120bc575087600381111561206457612064613391565b6009828154811061207757612077613917565b600091825260209091206005600a90920201015460ff16600381111561209f5761209f613391565b14806120bc575060038860038111156120ba576120ba613391565b145b80156120f357508615806120f3575086600982815481106120df576120df613917565b90600052602060002090600a020160020154145b801561212a575085158061212a5750856009828154811061211657612116613917565b90600052602060002090600a020160030154145b801561216157508415806121615750846009828154811061214d5761214d613917565b90600052602060002090600a020160040154145b15612280576009818154811061217957612179613917565b90600052602060002090600a02016040518061014001604052908160008201548152602001600182015481526020016002820154815260200160038201548152602001600482015481526020016005820160009054906101000a900460ff1660038111156121e9576121e9613391565b60038111156121fa576121fa613391565b815260068201546020820152600782015460409091019060ff16600481111561222557612225613391565b600481111561223657612236613391565b8152600882015460208201526009909101546001600160a01b0316604090910152838361226281613885565b94508151811061227457612274613917565b60200260200101819052505b600101611f83565b5060008167ffffffffffffffff8111156122a4576122a461367c565b6040519080825280602002602001820160405280156122dd57816020015b6122ca613151565b8152602001906001900390816122c25790505b50905060005b8281101561232a578381815181106122fd576122fd613917565b602002602001015182828151811061231757612317613917565b60209081029190910101526001016122e3565b509998505050505050505050565b6001600160a01b03918216600090815260056020908152604080832093909416825291909152205460ff1690565b61236e61242a565b6001600160a01b03811661239857604051631e4fbdf760e01b815260006004820152602401610728565b6123a181612756565b50565b60005b8181101561156c5730633282e1a48484848181106123c7576123c7613917565b905060200201356040518263ffffffff1660e01b81526004016123ec91815260200190565b600060405180830381600087803b15801561240657600080fd5b505af115801561241a573d6000803e3d6000fd5b5050600190920191506123a79050565b6006546001600160a01b031633146118d75760405163118cdaa760e01b8152336004820152602401610728565b600080600080612466856124ba565b91945092509050858161247a84606461396f565b6124868661271061396f565b612490919061389e565b61249a919061389e565b6124a6906103e861396f565b6124b0919061389e565b9695505050505050565b600080806124d36124ce620151808661399c565b612a03565b9196909550909350915050565b60008060006124ee876124ba565b925092509250611f19838383888a89612b77565b6001600160a01b03821661252c57604051633250574960e11b815260006004820152602401610728565b600061253a838360006125ad565b90506001600160a01b0381161561156c576040516339e3563760e11b815260006004820152602401610728565b6000818152600260205260408120546001600160a01b0316806106cb57604051637e27328960e01b815260048101849052602401610728565b61156c8383836001612ea9565b6000828152600260205260408120546001600160a01b03908116908316156125da576125da818486612faf565b6001600160a01b03811615612618576125f7600085600080612ea9565b6001600160a01b038116600090815260036020526040902080546000190190555b6001600160a01b03851615612647576001600160a01b0385166000908152600360205260409020805460010190555b60008481526002602052604080822080546001600160a01b0319166001600160a01b0389811691821790925591518793918516917fddf252ad1be2c89b69c2b068fc378daa952ba7f163c4a11628f55a4df523b3ef91a4949350505050565b6001600160a01b0382166126d057604051633250574960e11b815260006004820152602401610728565b60006126de838360006125ad565b90506001600160a01b03811661270a57604051637e27328960e01b815260048101839052602401610728565b836001600160a01b0316816001600160a01b031614610f66576040516364283d7b60e01b81526001600160a01b0380861660048301526024820184905282166044820152606401610728565b600680546001600160a01b038381166001600160a01b0319831681179093556040519116919082907f8be0079c531659141344cd1fd0a4f28419497f9722a3daafe3b4186f6b6457e090600090a35050565b6001600160a01b0382166127da57604051630b61174360e31b81526001600160a01b0383166004820152602401610728565b6001600160a01b03838116600081815260056020908152604080832094871680845294825291829020805460ff191686151590811790915591519182527f17307eab39ab6107e8899845ad3d59bd9653f200f220920489ca2b5937696c31910160405180910390a3505050565b6001600160a01b0383163b1561296957604051630a85bd0160e11b81526001600160a01b0384169063150b7a02906128899088908890879087906004016139b0565b6020604051808303816000875af19250505080156128c4575060408051601f3d908101601f191682019092526128c1918101906139e3565b60015b61292d573d8080156128f2576040519150601f19603f3d011682016040523d82523d6000602084013e6128f7565b606091505b50805160000361292557604051633250574960e11b81526001600160a01b0385166004820152602401610728565b805181602001fd5b6001600160e01b03198116630a85bd0160e11b14610b9957604051633250574960e11b81526001600160a01b0385166004820152602401610728565b5050505050565b6060600061297d83613013565b600101905060008167ffffffffffffffff81111561299d5761299d61367c565b6040519080825280601f01601f1916602001820160405280156129c7576020820181803683370190505b5090508181016020015b600019016f181899199a1a9b1b9c1cb0b131b232b360811b600a86061a8153600a85049450846129d157509392505050565b60008080838162253d8c612a1a8362010bd9613a00565b612a249190613a00565b9050600062023ab1612a37836004613a28565b612a419190613a58565b90506004612a528262023ab1613a28565b612a5d906003613a00565b612a679190613a58565b612a719083613a86565b9150600062164b09612a84846001613a00565b612a9090610fa0613a28565b612a9a9190613a58565b90506004612aaa826105b5613a28565b612ab49190613a58565b612abe9084613a86565b612ac990601f613a00565b9250600061098f612adb856050613a28565b612ae59190613a58565b905060006050612af78361098f613a28565b612b019190613a58565b612b0b9086613a86565b9050612b18600b83613a58565b9450612b2585600c613a28565b612b30836002613a00565b612b3a9190613a86565b91508483612b49603187613a86565b612b54906064613a28565b612b5e9190613a00565b612b689190613a00565b9a919950975095505050505050565b6000805b600854811015612d2c578760088281548110612b9957612b99613917565b906000526020600020906005020160000154148015612bdb57508660088281548110612bc757612bc7613917565b906000526020600020906005020160010154145b8015612c0a57508560088281548110612bf657612bf6613917565b906000526020600020906005020160020154145b8015612c605750846004811115612c2357612c23613391565b60088281548110612c3657612c36613917565b600091825260209091206003600590920201015460ff166004811115612c5e57612c5e613391565b145b8015612cbe5750836003811115612c7957612c79613391565b60088281548110612c8c57612c8c613917565b906000526020600020906005020160030160019054906101000a900460ff166003811115612cbc57612cbc613391565b145b15612d24578260088281548110612cd757612cd7613917565b906000526020600020906005020160040154612cf39190613a00565b60088281548110612d0657612d06613917565b90600052602060002090600502016004018190555060019150612d2c565b600101612b7b565b5080611f195760006040518060c00160405280898152602001888152602001878152602001866004811115612d6357612d63613391565b8152602001856003811115612d7a57612d7a613391565b815260016020918201819052600880548083018255600091909152835160059091027ff3f7a9fe364faab93b216da50a3214154f22a0a2b415b23a84c8169e8b636ee38101918255928401517ff3f7a9fe364faab93b216da50a3214154f22a0a2b415b23a84c8169e8b636ee484015560408401517ff3f7a9fe364faab93b216da50a3214154f22a0a2b415b23a84c8169e8b636ee584015560608401517ff3f7a9fe364faab93b216da50a3214154f22a0a2b415b23a84c8169e8b636ee690930180549495508594919392909160ff191690836004811115612e5f57612e5f613391565b021790555060808201518160030160016101000a81548160ff02191690836003811115612e8e57612e8e613391565b021790555060a0820151816004015550505050505050505050565b8080612ebd57506001600160a01b03821615155b15612f7f576000612ecd84612567565b90506001600160a01b03831615801590612ef95750826001600160a01b0316816001600160a01b031614155b8015612f0c5750612f0a8184612338565b155b15612f355760405163a9fbf51f60e01b81526001600160a01b0384166004820152602401610728565b8115612f7d5783856001600160a01b0316826001600160a01b03167f8c5be1e5ebec7d5bd14f71427d1e84f3dd0314c0f7b2291e5b200ac8c7c3b92560405160405180910390a45b505b5050600090815260046020526040902080546001600160a01b0319166001600160a01b0392909216919091179055565b612fba8383836130eb565b61156c576001600160a01b038316612fe857604051637e27328960e01b815260048101829052602401610728565b60405163177e802f60e01b81526001600160a01b038316600482015260248101829052604401610728565b60008072184f03e93ff9f4daa797ed6e38ed64bf6a1f0160401b83106130525772184f03e93ff9f4daa797ed6e38ed64bf6a1f0160401b830492506040015b6d04ee2d6d415b85acef8100000000831061307e576d04ee2d6d415b85acef8100000000830492506020015b662386f26fc10000831061309c57662386f26fc10000830492506010015b6305f5e10083106130b4576305f5e100830492506008015b61271083106130c857612710830492506004015b606483106130da576064830492506002015b600a83106106cb5760010192915050565b60006001600160a01b038316158015906131495750826001600160a01b0316846001600160a01b0316148061312557506131258484612338565b8061314957506000828152600460205260409020546001600160a01b038481169116145b949350505050565b60405180610140016040528060008152602001600081526020016000815260200160008152602001600081526020016000600381111561319357613193613391565b815260200160008152602001600060048111156131b2576131b2613391565b815260006020820181905260409091015290565b6001600160e01b0319811681146123a157600080fd5b6000602082840312156131ee57600080fd5b8135611c66816131c6565b80356004811061320857600080fd5b919050565b600080600080600060a0868803121561322557600080fd5b853594506020860135935060408601359250613243606087016131f9565b949793965091946080013592915050565b60005b8381101561326f578181015183820152602001613257565b50506000910152565b60008151808452613290816020860160208601613254565b601f01601f19169290920160200192915050565b602081526000611c666020830184613278565b6000602082840312156132c957600080fd5b5035919050565b80356001600160a01b038116811461320857600080fd5b600080604083850312156132fa57600080fd5b613303836132d0565b946020939093013593505050565b602080825282518282018190526000918401906040840190835b8181101561334957835183526020938401939092019160010161332b565b509095945050505050565b60008060006060848603121561336957600080fd5b613372846132d0565b9250613380602085016132d0565b929592945050506040919091013590565b634e487b7160e01b600052602160045260246000fd5b600481106133b7576133b7613391565b9052565b600581106133b7576133b7613391565b600081518084526020840193506020830160005b82811015613487578151805187526020810151602088015260408101516040880152606081015160608801526080810151608088015260a081015161342760a08901826133a7565b5060c081015160c088015260e081015161344460e08901826133bb565b50610100810151610100880152610120810151905061346f6101208801826001600160a01b03169052565b506101409590950194602091909101906001016133df565b5093949350505050565b600081518084526020840193506020830160005b8281101561348757815180518752602081015160208801526040810151604088015260608101516134d960608901826133bb565b5060808101516134ec60808901826133a7565b5060a0908101519087015260c090950194602091909101906001016134a5565b60408152600061351f60408301856133cb565b82810360208401526135318185613491565b95945050505050565b6000806040838503121561354d57600080fd5b50508035926020909101359150565b60008060006060848603121561357157600080fd5b505081359360208301359350604090920135919050565b6000806020838503121561359b57600080fd5b823567ffffffffffffffff8111156135b257600080fd5b8301601f810185136135c357600080fd5b803567ffffffffffffffff8111156135da57600080fd5b8560208260051b84010111156135ef57600080fd5b6020919091019590945092505050565b602081526000611c6660208301846133cb565b60006020828403121561362457600080fd5b611c66826132d0565b602081526000611c666020830184613491565b6000806040838503121561365357600080fd5b61365c836132d0565b91506020830135801515811461367157600080fd5b809150509250929050565b634e487b7160e01b600052604160045260246000fd5b600080600080608085870312156136a857600080fd5b6136b1856132d0565b93506136bf602086016132d0565b925060408501359150606085013567ffffffffffffffff8111156136e257600080fd5b8501601f810187136136f357600080fd5b803567ffffffffffffffff81111561370d5761370d61367c565b604051601f8201601f19908116603f0116810167ffffffffffffffff8111828210171561373c5761373c61367c565b60405281815282820160200189101561375457600080fd5b8160208401602083013760006020838301015280935050505092959194509250565b602081016106cb82846133bb565b60008060008060008060c0878903121561379d57600080fd5b863595506020870135945060408701359350606087013592506137c2608088016131f9565b9598949750929591949360a090920135925050565b60008060008060008060c087890312156137f057600080fd5b6137f9876132d0565b955060208701356005811061380d57600080fd5b945061381b604088016131f9565b959894975094956060810135955060808101359460a0909101359350915050565b6000806040838503121561384f57600080fd5b613858836132d0565b9150613866602084016132d0565b90509250929050565b634e487b7160e01b600052601160045260246000fd5b6000600182016138975761389761386f565b5060010190565b808201808211156106cb576106cb61386f565b600181811c908216806138c557607f821691505b6020821081036138e557634e487b7160e01b600052602260045260246000fd5b50919050565b602080825260129082015271149bdbdb4819185e481b9bdd08199bdd5b9960721b604082015260600190565b634e487b7160e01b600052603260045260246000fd5b818103818111156106cb576106cb61386f565b60008351613952818460208801613254565b835190830190613966818360208801613254565b01949350505050565b80820281158282048414176106cb576106cb61386f565b634e487b7160e01b600052601260045260246000fd5b6000826139ab576139ab613986565b500490565b6001600160a01b03858116825284166020820152604081018390526080606082018190526000906124b090830184613278565b6000602082840312156139f557600080fd5b8151611c66816131c6565b8082018281126000831280158216821582161715613a2057613a2061386f565b505092915050565b80820260008212600160ff1b84141615613a4457613a4461386f565b81810583148215176106cb576106cb61386f565b600082613a6757613a67613986565b600160ff1b821460001984141615613a8157613a8161386f565b500590565b8181036000831280158383131683831282161715610eda57610eda61386f56fea2646970667358221220b8159a51c1fe0ac427f273242ec607cb47061b411b8fd97388d6cd17aca9021364736f6c634300081a0033","linkReferences":{}},"methodIdentifiers":{"TOTAL_ROOMS()":"9d3f4c28","approve(address,uint256)":"095ea7b3","balanceOf(address)":"70a08231","getAllData()":"2d10fa28","getAllRoomDays(uint256,uint256)":"509fb0cd","getApproved(uint256)":"081812fc","getRoomDay(uint256)":"194adba2","getRoomDayFilter(address,uint8,uint8,uint256,uint256,uint256)":"e7b67f03","getRoomDayToken(uint256,uint256)":"2d9cb9d5","getRoomsBetweenDates(uint256,uint256)":"b4788d6f","getTotals()":"84e10a90","isApprovedForAll(address,address)":"e985e9c5","isRoomBooked(uint256,uint256)":"d30dba98","mintMultipleRoomDays(uint256,uint256,uint256,uint256,uint8,uint256)":"dbf91f55","mintRoomDays(uint256,uint256,uint256,uint8,uint256)":"0396cde6","mintRoomDaysMultiple(uint256[])":"fc376645","misTokens()":"21e0528b","name()":"06fdde03","owner()":"8da5cb5b","ownerOf(uint256)":"6352211e","renounceOwnership()":"715018a6","safeTransferFrom(address,address,uint256)":"42842e0e","safeTransferFrom(address,address,uint256,bytes)":"b88d4fde","setApprovalForAll(address,bool)":"a22cb465","setPricePerNight(uint256,uint256,uint256)":"488bab48","setToUsed(uint256)":"d37d721b","supportsInterface(bytes4)":"01ffc9a7","symbol()":"95d89b41","tokenURI(uint256)":"c87b56dd","totalRoomDays()":"30a32f66","transferFrom(address,address,uint256)":"23b872dd","transferOwnership(address)":"f2fde38b","transferRoomDay(uint256)":"3282e1a4","transferRoomDayMultiple(uint256[])":"4bb17aa9","withdrawFunds()":"24600fc3"},"id":15}