{"abi":[{"type":"constructor","inputs":[],"stateMutability":"nonpayable"},{"type":"function","name":"TOTAL_ROOMS","inputs":[],"outputs":[{"name":"","type":"uint256","internalType":"uint256"}],"stateMutability":"view"},{"type":"function","name":"approve","inputs":[{"name":"to","type":"address","internalType":"address"},{"name":"tokenId","type":"uint256","internalType":"uint256"}],"outputs":[],"stateMutability":"nonpayable"},{"type":"function","name":"balanceOf","inputs":[{"name":"owner","type":"address","internalType":"address"}],"outputs":[{"name":"","type":"uint256","internalType":"uint256"}],"stateMutability":"view"},{"type":"function","name":"getAllRoomDays","inputs":[{"name":"offset","type":"uint256","internalType":"uint256"},{"name":"limit","type":"uint256","internalType":"uint256"}],"outputs":[{"name":"","type":"tuple[]","internalType":"struct HotelRooms.RoomDay[]","components":[{"name":"roomId","type":"uint256","internalType":"uint256"},{"name":"date","type":"uint256","internalType":"uint256"},{"name":"year","type":"uint256","internalType":"uint256"},{"name":"month","type":"uint256","internalType":"uint256"},{"name":"day","type":"uint256","internalType":"uint256"},{"name":"roomType","type":"uint8","internalType":"enum HotelRooms.RoomType"},{"name":"pricePerNight","type":"uint256","internalType":"uint256"},{"name":"status","type":"uint8","internalType":"enum HotelRooms.RoomStatus"},{"name":"tokenId","type":"uint256","internalType":"uint256"},{"name":"owner","type":"address","internalType":"address"}]}],"stateMutability":"view"},{"type":"function","name":"getApproved","inputs":[{"name":"tokenId","type":"uint256","internalType":"uint256"}],"outputs":[{"name":"","type":"address","internalType":"address"}],"stateMutability":"view"},{"type":"function","name":"getRoomDay","inputs":[{"name":"tokenId","type":"uint256","internalType":"uint256"}],"outputs":[{"name":"roomId","type":"uint256","internalType":"uint256"},{"name":"date","type":"uint256","internalType":"uint256"}],"stateMutability":"view"},{"type":"function","name":"getRoomDayFilter","inputs":[{"name":"owner","type":"address","internalType":"address"},{"name":"status","type":"uint8","internalType":"enum HotelRooms.RoomStatus"},{"name":"roomType","type":"uint8","internalType":"enum HotelRooms.RoomType"},{"name":"year","type":"uint256","internalType":"uint256"},{"name":"month","type":"uint256","internalType":"uint256"},{"name":"day","type":"uint256","internalType":"uint256"}],"outputs":[{"name":"","type":"tuple[]","internalType":"struct HotelRooms.RoomDay[]","components":[{"name":"roomId","type":"uint256","internalType":"uint256"},{"name":"date","type":"uint256","internalType":"uint256"},{"name":"year","type":"uint256","internalType":"uint256"},{"name":"month","type":"uint256","internalType":"uint256"},{"name":"day","type":"uint256","internalType":"uint256"},{"name":"roomType","type":"uint8","internalType":"enum HotelRooms.RoomType"},{"name":"pricePerNight","type":"uint256","internalType":"uint256"},{"name":"status","type":"uint8","internalType":"enum HotelRooms.RoomStatus"},{"name":"tokenId","type":"uint256","internalType":"uint256"},{"name":"owner","type":"address","internalType":"address"}]}],"stateMutability":"view"},{"type":"function","name":"getRoomDayToken","inputs":[{"name":"roomId","type":"uint256","internalType":"uint256"},{"name":"date","type":"uint256","internalType":"uint256"}],"outputs":[{"name":"tokenId","type":"uint256","internalType":"uint256"}],"stateMutability":"view"},{"type":"function","name":"getTotals","inputs":[],"outputs":[{"name":"","type":"tuple[]","internalType":"struct HotelRooms.Total[]","components":[{"name":"year","type":"uint256","internalType":"uint256"},{"name":"month","type":"uint256","internalType":"uint256"},{"name":"day","type":"uint256","internalType":"uint256"},{"name":"status","type":"uint8","internalType":"enum HotelRooms.RoomStatus"},{"name":"roomType","type":"uint8","internalType":"enum HotelRooms.RoomType"},{"name":"count","type":"uint256","internalType":"uint256"}]}],"stateMutability":"view"},{"type":"function","name":"isApprovedForAll","inputs":[{"name":"owner","type":"address","internalType":"address"},{"name":"operator","type":"address","internalType":"address"}],"outputs":[{"name":"","type":"bool","internalType":"bool"}],"stateMutability":"view"},{"type":"function","name":"isRoomBooked","inputs":[{"name":"roomId","type":"uint256","internalType":"uint256"},{"name":"date","type":"uint256","internalType":"uint256"}],"outputs":[{"name":"","type":"uint8","internalType":"enum HotelRooms.RoomStatus"}],"stateMutability":"view"},{"type":"function","name":"mintRoomDays","inputs":[{"name":"roomId","type":"uint256","internalType":"uint256"},{"name":"startDate","type":"uint256","internalType":"uint256"},{"name":"endDate","type":"uint256","internalType":"uint256"},{"name":"roomType","type":"uint8","internalType":"enum HotelRooms.RoomType"},{"name":"pricePerNight","type":"uint256","internalType":"uint256"}],"outputs":[],"stateMutability":"nonpayable"},{"type":"function","name":"name","inputs":[],"outputs":[{"name":"","type":"string","internalType":"string"}],"stateMutability":"view"},{"type":"function","name":"owner","inputs":[],"outputs":[{"name":"","type":"address","internalType":"address"}],"stateMutability":"view"},{"type":"function","name":"ownerOf","inputs":[{"name":"tokenId","type":"uint256","internalType":"uint256"}],"outputs":[{"name":"","type":"address","internalType":"address"}],"stateMutability":"view"},{"type":"function","name":"renounceOwnership","inputs":[],"outputs":[],"stateMutability":"nonpayable"},{"type":"function","name":"safeTransferFrom","inputs":[{"name":"from","type":"address","internalType":"address"},{"name":"to","type":"address","internalType":"address"},{"name":"tokenId","type":"uint256","internalType":"uint256"}],"outputs":[],"stateMutability":"nonpayable"},{"type":"function","name":"safeTransferFrom","inputs":[{"name":"from","type":"address","internalType":"address"},{"name":"to","type":"address","internalType":"address"},{"name":"tokenId","type":"uint256","internalType":"uint256"},{"name":"data","type":"bytes","internalType":"bytes"}],"outputs":[],"stateMutability":"nonpayable"},{"type":"function","name":"setApprovalForAll","inputs":[{"name":"operator","type":"address","internalType":"address"},{"name":"approved","type":"bool","internalType":"bool"}],"outputs":[],"stateMutability":"nonpayable"},{"type":"function","name":"setPricePerNight","inputs":[{"name":"roomId","type":"uint256","internalType":"uint256"},{"name":"date","type":"uint256","internalType":"uint256"},{"name":"pricePerNight","type":"uint256","internalType":"uint256"}],"outputs":[],"stateMutability":"nonpayable"},{"type":"function","name":"setToUsed","inputs":[{"name":"tokenId","type":"uint256","internalType":"uint256"}],"outputs":[],"stateMutability":"nonpayable"},{"type":"function","name":"supportsInterface","inputs":[{"name":"interfaceId","type":"bytes4","internalType":"bytes4"}],"outputs":[{"name":"","type":"bool","internalType":"bool"}],"stateMutability":"view"},{"type":"function","name":"symbol","inputs":[],"outputs":[{"name":"","type":"string","internalType":"string"}],"stateMutability":"view"},{"type":"function","name":"tokenURI","inputs":[{"name":"tokenId","type":"uint256","internalType":"uint256"}],"outputs":[{"name":"","type":"string","internalType":"string"}],"stateMutability":"view"},{"type":"function","name":"totalRoomDays","inputs":[],"outputs":[{"name":"","type":"uint256","internalType":"uint256"}],"stateMutability":"view"},{"type":"function","name":"transferFrom","inputs":[{"name":"from","type":"address","internalType":"address"},{"name":"to","type":"address","internalType":"address"},{"name":"tokenId","type":"uint256","internalType":"uint256"}],"outputs":[],"stateMutability":"nonpayable"},{"type":"function","name":"transferOwnership","inputs":[{"name":"newOwner","type":"address","internalType":"address"}],"outputs":[],"stateMutability":"nonpayable"},{"type":"function","name":"transferRoomDay","inputs":[{"name":"tokenId","type":"uint256","internalType":"uint256"}],"outputs":[],"stateMutability":"payable"},{"type":"function","name":"withdrawFunds","inputs":[],"outputs":[],"stateMutability":"nonpayable"},{"type":"event","name":"Approval","inputs":[{"name":"owner","type":"address","indexed":true,"internalType":"address"},{"name":"approved","type":"address","indexed":true,"internalType":"address"},{"name":"tokenId","type":"uint256","indexed":true,"internalType":"uint256"}],"anonymous":false},{"type":"event","name":"ApprovalForAll","inputs":[{"name":"owner","type":"address","indexed":true,"internalType":"address"},{"name":"operator","type":"address","indexed":true,"internalType":"address"},{"name":"approved","type":"bool","indexed":false,"internalType":"bool"}],"anonymous":false},{"type":"event","name":"OwnershipTransferred","inputs":[{"name":"previousOwner","type":"address","indexed":true,"internalType":"address"},{"name":"newOwner","type":"address","indexed":true,"internalType":"address"}],"anonymous":false},{"type":"event","name":"Transfer","inputs":[{"name":"from","type":"address","indexed":true,"internalType":"address"},{"name":"to","type":"address","indexed":true,"internalType":"address"},{"name":"tokenId","type":"uint256","indexed":true,"internalType":"uint256"}],"anonymous":false},{"type":"error","name":"ERC721IncorrectOwner","inputs":[{"name":"sender","type":"address","internalType":"address"},{"name":"tokenId","type":"uint256","internalType":"uint256"},{"name":"owner","type":"address","internalType":"address"}]},{"type":"error","name":"ERC721InsufficientApproval","inputs":[{"name":"operator","type":"address","internalType":"address"},{"name":"tokenId","type":"uint256","internalType":"uint256"}]},{"type":"error","name":"ERC721InvalidApprover","inputs":[{"name":"approver","type":"address","internalType":"address"}]},{"type":"error","name":"ERC721InvalidOperator","inputs":[{"name":"operator","type":"address","internalType":"address"}]},{"type":"error","name":"ERC721InvalidOwner","inputs":[{"name":"owner","type":"address","internalType":"address"}]},{"type":"error","name":"ERC721InvalidReceiver","inputs":[{"name":"receiver","type":"address","internalType":"address"}]},{"type":"error","name":"ERC721InvalidSender","inputs":[{"name":"sender","type":"address","internalType":"address"}]},{"type":"error","name":"ERC721NonexistentToken","inputs":[{"name":"tokenId","type":"uint256","internalType":"uint256"}]},{"type":"error","name":"OwnableInvalidOwner","inputs":[{"name":"owner","type":"address","internalType":"address"}]},{"type":"error","name":"OwnableUnauthorizedAccount","inputs":[{"name":"account","type":"address","internalType":"address"}]}],"bytecode":{"object":"0x608060405234801561001057600080fd5b50336040518060400160405280600a815260200169486f74656c526f6f6d7360b01b8152506040518060400160405280600581526020016448524f4f4d60d81b815250816000908161006291906101b2565b50600161006f82826101b2565b5050506001600160a01b0381166100a057604051631e4fbdf760e01b81526000600482015260240160405180910390fd5b6100a9816100c1565b50600780546001600160a01b03191633179055610270565b600680546001600160a01b038381166001600160a01b0319831681179093556040519116919082907f8be0079c531659141344cd1fd0a4f28419497f9722a3daafe3b4186f6b6457e090600090a35050565b634e487b7160e01b600052604160045260246000fd5b600181811c9082168061013d57607f821691505b60208210810361015d57634e487b7160e01b600052602260045260246000fd5b50919050565b601f8211156101ad57806000526020600020601f840160051c8101602085101561018a5750805b601f840160051c820191505b818110156101aa5760008155600101610196565b50505b505050565b81516001600160401b038111156101cb576101cb610113565b6101df816101d98454610129565b84610163565b6020601f82116001811461021357600083156101fb5750848201515b600019600385901b1c1916600184901b1784556101aa565b600084815260208120601f198516915b828110156102435787850151825560209485019460019092019101610223565b50848210156102615786840151600019600387901b60f8161c191681555b50505050600190811b01905550565b6132668061027f6000396000f3fe6080604052600436106101c25760003560e01c80636352211e116100f7578063a22cb46511610095578063d37d721b11610064578063d37d721b14610512578063e7b67f0314610532578063e985e9c514610552578063f2fde38b1461057257600080fd5b8063a22cb46514610485578063b88d4fde146104a5578063c87b56dd146104c5578063d30dba98146104e557600080fd5b806384e10a90116100d157806384e10a901461041b5780638da5cb5b1461043d57806395d89b411461045b5780639d3f4c281461047057600080fd5b80636352211e146103c657806370a08231146103e6578063715018a61461040657600080fd5b806324600fc3116101645780633282e1a41161013e5780633282e1a41461034657806342842e0e14610359578063488bab4814610379578063509fb0cd1461039957600080fd5b806324600fc3146102ed5780632d9cb9d51461030257806330a32f661461033057600080fd5b8063081812fc116101a0578063081812fc14610240578063095ea7b314610278578063194adba21461029857806323b872dd146102cd57600080fd5b806301ffc9a7146101c75780630396cde6146101fc57806306fdde031461021e575b600080fd5b3480156101d357600080fd5b506101e76101e2366004612ab3565b610592565b60405190151581526020015b60405180910390f35b34801561020857600080fd5b5061021c610217366004612ae4565b6105e4565b005b34801561022a57600080fd5b50610233610ade565b6040516101f39190612b7b565b34801561024c57600080fd5b5061026061025b366004612b8e565b610b70565b6040516001600160a01b0390911681526020016101f3565b34801561028457600080fd5b5061021c610293366004612bbe565b610b99565b3480156102a457600080fd5b506102b86102b3366004612b8e565b610ba8565b604080519283526020830191909152016101f3565b3480156102d957600080fd5b5061021c6102e8366004612be8565b610cc6565b3480156102f957600080fd5b5061021c610d51565b34801561030e57600080fd5b5061032261031d366004612c25565b610e00565b6040519081526020016101f3565b34801561033c57600080fd5b5061032260085481565b61021c610354366004612b8e565b610e3b565b34801561036557600080fd5b5061021c610374366004612be8565b6110a3565b34801561038557600080fd5b5061021c610394366004612c47565b6110c3565b3480156103a557600080fd5b506103b96103b4366004612c25565b611238565b6040516101f39190612cad565b3480156103d257600080fd5b506102606103e1366004612b8e565b6113f3565b3480156103f257600080fd5b50610322610401366004612d7a565b6113fe565b34801561041257600080fd5b5061021c611446565b34801561042757600080fd5b5061043061145a565b6040516101f39190612d95565b34801561044957600080fd5b506006546001600160a01b0316610260565b34801561046757600080fd5b50610233611553565b34801561047c57600080fd5b50610322606481565b34801561049157600080fd5b5061021c6104a0366004612e16565b611562565b3480156104b157600080fd5b5061021c6104c0366004612e68565b61156d565b3480156104d157600080fd5b506102336104e0366004612b8e565b611585565b3480156104f157600080fd5b50610505610500366004612c25565b6115fa565b6040516101f39190612f4c565b34801561051e57600080fd5b5061021c61052d366004612b8e565b611628565b34801561053e57600080fd5b506103b961054d366004612f5a565b611871565b34801561055e57600080fd5b506101e761056d366004612fbf565b611c87565b34801561057e57600080fd5b5061021c61058d366004612d7a565b611cb5565b60006001600160e01b031982166380ac58cd60e01b14806105c357506001600160e01b03198216635b5e139f60e01b145b806105de57506301ffc9a760e01b6001600160e01b03198316145b92915050565b6007546001600160a01b031633146106435760405162461bcd60e51b815260206004820152601d60248201527f4f6e6c79206f776e65722063616e206d696e7420726f6f6d206461797300000060448201526064015b60405180910390fd5b600085118015610654575060648511155b6106965760405162461bcd60e51b815260206004820152601360248201527224b73b30b634b2103937b7b690373ab6b132b960691b604482015260640161063a565b828411156106db5760405162461bcd60e51b8152602060048201526012602482015271496e76616c696420646174652072616e676560701b604482015260640161063a565b428410156107245760405162461bcd60e51b815260206004820152601660248201527543616e6e6f7420626f6f6b207061737420646174657360501b604482015260640161063a565b835b838111610ad65760006107398783611cf3565b6000888152600c6020908152604080832086845290915290205490915060ff16156107b05760405162461bcd60e51b815260206004820152602160248201527f526f6f6d20616c726561647920626f6f6b656420666f722074686973206461746044820152606560f81b606482015260840161063a565b600880549060006107c083613008565b919050555060008060006107d385611d56565b92509250925060006040518061014001604052808c815260200187815260200185815260200184815260200183815260200189600381111561081757610817612c73565b81526020810189905260400160008152602080820188905233604092830152600a80546001818101835560008390528551919092027fc65a7bb8d6351c1cf70c95a316cc6a92839c986682d98bc35f958f4883f9d2a88101918255928501517fc65a7bb8d6351c1cf70c95a316cc6a92839c986682d98bc35f958f4883f9d2a9840155928401517fc65a7bb8d6351c1cf70c95a316cc6a92839c986682d98bc35f958f4883f9d2aa83015560608401517fc65a7bb8d6351c1cf70c95a316cc6a92839c986682d98bc35f958f4883f9d2ab83015560808401517fc65a7bb8d6351c1cf70c95a316cc6a92839c986682d98bc35f958f4883f9d2ac83015560a08401517fc65a7bb8d6351c1cf70c95a316cc6a92839c986682d98bc35f958f4883f9d2ad90920180549495508594909160ff199091169083600381111561095f5761095f612c73565b021790555060c0820151600682015560e082015160078201805460ff1916600183600481111561099157610991612c73565b0217905550610100820151600882015561012090910151600990910180546001600160a01b0319166001600160a01b039092169190911790556109d686896000611d7c565b80600b6000878152602001908152602001600020600082015181600001556020820151816001015560408201518160020155606082015181600301556080820151816004015560a08201518160050160006101000a81548160ff02191690836003811115610a4657610a46612c73565b021790555060c0820151600682015560e082015160078201805460ff19166001836004811115610a7857610a78612c73565b0217905550610100820151600882015561012090910151600990910180546001600160a01b0319166001600160a01b03909216919091179055610abb3386611d9d565b50505050506201518081610acf9190613021565b9050610726565b505050505050565b606060008054610aed90613034565b80601f0160208091040260200160405190810160405280929190818152602001828054610b1990613034565b8015610b665780601f10610b3b57610100808354040283529160200191610b66565b820191906000526020600020905b815481529060010190602001808311610b4957829003601f168201915b5050505050905090565b6000610b7b82611db7565b506000828152600460205260409020546001600160a01b03166105de565b610ba4828233611df0565b5050565b6000806000600b60008581526020019081526020016000206040518061014001604052908160008201548152602001600182015481526020016002820154815260200160038201548152602001600482015481526020016005820160009054906101000a900460ff166003811115610c2257610c22612c73565b6003811115610c3357610c33612c73565b815260068201546020820152600782015460409091019060ff166004811115610c5e57610c5e612c73565b6004811115610c6f57610c6f612c73565b8152600882015460208201526009909101546001600160a01b03166040909101528051909150600003610cb45760405162461bcd60e51b815260040161063a9061306e565b80516020909101519094909350915050565b6001600160a01b038216610cf057604051633250574960e11b81526000600482015260240161063a565b6000610cfd838333611dfd565b9050836001600160a01b0316816001600160a01b031614610d4b576040516364283d7b60e01b81526001600160a01b038086166004830152602482018490528216604482015260640161063a565b50505050565b610d59611ef6565b476000610d6e6006546001600160a01b031690565b6001600160a01b03168260405160006040518083038185875af1925050503d8060008114610db8576040519150601f19603f3d011682016040523d82523d6000602084013e610dbd565b606091505b5050905080610ba45760405162461bcd60e51b815260206004820152600f60248201526e151c985b9cd9995c8819985a5b1959608a1b604482015260640161063a565b6000610e0c8383611cf3565b6000818152600b6020526040812054919250036105de5760405162461bcd60e51b815260040161063a9061306e565b6000818152600b6020908152604080832081516101408101835281548152600182015493810193909352600281015491830191909152600380820154606084015260048201546080840152600582015460a084019160ff90911690811115610ea557610ea5612c73565b6003811115610eb657610eb6612c73565b815260068201546020820152600782015460409091019060ff166004811115610ee157610ee1612c73565b6004811115610ef257610ef2612c73565b8152600882015460208201526009909101546001600160a01b0316604090910152905060008160e001516004811115610f2d57610f2d612c73565b14610f855760405162461bcd60e51b815260206004820152602260248201527f526f6f6d206973206e6f7420617661696c61626c6520666f72207472616e736660448201526132b960f11b606482015260840161063a565b8060c00151341015610fe35760405162461bcd60e51b815260206004820152602160248201527f496e73756666696369656e74207061796d656e7420666f72207472616e7366656044820152603960f91b606482015260840161063a565b42816020015110156110415760405162461bcd60e51b815260206004820152602160248201527f43616e6e6f74207472616e73666572206578706972656420726f6f6d206461796044820152607360f81b606482015260840161063a565b6000828152600b60209081526040909120600781018054600160ff199091168117909155600990910180546001600160a01b031916331790559082015160a083015161108c92611d7c565b600754610ba4906001600160a01b03163384611f23565b6110be8383836040518060200160405280600081525061156d565b505050565b6110cb611ef6565b6000838152600c6020908152604080832085845290915290205460ff161561112e5760405162461bcd60e51b8152602060048201526016602482015275149bdbdb481a5cc8185b1c9958591e48189bdbdad95960521b604482015260640161063a565b60008311801561113f575060648311155b6111815760405162461bcd60e51b815260206004820152601360248201527224b73b30b634b2103937b7b690373ab6b132b960691b604482015260640161063a565b600082116111c05760405162461bcd60e51b815260206004820152600c60248201526b496e76616c6964206461746560a01b604482015260640161063a565b600081116112105760405162461bcd60e51b815260206004820152601760248201527f496e76616c696420707269636520706572206e69676874000000000000000000604482015260640161063a565b80600b600061121f8686611cf3565b8152602081019190915260400160002060060155505050565b606060006112468385613021565b600a549091508111156112585750600a545b6000611264858361309a565b905060008167ffffffffffffffff81111561128157611281612e52565b6040519080825280602002602001820160405280156112ba57816020015b6112a7612a28565b81526020019060019003908161129f5790505b50905060005b828110156113e957600a6112d48289613021565b815481106112e4576112e46130ad565b90600052602060002090600a02016040518061014001604052908160008201548152602001600182015481526020016002820154815260200160038201548152602001600482015481526020016005820160009054906101000a900460ff16600381111561135457611354612c73565b600381111561136557611365612c73565b815260068201546020820152600782015460409091019060ff16600481111561139057611390612c73565b60048111156113a1576113a1612c73565b8152600882015460208201526009909101546001600160a01b031660409091015282518390839081106113d6576113d66130ad565b60209081029190910101526001016112c0565b5095945050505050565b60006105de82611db7565b60006001600160a01b03821661142a576040516322718ad960e21b81526000600482015260240161063a565b506001600160a01b031660009081526003602052604090205490565b61144e611ef6565b6114586000611fd3565b565b60606009805480602002602001604051908101604052809291908181526020016000905b8282101561154a57838290600052602060002090600502016040518060c00160405290816000820154815260200160018201548152602001600282015481526020016003820160009054906101000a900460ff1660048111156114e3576114e3612c73565b60048111156114f4576114f4612c73565b81526020016003820160019054906101000a900460ff16600381111561151c5761151c612c73565b600381111561152d5761152d612c73565b81526020016004820154815250508152602001906001019061147e565b50505050905090565b606060018054610aed90613034565b610ba4338383612025565b611578848484610cc6565b610d4b33858585856120c4565b606061159082611db7565b5060006115a860408051602081019091526000815290565b905060008151116115c857604051806020016040528060008152506115f3565b806115d2846121ed565b6040516020016115e39291906130c3565b6040516020818303038152906040525b9392505050565b6000600b600061160a8585611cf3565b815260208101919091526040016000206007015460ff169392505050565b6000818152600b602052604081205490036116555760405162461bcd60e51b815260040161063a9061306e565b6000818152600b6020908152604080832081516101408101835281548152600182015493810193909352600281015491830191909152600380820154606084015260048201546080840152600582015460a084019160ff909116908111156116bf576116bf612c73565b60038111156116d0576116d0612c73565b815260068201546020820152600782015460409091019060ff1660048111156116fb576116fb612c73565b600481111561170c5761170c612c73565b8152600882015460208201526009909101546001600160a01b0316604090910152905060018160e00151600481111561174757611747612c73565b146117895760405162461bcd60e51b8152602060048201526012602482015271149bdbdb481a5cc81b9bdd08189bdbdad95960721b604482015260640161063a565b428160200151106117d25760405162461bcd60e51b8152602060048201526013602482015272149bdbdb481a5cc81b9bdd08195e1c1a5c9959606a1b604482015260640161063a565b6101208101516001600160a01b0316331461183a5760405162461bcd60e51b815260206004820152602260248201527f596f7520617265206e6f7420746865206f776e6572206f66207468697320726f6044820152616f6d60f01b606482015260840161063a565b6000828152600b6020526040902060070180546003919060ff19166001830217905550610ba481602001518260a001516003611d7c565b600a5460609060009067ffffffffffffffff81111561189257611892612e52565b6040519080825280602002602001820160405280156118cb57816020015b6118b8612a28565b8152602001906001900390816118b05790505b5090506000805b600a54811015611bd7576001600160a01b038a1615806119295750896001600160a01b0316600a828154811061190a5761190a6130ad565b600091825260209091206009600a9092020101546001600160a01b0316145b801561199a575088600481111561194257611942612c73565b600a8281548110611955576119556130ad565b600091825260209091206007600a90920201015460ff16600481111561197d5761197d612c73565b148061199a5750600489600481111561199857611998612c73565b145b8015611a0b57508760038111156119b3576119b3612c73565b600a82815481106119c6576119c66130ad565b600091825260209091206005600a90920201015460ff1660038111156119ee576119ee612c73565b1480611a0b57506003886003811115611a0957611a09612c73565b145b8015611a425750861580611a42575086600a8281548110611a2e57611a2e6130ad565b90600052602060002090600a020160020154145b8015611a795750851580611a79575085600a8281548110611a6557611a656130ad565b90600052602060002090600a020160030154145b8015611ab05750841580611ab0575084600a8281548110611a9c57611a9c6130ad565b90600052602060002090600a020160040154145b15611bcf57600a8181548110611ac857611ac86130ad565b90600052602060002090600a02016040518061014001604052908160008201548152602001600182015481526020016002820154815260200160038201548152602001600482015481526020016005820160009054906101000a900460ff166003811115611b3857611b38612c73565b6003811115611b4957611b49612c73565b815260068201546020820152600782015460409091019060ff166004811115611b7457611b74612c73565b6004811115611b8557611b85612c73565b8152600882015460208201526009909101546001600160a01b03166040909101528383611bb181613008565b945081518110611bc357611bc36130ad565b60200260200101819052505b6001016118d2565b5060008167ffffffffffffffff811115611bf357611bf3612e52565b604051908082528060200260200182016040528015611c2c57816020015b611c19612a28565b815260200190600190039081611c115790505b50905060005b82811015611c7957838181518110611c4c57611c4c6130ad565b6020026020010151828281518110611c6657611c666130ad565b6020908102919091010152600101611c32565b509998505050505050505050565b6001600160a01b03918216600090815260056020908152604080832093909416825291909152205460ff1690565b611cbd611ef6565b6001600160a01b038116611ce757604051631e4fbdf760e01b81526000600482015260240161063a565b611cf081611fd3565b50565b600080600080611d0285611d56565b919450925090508581611d168460646130f2565b611d22866127106130f2565b611d2c9190613021565b611d369190613021565b611d42906103e86130f2565b611d4c9190613021565b9695505050505050565b60008080611d6f611d6a620151808661311f565b612280565b9196909550909350915050565b6000806000611d8a86611d56565b925092509250610ad683838387896123f4565b610ba4828260405180602001604052806000815250612703565b6000818152600260205260408120546001600160a01b0316806105de57604051637e27328960e01b81526004810184905260240161063a565b6110be838383600161271b565b6000828152600260205260408120546001600160a01b0390811690831615611e2a57611e2a818486612821565b6001600160a01b03811615611e6857611e4760008560008061271b565b6001600160a01b038116600090815260036020526040902080546000190190555b6001600160a01b03851615611e97576001600160a01b0385166000908152600360205260409020805460010190555b60008481526002602052604080822080546001600160a01b0319166001600160a01b0389811691821790925591518793918516917fddf252ad1be2c89b69c2b068fc378daa952ba7f163c4a11628f55a4df523b3ef91a4949350505050565b6006546001600160a01b031633146114585760405163118cdaa760e01b815233600482015260240161063a565b6001600160a01b038216611f4d57604051633250574960e11b81526000600482015260240161063a565b6000611f5b83836000611dfd565b90506001600160a01b038116611f8757604051637e27328960e01b81526004810183905260240161063a565b836001600160a01b0316816001600160a01b031614610d4b576040516364283d7b60e01b81526001600160a01b038086166004830152602482018490528216604482015260640161063a565b600680546001600160a01b038381166001600160a01b0319831681179093556040519116919082907f8be0079c531659141344cd1fd0a4f28419497f9722a3daafe3b4186f6b6457e090600090a35050565b6001600160a01b03821661205757604051630b61174360e31b81526001600160a01b038316600482015260240161063a565b6001600160a01b03838116600081815260056020908152604080832094871680845294825291829020805460ff191686151590811790915591519182527f17307eab39ab6107e8899845ad3d59bd9653f200f220920489ca2b5937696c31910160405180910390a3505050565b6001600160a01b0383163b156121e657604051630a85bd0160e11b81526001600160a01b0384169063150b7a0290612106908890889087908790600401613133565b6020604051808303816000875af1925050508015612141575060408051601f3d908101601f1916820190925261213e91810190613166565b60015b6121aa573d80801561216f576040519150601f19603f3d011682016040523d82523d6000602084013e612174565b606091505b5080516000036121a257604051633250574960e11b81526001600160a01b038516600482015260240161063a565b805181602001fd5b6001600160e01b03198116630a85bd0160e11b14610ad657604051633250574960e11b81526001600160a01b038516600482015260240161063a565b5050505050565b606060006121fa83612885565b600101905060008167ffffffffffffffff81111561221a5761221a612e52565b6040519080825280601f01601f191660200182016040528015612244576020820181803683370190505b5090508181016020015b600019016f181899199a1a9b1b9c1cb0b131b232b360811b600a86061a8153600a850494508461224e57509392505050565b60008080838162253d8c6122978362010bd9613183565b6122a19190613183565b9050600062023ab16122b48360046131ab565b6122be91906131db565b905060046122cf8262023ab16131ab565b6122da906003613183565b6122e491906131db565b6122ee9083613209565b9150600062164b09612301846001613183565b61230d90610fa06131ab565b61231791906131db565b90506004612327826105b56131ab565b61233191906131db565b61233b9084613209565b61234690601f613183565b9250600061098f6123588560506131ab565b61236291906131db565b9050600060506123748361098f6131ab565b61237e91906131db565b6123889086613209565b9050612395600b836131db565b94506123a285600c6131ab565b6123ad836002613183565b6123b79190613209565b915084836123c6603187613209565b6123d19060646131ab565b6123db9190613183565b6123e59190613183565b9a919950975095505050505050565b6000805b600954811015612587578660098281548110612416576124166130ad565b90600052602060002090600502016000015414801561245857508560098281548110612444576124446130ad565b906000526020600020906005020160010154145b801561248757508460098281548110612473576124736130ad565b906000526020600020906005020160020154145b80156124dd57508360048111156124a0576124a0612c73565b600982815481106124b3576124b36130ad565b600091825260209091206003600590920201015460ff1660048111156124db576124db612c73565b145b801561253b57508260038111156124f6576124f6612c73565b60098281548110612509576125096130ad565b906000526020600020906005020160030160019054906101000a900460ff16600381111561253957612539612c73565b145b1561257f5760098181548110612553576125536130ad565b60009182526020822060046005909202010180549161257183613008565b919050555060019150612587565b6001016123f8565b5080610ad65760006040518060c001604052808881526020018781526020018681526020018560048111156125be576125be612c73565b81526020018460038111156125d5576125d5612c73565b815260016020918201819052600980548083018255600091909152835160059091027f6e1540171b6c0c960b71a7020d9f60077f6af931a8bbf590da0223dacf75c7af8101918255928401517f6e1540171b6c0c960b71a7020d9f60077f6af931a8bbf590da0223dacf75c7b084015560408401517f6e1540171b6c0c960b71a7020d9f60077f6af931a8bbf590da0223dacf75c7b184015560608401517f6e1540171b6c0c960b71a7020d9f60077f6af931a8bbf590da0223dacf75c7b290930180549495508594919392909160ff1916908360048111156126ba576126ba612c73565b021790555060808201518160030160016101000a81548160ff021916908360038111156126e9576126e9612c73565b021790555060a08201518160040155505050505050505050565b61270d838361295d565b6110be3360008585856120c4565b808061272f57506001600160a01b03821615155b156127f157600061273f84611db7565b90506001600160a01b0383161580159061276b5750826001600160a01b0316816001600160a01b031614155b801561277e575061277c8184611c87565b155b156127a75760405163a9fbf51f60e01b81526001600160a01b038416600482015260240161063a565b81156127ef5783856001600160a01b0316826001600160a01b03167f8c5be1e5ebec7d5bd14f71427d1e84f3dd0314c0f7b2291e5b200ac8c7c3b92560405160405180910390a45b505b5050600090815260046020526040902080546001600160a01b0319166001600160a01b0392909216919091179055565b61282c8383836129c2565b6110be576001600160a01b03831661285a57604051637e27328960e01b81526004810182905260240161063a565b60405163177e802f60e01b81526001600160a01b03831660048201526024810182905260440161063a565b60008072184f03e93ff9f4daa797ed6e38ed64bf6a1f0160401b83106128c45772184f03e93ff9f4daa797ed6e38ed64bf6a1f0160401b830492506040015b6d04ee2d6d415b85acef810000000083106128f0576d04ee2d6d415b85acef8100000000830492506020015b662386f26fc10000831061290e57662386f26fc10000830492506010015b6305f5e1008310612926576305f5e100830492506008015b612710831061293a57612710830492506004015b6064831061294c576064830492506002015b600a83106105de5760010192915050565b6001600160a01b03821661298757604051633250574960e11b81526000600482015260240161063a565b600061299583836000611dfd565b90506001600160a01b038116156110be576040516339e3563760e11b81526000600482015260240161063a565b60006001600160a01b03831615801590612a205750826001600160a01b0316846001600160a01b031614806129fc57506129fc8484611c87565b80612a2057506000828152600460205260409020546001600160a01b038481169116145b949350505050565b604051806101400160405280600081526020016000815260200160008152602001600081526020016000815260200160006003811115612a6a57612a6a612c73565b81526020016000815260200160006004811115612a8957612a89612c73565b815260006020820181905260409091015290565b6001600160e01b031981168114611cf057600080fd5b600060208284031215612ac557600080fd5b81356115f381612a9d565b803560048110612adf57600080fd5b919050565b600080600080600060a08688031215612afc57600080fd5b853594506020860135935060408601359250612b1a60608701612ad0565b949793965091946080013592915050565b60005b83811015612b46578181015183820152602001612b2e565b50506000910152565b60008151808452612b67816020860160208601612b2b565b601f01601f19169290920160200192915050565b6020815260006115f36020830184612b4f565b600060208284031215612ba057600080fd5b5035919050565b80356001600160a01b0381168114612adf57600080fd5b60008060408385031215612bd157600080fd5b612bda83612ba7565b946020939093013593505050565b600080600060608486031215612bfd57600080fd5b612c0684612ba7565b9250612c1460208501612ba7565b929592945050506040919091013590565b60008060408385031215612c3857600080fd5b50508035926020909101359150565b600080600060608486031215612c5c57600080fd5b505081359360208301359350604090920135919050565b634e487b7160e01b600052602160045260246000fd5b60048110612c9957612c99612c73565b9052565b60058110612c9957612c99612c73565b602080825282518282018190526000918401906040840190835b81811015612d6f578351805184526020810151602085015260408101516040850152606081015160608501526080810151608085015260a0810151612d0f60a0860182612c89565b5060c081015160c085015260e0810151612d2c60e0860182612c9d565b506101008101516101008501526101208101519050612d576101208501826001600160a01b03169052565b50602093909301926101409290920191600101612cc7565b509095945050505050565b600060208284031215612d8c57600080fd5b6115f382612ba7565b602080825282518282018190526000918401906040840190835b81811015612d6f5783518051845260208101516020850152604081015160408501526060810151612de36060860182612c9d565b506080810151612df66080860182612c89565b5060a090810151908401526020939093019260c090920191600101612daf565b60008060408385031215612e2957600080fd5b612e3283612ba7565b915060208301358015158114612e4757600080fd5b809150509250929050565b634e487b7160e01b600052604160045260246000fd5b60008060008060808587031215612e7e57600080fd5b612e8785612ba7565b9350612e9560208601612ba7565b925060408501359150606085013567ffffffffffffffff811115612eb857600080fd5b8501601f81018713612ec957600080fd5b803567ffffffffffffffff811115612ee357612ee3612e52565b604051601f8201601f19908116603f0116810167ffffffffffffffff81118282101715612f1257612f12612e52565b604052818152828201602001891015612f2a57600080fd5b8160208401602083013760006020838301015280935050505092959194509250565b602081016105de8284612c9d565b60008060008060008060c08789031215612f7357600080fd5b612f7c87612ba7565b9550602087013560058110612f9057600080fd5b9450612f9e60408801612ad0565b959894975094956060810135955060808101359460a0909101359350915050565b60008060408385031215612fd257600080fd5b612fdb83612ba7565b9150612fe960208401612ba7565b90509250929050565b634e487b7160e01b600052601160045260246000fd5b60006001820161301a5761301a612ff2565b5060010190565b808201808211156105de576105de612ff2565b600181811c9082168061304857607f821691505b60208210810361306857634e487b7160e01b600052602260045260246000fd5b50919050565b602080825260129082015271149bdbdb4819185e481b9bdd08199bdd5b9960721b604082015260600190565b818103818111156105de576105de612ff2565b634e487b7160e01b600052603260045260246000fd5b600083516130d5818460208801612b2b565b8351908301906130e9818360208801612b2b565b01949350505050565b80820281158282048414176105de576105de612ff2565b634e487b7160e01b600052601260045260246000fd5b60008261312e5761312e613109565b500490565b6001600160a01b0385811682528416602082015260408101839052608060608201819052600090611d4c90830184612b4f565b60006020828403121561317857600080fd5b81516115f381612a9d565b80820182811260008312801582168215821617156131a3576131a3612ff2565b505092915050565b80820260008212600160ff1b841416156131c7576131c7612ff2565b81810583148215176105de576105de612ff2565b6000826131ea576131ea613109565b600160ff1b82146000198414161561320457613204612ff2565b500590565b818103600083128015838313168383128216171561322957613229612ff2565b509291505056fea2646970667358221220f52bb998b13257493c8bc38f9d3f07fe96f43eb6dd3fead227cf0b1c6709d06964736f6c634300081a0033","linkReferences":{}},"methodIdentifiers":{"TOTAL_ROOMS()":"9d3f4c28","approve(address,uint256)":"095ea7b3","balanceOf(address)":"70a08231","getAllRoomDays(uint256,uint256)":"509fb0cd","getApproved(uint256)":"081812fc","getRoomDay(uint256)":"194adba2","getRoomDayFilter(address,uint8,uint8,uint256,uint256,uint256)":"e7b67f03","getRoomDayToken(uint256,uint256)":"2d9cb9d5","getTotals()":"84e10a90","isApprovedForAll(address,address)":"e985e9c5","isRoomBooked(uint256,uint256)":"d30dba98","mintRoomDays(uint256,uint256,uint256,uint8,uint256)":"0396cde6","name()":"06fdde03","owner()":"8da5cb5b","ownerOf(uint256)":"6352211e","renounceOwnership()":"715018a6","safeTransferFrom(address,address,uint256)":"42842e0e","safeTransferFrom(address,address,uint256,bytes)":"b88d4fde","setApprovalForAll(address,bool)":"a22cb465","setPricePerNight(uint256,uint256,uint256)":"488bab48","setToUsed(uint256)":"d37d721b","supportsInterface(bytes4)":"01ffc9a7","symbol()":"95d89b41","tokenURI(uint256)":"c87b56dd","totalRoomDays()":"30a32f66","transferFrom(address,address,uint256)":"23b872dd","transferOwnership(address)":"f2fde38b","transferRoomDay(uint256)":"3282e1a4","withdrawFunds()":"24600fc3"},"id":16}