{"abi":[{"type":"constructor","inputs":[],"stateMutability":"nonpayable"},{"type":"function","name":"TOTAL_ROOMS","inputs":[],"outputs":[{"name":"","type":"uint256","internalType":"uint256"}],"stateMutability":"view"},{"type":"function","name":"approve","inputs":[{"name":"to","type":"address","internalType":"address"},{"name":"tokenId","type":"uint256","internalType":"uint256"}],"outputs":[],"stateMutability":"nonpayable"},{"type":"function","name":"balanceOf","inputs":[{"name":"owner","type":"address","internalType":"address"}],"outputs":[{"name":"","type":"uint256","internalType":"uint256"}],"stateMutability":"view"},{"type":"function","name":"getAllRoomDays","inputs":[{"name":"offset","type":"uint256","internalType":"uint256"},{"name":"limit","type":"uint256","internalType":"uint256"}],"outputs":[{"name":"","type":"tuple[]","internalType":"struct HotelRooms.RoomDay[]","components":[{"name":"roomId","type":"uint256","internalType":"uint256"},{"name":"date","type":"uint256","internalType":"uint256"},{"name":"roomType","type":"uint8","internalType":"enum HotelRooms.RoomType"},{"name":"pricePerNight","type":"uint256","internalType":"uint256"},{"name":"status","type":"uint8","internalType":"enum HotelRooms.RoomStatus"},{"name":"tokenId","type":"uint256","internalType":"uint256"},{"name":"owner","type":"address","internalType":"address"}]}],"stateMutability":"view"},{"type":"function","name":"getApproved","inputs":[{"name":"tokenId","type":"uint256","internalType":"uint256"}],"outputs":[{"name":"","type":"address","internalType":"address"}],"stateMutability":"view"},{"type":"function","name":"getRoomDay","inputs":[{"name":"tokenId","type":"uint256","internalType":"uint256"}],"outputs":[{"name":"roomId","type":"uint256","internalType":"uint256"},{"name":"date","type":"uint256","internalType":"uint256"}],"stateMutability":"view"},{"type":"function","name":"getRoomDayToken","inputs":[{"name":"roomId","type":"uint256","internalType":"uint256"},{"name":"date","type":"uint256","internalType":"uint256"}],"outputs":[{"name":"tokenId","type":"uint256","internalType":"uint256"}],"stateMutability":"view"},{"type":"function","name":"getTotals","inputs":[],"outputs":[{"name":"","type":"tuple[]","internalType":"struct HotelRooms.Total[]","components":[{"name":"year","type":"uint256","internalType":"uint256"},{"name":"month","type":"uint256","internalType":"uint256"},{"name":"day","type":"uint256","internalType":"uint256"},{"name":"status","type":"uint8","internalType":"enum HotelRooms.RoomStatus"},{"name":"roomType","type":"uint8","internalType":"enum HotelRooms.RoomType"},{"name":"count","type":"uint256","internalType":"uint256"}]}],"stateMutability":"view"},{"type":"function","name":"isApprovedForAll","inputs":[{"name":"owner","type":"address","internalType":"address"},{"name":"operator","type":"address","internalType":"address"}],"outputs":[{"name":"","type":"bool","internalType":"bool"}],"stateMutability":"view"},{"type":"function","name":"isRoomBooked","inputs":[{"name":"roomId","type":"uint256","internalType":"uint256"},{"name":"date","type":"uint256","internalType":"uint256"}],"outputs":[{"name":"","type":"uint8","internalType":"enum HotelRooms.RoomStatus"}],"stateMutability":"view"},{"type":"function","name":"mintRoomDays","inputs":[{"name":"roomId","type":"uint256","internalType":"uint256"},{"name":"startDate","type":"uint256","internalType":"uint256"},{"name":"endDate","type":"uint256","internalType":"uint256"},{"name":"roomType","type":"uint8","internalType":"enum HotelRooms.RoomType"},{"name":"pricePerNight","type":"uint256","internalType":"uint256"}],"outputs":[],"stateMutability":"nonpayable"},{"type":"function","name":"name","inputs":[],"outputs":[{"name":"","type":"string","internalType":"string"}],"stateMutability":"view"},{"type":"function","name":"owner","inputs":[],"outputs":[{"name":"","type":"address","internalType":"address"}],"stateMutability":"view"},{"type":"function","name":"ownerOf","inputs":[{"name":"tokenId","type":"uint256","internalType":"uint256"}],"outputs":[{"name":"","type":"address","internalType":"address"}],"stateMutability":"view"},{"type":"function","name":"renounceOwnership","inputs":[],"outputs":[],"stateMutability":"nonpayable"},{"type":"function","name":"safeTransferFrom","inputs":[{"name":"from","type":"address","internalType":"address"},{"name":"to","type":"address","internalType":"address"},{"name":"tokenId","type":"uint256","internalType":"uint256"}],"outputs":[],"stateMutability":"nonpayable"},{"type":"function","name":"safeTransferFrom","inputs":[{"name":"from","type":"address","internalType":"address"},{"name":"to","type":"address","internalType":"address"},{"name":"tokenId","type":"uint256","internalType":"uint256"},{"name":"data","type":"bytes","internalType":"bytes"}],"outputs":[],"stateMutability":"nonpayable"},{"type":"function","name":"setApprovalForAll","inputs":[{"name":"operator","type":"address","internalType":"address"},{"name":"approved","type":"bool","internalType":"bool"}],"outputs":[],"stateMutability":"nonpayable"},{"type":"function","name":"setPricePerNight","inputs":[{"name":"roomId","type":"uint256","internalType":"uint256"},{"name":"date","type":"uint256","internalType":"uint256"},{"name":"pricePerNight","type":"uint256","internalType":"uint256"}],"outputs":[],"stateMutability":"nonpayable"},{"type":"function","name":"supportsInterface","inputs":[{"name":"interfaceId","type":"bytes4","internalType":"bytes4"}],"outputs":[{"name":"","type":"bool","internalType":"bool"}],"stateMutability":"view"},{"type":"function","name":"symbol","inputs":[],"outputs":[{"name":"","type":"string","internalType":"string"}],"stateMutability":"view"},{"type":"function","name":"tokenURI","inputs":[{"name":"tokenId","type":"uint256","internalType":"uint256"}],"outputs":[{"name":"","type":"string","internalType":"string"}],"stateMutability":"view"},{"type":"function","name":"totalRoomDays","inputs":[],"outputs":[{"name":"","type":"uint256","internalType":"uint256"}],"stateMutability":"view"},{"type":"function","name":"transferFrom","inputs":[{"name":"from","type":"address","internalType":"address"},{"name":"to","type":"address","internalType":"address"},{"name":"tokenId","type":"uint256","internalType":"uint256"}],"outputs":[],"stateMutability":"nonpayable"},{"type":"function","name":"transferOwnership","inputs":[{"name":"newOwner","type":"address","internalType":"address"}],"outputs":[],"stateMutability":"nonpayable"},{"type":"function","name":"transferRoomDay","inputs":[{"name":"tokenId","type":"uint256","internalType":"uint256"}],"outputs":[],"stateMutability":"payable"},{"type":"function","name":"withdrawFunds","inputs":[],"outputs":[],"stateMutability":"nonpayable"},{"type":"event","name":"Approval","inputs":[{"name":"owner","type":"address","indexed":true,"internalType":"address"},{"name":"approved","type":"address","indexed":true,"internalType":"address"},{"name":"tokenId","type":"uint256","indexed":true,"internalType":"uint256"}],"anonymous":false},{"type":"event","name":"ApprovalForAll","inputs":[{"name":"owner","type":"address","indexed":true,"internalType":"address"},{"name":"operator","type":"address","indexed":true,"internalType":"address"},{"name":"approved","type":"bool","indexed":false,"internalType":"bool"}],"anonymous":false},{"type":"event","name":"OwnershipTransferred","inputs":[{"name":"previousOwner","type":"address","indexed":true,"internalType":"address"},{"name":"newOwner","type":"address","indexed":true,"internalType":"address"}],"anonymous":false},{"type":"event","name":"Transfer","inputs":[{"name":"from","type":"address","indexed":true,"internalType":"address"},{"name":"to","type":"address","indexed":true,"internalType":"address"},{"name":"tokenId","type":"uint256","indexed":true,"internalType":"uint256"}],"anonymous":false},{"type":"error","name":"ERC721IncorrectOwner","inputs":[{"name":"sender","type":"address","internalType":"address"},{"name":"tokenId","type":"uint256","internalType":"uint256"},{"name":"owner","type":"address","internalType":"address"}]},{"type":"error","name":"ERC721InsufficientApproval","inputs":[{"name":"operator","type":"address","internalType":"address"},{"name":"tokenId","type":"uint256","internalType":"uint256"}]},{"type":"error","name":"ERC721InvalidApprover","inputs":[{"name":"approver","type":"address","internalType":"address"}]},{"type":"error","name":"ERC721InvalidOperator","inputs":[{"name":"operator","type":"address","internalType":"address"}]},{"type":"error","name":"ERC721InvalidOwner","inputs":[{"name":"owner","type":"address","internalType":"address"}]},{"type":"error","name":"ERC721InvalidReceiver","inputs":[{"name":"receiver","type":"address","internalType":"address"}]},{"type":"error","name":"ERC721InvalidSender","inputs":[{"name":"sender","type":"address","internalType":"address"}]},{"type":"error","name":"ERC721NonexistentToken","inputs":[{"name":"tokenId","type":"uint256","internalType":"uint256"}]},{"type":"error","name":"OwnableInvalidOwner","inputs":[{"name":"owner","type":"address","internalType":"address"}]},{"type":"error","name":"OwnableUnauthorizedAccount","inputs":[{"name":"account","type":"address","internalType":"address"}]}],"bytecode":{"object":"0x608060405234801561001057600080fd5b50336040518060400160405280600a815260200169486f74656c526f6f6d7360b01b8152506040518060400160405280600581526020016448524f4f4d60d81b815250816000908161006291906101b2565b50600161006f82826101b2565b5050506001600160a01b0381166100a057604051631e4fbdf760e01b81526000600482015260240160405180910390fd5b6100a9816100c1565b50600780546001600160a01b03191633179055610270565b600680546001600160a01b038381166001600160a01b0319831681179093556040519116919082907f8be0079c531659141344cd1fd0a4f28419497f9722a3daafe3b4186f6b6457e090600090a35050565b634e487b7160e01b600052604160045260246000fd5b600181811c9082168061013d57607f821691505b60208210810361015d57634e487b7160e01b600052602260045260246000fd5b50919050565b601f8211156101ad57806000526020600020601f840160051c8101602085101561018a5750805b601f840160051c820191505b818110156101aa5760008155600101610196565b50505b505050565b81516001600160401b038111156101cb576101cb610113565b6101df816101d98454610129565b84610163565b6020601f82116001811461021357600083156101fb5750848201515b600019600385901b1c1916600184901b1784556101aa565b600084815260208120601f198516915b828110156102435787850151825560209485019460019092019101610223565b50848210156102615786840151600019600387901b60f8161c191681555b50505050600190811b01905550565b6129dd8061027f6000396000f3fe60806040526004361061019c5760003560e01c8063509fb0cd116100ec5780639d3f4c281161008a578063c87b56dd11610064578063c87b56dd1461049f578063d30dba98146104bf578063e985e9c5146104ec578063f2fde38b1461050c57600080fd5b80639d3f4c281461044a578063a22cb4651461045f578063b88d4fde1461047f57600080fd5b8063715018a6116100c6578063715018a6146103e057806384e10a90146103f55780638da5cb5b1461041757806395d89b411461043557600080fd5b8063509fb0cd146103735780636352211e146103a057806370a08231146103c057600080fd5b806323b872dd1161015957806330a32f661161013357806330a32f661461030a5780633282e1a41461032057806342842e0e14610333578063488bab481461035357600080fd5b806323b872dd146102a757806324600fc3146102c75780632d9cb9d5146102dc57600080fd5b806301ffc9a7146101a15780630396cde6146101d657806306fdde03146101f8578063081812fc1461021a578063095ea7b314610252578063194adba214610272575b600080fd5b3480156101ad57600080fd5b506101c16101bc3660046122f2565b61052c565b60405190151581526020015b60405180910390f35b3480156101e257600080fd5b506101f66101f136600461230f565b61057e565b005b34801561020457600080fd5b5061020d6109b6565b6040516101cd91906123ac565b34801561022657600080fd5b5061023a6102353660046123bf565b610a48565b6040516001600160a01b0390911681526020016101cd565b34801561025e57600080fd5b506101f661026d3660046123f4565b610a71565b34801561027e57600080fd5b5061029261028d3660046123bf565b610a80565b604080519283526020830191909152016101cd565b3480156102b357600080fd5b506101f66102c236600461241e565b610b96565b3480156102d357600080fd5b506101f6610c21565b3480156102e857600080fd5b506102fc6102f736600461245b565b610cd0565b6040519081526020016101cd565b34801561031657600080fd5b506102fc60085481565b6101f661032e3660046123bf565b610d30565b34801561033f57600080fd5b506101f661034e36600461241e565b610f76565b34801561035f57600080fd5b506101f661036e36600461247d565b610f96565b34801561037f57600080fd5b5061039361038e36600461245b565b61110b565b6040516101cd91906124e3565b3480156103ac57600080fd5b5061023a6103bb3660046123bf565b6112a7565b3480156103cc57600080fd5b506102fc6103db366004612582565b6112b2565b3480156103ec57600080fd5b506101f66112fa565b34801561040157600080fd5b5061040a61130e565b6040516101cd919061259d565b34801561042357600080fd5b506006546001600160a01b031661023a565b34801561044157600080fd5b5061020d611407565b34801561045657600080fd5b506102fc606481565b34801561046b57600080fd5b506101f661047a36600461261e565b611416565b34801561048b57600080fd5b506101f661049a366004612670565b611421565b3480156104ab57600080fd5b5061020d6104ba3660046123bf565b611439565b3480156104cb57600080fd5b506104df6104da36600461245b565b6114ae565b6040516101cd9190612754565b3480156104f857600080fd5b506101c1610507366004612762565b6114dc565b34801561051857600080fd5b506101f6610527366004612582565b61150a565b60006001600160e01b031982166380ac58cd60e01b148061055d57506001600160e01b03198216635b5e139f60e01b145b8061057857506301ffc9a760e01b6001600160e01b03198316145b92915050565b6007546001600160a01b031633146105dd5760405162461bcd60e51b815260206004820152601d60248201527f4f6e6c79206f776e65722063616e206d696e7420726f6f6d206461797300000060448201526064015b60405180910390fd5b6000851180156105ee575060648511155b6106305760405162461bcd60e51b815260206004820152601360248201527224b73b30b634b2103937b7b690373ab6b132b960691b60448201526064016105d4565b828411156106755760405162461bcd60e51b8152602060048201526012602482015271496e76616c696420646174652072616e676560701b60448201526064016105d4565b428410156106be5760405162461bcd60e51b815260206004820152601660248201527543616e6e6f7420626f6f6b207061737420646174657360501b60448201526064016105d4565b835b8381116109ae5760006106d38783611548565b6000888152600c6020908152604080832086845290915290205490915060ff161561074a5760405162461bcd60e51b815260206004820152602160248201527f526f6f6d20616c726561647920626f6f6b656420666f722074686973206461746044820152606560f81b60648201526084016105d4565b6008805490600061075a836127ab565b919050555060006040518060e0016040528089815260200184815260200186600381111561078a5761078a6124a9565b81526020810186905260400160008152602080820185905233604092830152600a805460018181018355600092909252845160079091027fc65a7bb8d6351c1cf70c95a316cc6a92839c986682d98bc35f958f4883f9d2a88101918255928501517fc65a7bb8d6351c1cf70c95a316cc6a92839c986682d98bc35f958f4883f9d2a9840155928401517fc65a7bb8d6351c1cf70c95a316cc6a92839c986682d98bc35f958f4883f9d2aa90920180549495508594909160ff1990911690836003811115610859576108596124a9565b02179055506060820151816003015560808201518160040160006101000a81548160ff02191690836004811115610892576108926124a9565b021790555060a0820151600582015560c090910151600690910180546001600160a01b0319166001600160a01b039092169190911790556108d5838660006115ab565b6000828152600b6020908152604091829020835181559083015160018083019190915591830151600282018054859460ff199091169083600381111561091d5761091d6124a9565b02179055506060820151816003015560808201518160040160006101000a81548160ff02191690836004811115610956576109566124a9565b021790555060a0820151600582015560c090910151600690910180546001600160a01b0319166001600160a01b0390921691909117905561099733836115cc565b506109a7905062015180826127c4565b90506106c0565b505050505050565b6060600080546109c5906127d7565b80601f01602080910402602001604051908101604052809291908181526020018280546109f1906127d7565b8015610a3e5780601f10610a1357610100808354040283529160200191610a3e565b820191906000526020600020905b815481529060010190602001808311610a2157829003601f168201915b5050505050905090565b6000610a53826115e6565b506000828152600460205260409020546001600160a01b0316610578565b610a7c82823361161f565b5050565b6000818152600b60209081526040808320815160e081018352815481526001820154938101939093526002810154849384939092919083019060ff166003811115610acd57610acd6124a9565b6003811115610ade57610ade6124a9565b81526003820154602082015260048083015460409092019160ff1690811115610b0957610b096124a9565b6004811115610b1a57610b1a6124a9565b8152600582015460208201526006909101546001600160a01b03166040909101528051909150600003610b845760405162461bcd60e51b8152602060048201526012602482015271149bdbdb4819185e481b9bdd08199bdd5b9960721b60448201526064016105d4565b80516020909101519094909350915050565b6001600160a01b038216610bc057604051633250574960e11b8152600060048201526024016105d4565b6000610bcd83833361162c565b9050836001600160a01b0316816001600160a01b031614610c1b576040516364283d7b60e01b81526001600160a01b03808616600483015260248201849052821660448201526064016105d4565b50505050565b610c29611725565b476000610c3e6006546001600160a01b031690565b6001600160a01b03168260405160006040518083038185875af1925050503d8060008114610c88576040519150601f19603f3d011682016040523d82523d6000602084013e610c8d565b606091505b5050905080610a7c5760405162461bcd60e51b815260206004820152600f60248201526e151c985b9cd9995c8819985a5b1959608a1b60448201526064016105d4565b6000610cdc8383611548565b6000818152600b6020526040812054919250036105785760405162461bcd60e51b8152602060048201526012602482015271149bdbdb4819185e481b9bdd08199bdd5b9960721b60448201526064016105d4565b6000818152600b60209081526040808320815160e081018352815481526001820154938101939093526002810154909183019060ff166003811115610d7757610d776124a9565b6003811115610d8857610d886124a9565b81526003820154602082015260048083015460409092019160ff1690811115610db357610db36124a9565b6004811115610dc457610dc46124a9565b8152600582015460208201526006909101546001600160a01b03166040909101529050600081608001516004811115610dff57610dff6124a9565b14610e575760405162461bcd60e51b815260206004820152602260248201527f526f6f6d206973206e6f7420617661696c61626c6520666f72207472616e736660448201526132b960f11b60648201526084016105d4565b8060600151341015610eb55760405162461bcd60e51b815260206004820152602160248201527f496e73756666696369656e74207061796d656e7420666f72207472616e7366656044820152603960f91b60648201526084016105d4565b4281602001511015610f135760405162461bcd60e51b815260206004820152602160248201527f43616e6e6f74207472616e73666572206578706972656420726f6f6d206461796044820152607360f81b60648201526084016105d4565b6000828152600b6020908152604091829020600481018054600160ff199091168117909155600690910180546001600160a01b031916331790559083015191830151610f5f92916115ab565b600754610a7c906001600160a01b03163384611752565b610f9183838360405180602001604052806000815250611421565b505050565b610f9e611725565b6000838152600c6020908152604080832085845290915290205460ff16156110015760405162461bcd60e51b8152602060048201526016602482015275149bdbdb481a5cc8185b1c9958591e48189bdbdad95960521b60448201526064016105d4565b600083118015611012575060648311155b6110545760405162461bcd60e51b815260206004820152601360248201527224b73b30b634b2103937b7b690373ab6b132b960691b60448201526064016105d4565b600082116110935760405162461bcd60e51b815260206004820152600c60248201526b496e76616c6964206461746560a01b60448201526064016105d4565b600081116110e35760405162461bcd60e51b815260206004820152601760248201527f496e76616c696420707269636520706572206e6967687400000000000000000060448201526064016105d4565b80600b60006110f28686611548565b8152602081019190915260400160002060030155505050565b6060600061111983856127c4565b600a5490915081111561112b5750600a545b60006111378583612811565b905060008167ffffffffffffffff8111156111545761115461265a565b60405190808252806020026020018201604052801561118d57816020015b61117a61227d565b8152602001906001900390816111725790505b50905060005b8281101561129d57600a6111a782896127c4565b815481106111b7576111b7612824565b90600052602060002090600702016040518060e001604052908160008201548152602001600182015481526020016002820160009054906101000a900460ff166003811115611208576112086124a9565b6003811115611219576112196124a9565b81526003820154602082015260048083015460409092019160ff1690811115611244576112446124a9565b6004811115611255576112556124a9565b8152600582015460208201526006909101546001600160a01b0316604090910152825183908390811061128a5761128a612824565b6020908102919091010152600101611193565b5095945050505050565b6000610578826115e6565b60006001600160a01b0382166112de576040516322718ad960e21b8152600060048201526024016105d4565b506001600160a01b031660009081526003602052604090205490565b611302611725565b61130c6000611802565b565b60606009805480602002602001604051908101604052809291908181526020016000905b828210156113fe57838290600052602060002090600502016040518060c00160405290816000820154815260200160018201548152602001600282015481526020016003820160009054906101000a900460ff166004811115611397576113976124a9565b60048111156113a8576113a86124a9565b81526020016003820160019054906101000a900460ff1660038111156113d0576113d06124a9565b60038111156113e1576113e16124a9565b815260200160048201548152505081526020019060010190611332565b50505050905090565b6060600180546109c5906127d7565b610a7c338383611854565b61142c848484610b96565b610c1b33858585856118f3565b6060611444826115e6565b50600061145c60408051602081019091526000815290565b9050600081511161147c57604051806020016040528060008152506114a7565b8061148684611a1c565b60405160200161149792919061283a565b6040516020818303038152906040525b9392505050565b6000600b60006114be8585611548565b815260208101919091526040016000206004015460ff169392505050565b6001600160a01b03918216600090815260056020908152604080832093909416825291909152205460ff1690565b611512611725565b6001600160a01b03811661153c57604051631e4fbdf760e01b8152600060048201526024016105d4565b61154581611802565b50565b60008060008061155785611aaf565b91945092509050858161156b846064612869565b61157786612710612869565b61158191906127c4565b61158b91906127c4565b611597906103e8612869565b6115a191906127c4565b9695505050505050565b60008060006115b986611aaf565b9250925092506109ae8383838789611ad5565b610a7c828260405180602001604052806000815250611de4565b6000818152600260205260408120546001600160a01b03168061057857604051637e27328960e01b8152600481018490526024016105d4565b610f918383836001611dfc565b6000828152600260205260408120546001600160a01b039081169083161561165957611659818486611f02565b6001600160a01b0381161561169757611676600085600080611dfc565b6001600160a01b038116600090815260036020526040902080546000190190555b6001600160a01b038516156116c6576001600160a01b0385166000908152600360205260409020805460010190555b60008481526002602052604080822080546001600160a01b0319166001600160a01b0389811691821790925591518793918516917fddf252ad1be2c89b69c2b068fc378daa952ba7f163c4a11628f55a4df523b3ef91a4949350505050565b6006546001600160a01b0316331461130c5760405163118cdaa760e01b81523360048201526024016105d4565b6001600160a01b03821661177c57604051633250574960e11b8152600060048201526024016105d4565b600061178a8383600061162c565b90506001600160a01b0381166117b657604051637e27328960e01b8152600481018390526024016105d4565b836001600160a01b0316816001600160a01b031614610c1b576040516364283d7b60e01b81526001600160a01b03808616600483015260248201849052821660448201526064016105d4565b600680546001600160a01b038381166001600160a01b0319831681179093556040519116919082907f8be0079c531659141344cd1fd0a4f28419497f9722a3daafe3b4186f6b6457e090600090a35050565b6001600160a01b03821661188657604051630b61174360e31b81526001600160a01b03831660048201526024016105d4565b6001600160a01b03838116600081815260056020908152604080832094871680845294825291829020805460ff191686151590811790915591519182527f17307eab39ab6107e8899845ad3d59bd9653f200f220920489ca2b5937696c31910160405180910390a3505050565b6001600160a01b0383163b15611a1557604051630a85bd0160e11b81526001600160a01b0384169063150b7a0290611935908890889087908790600401612880565b6020604051808303816000875af1925050508015611970575060408051601f3d908101601f1916820190925261196d918101906128b3565b60015b6119d9573d80801561199e576040519150601f19603f3d011682016040523d82523d6000602084013e6119a3565b606091505b5080516000036119d157604051633250574960e11b81526001600160a01b03851660048201526024016105d4565b805181602001fd5b6001600160e01b03198116630a85bd0160e11b146109ae57604051633250574960e11b81526001600160a01b03851660048201526024016105d4565b5050505050565b60606000611a2983611f66565b600101905060008167ffffffffffffffff811115611a4957611a4961265a565b6040519080825280601f01601f191660200182016040528015611a73576020820181803683370190505b5090508181016020015b600019016f181899199a1a9b1b9c1cb0b131b232b360811b600a86061a8153600a8504945084611a7d57509392505050565b60008080611ac8611ac362015180866128e6565b61203e565b9196909550909350915050565b6000805b600954811015611c68578660098281548110611af757611af7612824565b906000526020600020906005020160000154148015611b3957508560098281548110611b2557611b25612824565b906000526020600020906005020160010154145b8015611b6857508460098281548110611b5457611b54612824565b906000526020600020906005020160020154145b8015611bbe5750836004811115611b8157611b816124a9565b60098281548110611b9457611b94612824565b600091825260209091206003600590920201015460ff166004811115611bbc57611bbc6124a9565b145b8015611c1c5750826003811115611bd757611bd76124a9565b60098281548110611bea57611bea612824565b906000526020600020906005020160030160019054906101000a900460ff166003811115611c1a57611c1a6124a9565b145b15611c605760098181548110611c3457611c34612824565b600091825260208220600460059092020101805491611c52836127ab565b919050555060019150611c68565b600101611ad9565b50806109ae5760006040518060c00160405280888152602001878152602001868152602001856004811115611c9f57611c9f6124a9565b8152602001846003811115611cb657611cb66124a9565b815260016020918201819052600980548083018255600091909152835160059091027f6e1540171b6c0c960b71a7020d9f60077f6af931a8bbf590da0223dacf75c7af8101918255928401517f6e1540171b6c0c960b71a7020d9f60077f6af931a8bbf590da0223dacf75c7b084015560408401517f6e1540171b6c0c960b71a7020d9f60077f6af931a8bbf590da0223dacf75c7b184015560608401517f6e1540171b6c0c960b71a7020d9f60077f6af931a8bbf590da0223dacf75c7b290930180549495508594919392909160ff191690836004811115611d9b57611d9b6124a9565b021790555060808201518160030160016101000a81548160ff02191690836003811115611dca57611dca6124a9565b021790555060a08201518160040155505050505050505050565b611dee83836121b2565b610f913360008585856118f3565b8080611e1057506001600160a01b03821615155b15611ed2576000611e20846115e6565b90506001600160a01b03831615801590611e4c5750826001600160a01b0316816001600160a01b031614155b8015611e5f5750611e5d81846114dc565b155b15611e885760405163a9fbf51f60e01b81526001600160a01b03841660048201526024016105d4565b8115611ed05783856001600160a01b0316826001600160a01b03167f8c5be1e5ebec7d5bd14f71427d1e84f3dd0314c0f7b2291e5b200ac8c7c3b92560405160405180910390a45b505b5050600090815260046020526040902080546001600160a01b0319166001600160a01b0392909216919091179055565b611f0d838383612217565b610f91576001600160a01b038316611f3b57604051637e27328960e01b8152600481018290526024016105d4565b60405163177e802f60e01b81526001600160a01b0383166004820152602481018290526044016105d4565b60008072184f03e93ff9f4daa797ed6e38ed64bf6a1f0160401b8310611fa55772184f03e93ff9f4daa797ed6e38ed64bf6a1f0160401b830492506040015b6d04ee2d6d415b85acef81000000008310611fd1576d04ee2d6d415b85acef8100000000830492506020015b662386f26fc100008310611fef57662386f26fc10000830492506010015b6305f5e1008310612007576305f5e100830492506008015b612710831061201b57612710830492506004015b6064831061202d576064830492506002015b600a83106105785760010192915050565b60008080838162253d8c6120558362010bd96128fa565b61205f91906128fa565b9050600062023ab1612072836004612922565b61207c9190612952565b9050600461208d8262023ab1612922565b6120989060036128fa565b6120a29190612952565b6120ac9083612980565b9150600062164b096120bf8460016128fa565b6120cb90610fa0612922565b6120d59190612952565b905060046120e5826105b5612922565b6120ef9190612952565b6120f99084612980565b61210490601f6128fa565b9250600061098f612116856050612922565b6121209190612952565b9050600060506121328361098f612922565b61213c9190612952565b6121469086612980565b9050612153600b83612952565b945061216085600c612922565b61216b8360026128fa565b6121759190612980565b91508483612184603187612980565b61218f906064612922565b61219991906128fa565b6121a391906128fa565b9a919950975095505050505050565b6001600160a01b0382166121dc57604051633250574960e11b8152600060048201526024016105d4565b60006121ea8383600061162c565b90506001600160a01b03811615610f91576040516339e3563760e11b8152600060048201526024016105d4565b60006001600160a01b038316158015906122755750826001600160a01b0316846001600160a01b03161480612251575061225184846114dc565b8061227557506000828152600460205260409020546001600160a01b038481169116145b949350505050565b6040518060e001604052806000815260200160008152602001600060038111156122a9576122a96124a9565b815260200160008152602001600060048111156122c8576122c86124a9565b815260006020820181905260409091015290565b6001600160e01b03198116811461154557600080fd5b60006020828403121561230457600080fd5b81356114a7816122dc565b600080600080600060a0868803121561232757600080fd5b85359450602086013593506040860135925060608601356004811061234b57600080fd5b949793965091946080013592915050565b60005b8381101561237757818101518382015260200161235f565b50506000910152565b6000815180845261239881602086016020860161235c565b601f01601f19169290920160200192915050565b6020815260006114a76020830184612380565b6000602082840312156123d157600080fd5b5035919050565b80356001600160a01b03811681146123ef57600080fd5b919050565b6000806040838503121561240757600080fd5b612410836123d8565b946020939093013593505050565b60008060006060848603121561243357600080fd5b61243c846123d8565b925061244a602085016123d8565b929592945050506040919091013590565b6000806040838503121561246e57600080fd5b50508035926020909101359150565b60008060006060848603121561249257600080fd5b505081359360208301359350604090920135919050565b634e487b7160e01b600052602160045260246000fd5b600481106124cf576124cf6124a9565b9052565b600581106124cf576124cf6124a9565b602080825282518282018190526000918401906040840190835b818110156125775783518051845260208101516020850152604081015161252760408601826124bf565b5060608101516060850152608081015161254460808601826124d3565b5060a0818101519085015260c0908101516001600160a01b0316908401526020939093019260e0909201916001016124fd565b509095945050505050565b60006020828403121561259457600080fd5b6114a7826123d8565b602080825282518282018190526000918401906040840190835b8181101561257757835180518452602081015160208501526040810151604085015260608101516125eb60608601826124d3565b5060808101516125fe60808601826124bf565b5060a090810151908401526020939093019260c0909201916001016125b7565b6000806040838503121561263157600080fd5b61263a836123d8565b91506020830135801515811461264f57600080fd5b809150509250929050565b634e487b7160e01b600052604160045260246000fd5b6000806000806080858703121561268657600080fd5b61268f856123d8565b935061269d602086016123d8565b925060408501359150606085013567ffffffffffffffff8111156126c057600080fd5b8501601f810187136126d157600080fd5b803567ffffffffffffffff8111156126eb576126eb61265a565b604051601f8201601f19908116603f0116810167ffffffffffffffff8111828210171561271a5761271a61265a565b60405281815282820160200189101561273257600080fd5b8160208401602083013760006020838301015280935050505092959194509250565b6020810161057882846124d3565b6000806040838503121561277557600080fd5b61277e836123d8565b915061278c602084016123d8565b90509250929050565b634e487b7160e01b600052601160045260246000fd5b6000600182016127bd576127bd612795565b5060010190565b8082018082111561057857610578612795565b600181811c908216806127eb57607f821691505b60208210810361280b57634e487b7160e01b600052602260045260246000fd5b50919050565b8181038181111561057857610578612795565b634e487b7160e01b600052603260045260246000fd5b6000835161284c81846020880161235c565b83519083019061286081836020880161235c565b01949350505050565b808202811582820484141761057857610578612795565b6001600160a01b03858116825284166020820152604081018390526080606082018190526000906115a190830184612380565b6000602082840312156128c557600080fd5b81516114a7816122dc565b634e487b7160e01b600052601260045260246000fd5b6000826128f5576128f56128d0565b500490565b808201828112600083128015821682158216171561291a5761291a612795565b505092915050565b80820260008212600160ff1b8414161561293e5761293e612795565b818105831482151761057857610578612795565b600082612961576129616128d0565b600160ff1b82146000198414161561297b5761297b612795565b500590565b81810360008312801583831316838312821617156129a0576129a0612795565b509291505056fea26469706673582212202c85576da02c6661bc6069d569e711bf4532160edafa52ef505cdc0d701c56fe64736f6c634300081a0033","linkReferences":{}},"methodIdentifiers":{"TOTAL_ROOMS()":"9d3f4c28","approve(address,uint256)":"095ea7b3","balanceOf(address)":"70a08231","getAllRoomDays(uint256,uint256)":"509fb0cd","getApproved(uint256)":"081812fc","getRoomDay(uint256)":"194adba2","getRoomDayToken(uint256,uint256)":"2d9cb9d5","getTotals()":"84e10a90","isApprovedForAll(address,address)":"e985e9c5","isRoomBooked(uint256,uint256)":"d30dba98","mintRoomDays(uint256,uint256,uint256,uint8,uint256)":"0396cde6","name()":"06fdde03","owner()":"8da5cb5b","ownerOf(uint256)":"6352211e","renounceOwnership()":"715018a6","safeTransferFrom(address,address,uint256)":"42842e0e","safeTransferFrom(address,address,uint256,bytes)":"b88d4fde","setApprovalForAll(address,bool)":"a22cb465","setPricePerNight(uint256,uint256,uint256)":"488bab48","supportsInterface(bytes4)":"01ffc9a7","symbol()":"95d89b41","tokenURI(uint256)":"c87b56dd","totalRoomDays()":"30a32f66","transferFrom(address,address,uint256)":"23b872dd","transferOwnership(address)":"f2fde38b","transferRoomDay(uint256)":"3282e1a4","withdrawFunds()":"24600fc3"},"id":33}