{"abi":[{"type":"constructor","inputs":[],"stateMutability":"nonpayable"},{"type":"function","name":"TOTAL_ROOMS","inputs":[],"outputs":[{"name":"","type":"uint256","internalType":"uint256"}],"stateMutability":"view"},{"type":"function","name":"approve","inputs":[{"name":"to","type":"address","internalType":"address"},{"name":"tokenId","type":"uint256","internalType":"uint256"}],"outputs":[],"stateMutability":"nonpayable"},{"type":"function","name":"balanceOf","inputs":[{"name":"owner","type":"address","internalType":"address"}],"outputs":[{"name":"","type":"uint256","internalType":"uint256"}],"stateMutability":"view"},{"type":"function","name":"getAllRoomDays","inputs":[{"name":"offset","type":"uint256","internalType":"uint256"},{"name":"limit","type":"uint256","internalType":"uint256"}],"outputs":[{"name":"","type":"tuple[]","internalType":"struct HotelRooms.RoomDay[]","components":[{"name":"roomId","type":"uint256","internalType":"uint256"},{"name":"date","type":"uint256","internalType":"uint256"},{"name":"roomType","type":"uint8","internalType":"enum HotelRooms.RoomType"},{"name":"pricePerNight","type":"uint256","internalType":"uint256"},{"name":"status","type":"uint8","internalType":"enum HotelRooms.RoomStatus"},{"name":"tokenId","type":"uint256","internalType":"uint256"},{"name":"owner","type":"address","internalType":"address"}]}],"stateMutability":"view"},{"type":"function","name":"getApproved","inputs":[{"name":"tokenId","type":"uint256","internalType":"uint256"}],"outputs":[{"name":"","type":"address","internalType":"address"}],"stateMutability":"view"},{"type":"function","name":"getRoomDay","inputs":[{"name":"tokenId","type":"uint256","internalType":"uint256"}],"outputs":[{"name":"roomId","type":"uint256","internalType":"uint256"},{"name":"date","type":"uint256","internalType":"uint256"}],"stateMutability":"view"},{"type":"function","name":"getRoomDayToken","inputs":[{"name":"roomId","type":"uint256","internalType":"uint256"},{"name":"date","type":"uint256","internalType":"uint256"}],"outputs":[{"name":"tokenId","type":"uint256","internalType":"uint256"}],"stateMutability":"view"},{"type":"function","name":"getTotals","inputs":[],"outputs":[{"name":"","type":"tuple[]","internalType":"struct HotelRooms.Total[]","components":[{"name":"year","type":"uint256","internalType":"uint256"},{"name":"month","type":"uint256","internalType":"uint256"},{"name":"day","type":"uint256","internalType":"uint256"},{"name":"status","type":"uint8","internalType":"enum HotelRooms.RoomStatus"},{"name":"roomType","type":"uint8","internalType":"enum HotelRooms.RoomType"},{"name":"count","type":"uint256","internalType":"uint256"}]}],"stateMutability":"view"},{"type":"function","name":"isApprovedForAll","inputs":[{"name":"owner","type":"address","internalType":"address"},{"name":"operator","type":"address","internalType":"address"}],"outputs":[{"name":"","type":"bool","internalType":"bool"}],"stateMutability":"view"},{"type":"function","name":"isRoomBooked","inputs":[{"name":"roomId","type":"uint256","internalType":"uint256"},{"name":"date","type":"uint256","internalType":"uint256"}],"outputs":[{"name":"","type":"uint8","internalType":"enum HotelRooms.RoomStatus"}],"stateMutability":"view"},{"type":"function","name":"mintRoomDays","inputs":[{"name":"roomId","type":"uint256","internalType":"uint256"},{"name":"startDate","type":"uint256","internalType":"uint256"},{"name":"endDate","type":"uint256","internalType":"uint256"},{"name":"roomType","type":"uint8","internalType":"enum HotelRooms.RoomType"},{"name":"pricePerNight","type":"uint256","internalType":"uint256"}],"outputs":[],"stateMutability":"nonpayable"},{"type":"function","name":"name","inputs":[],"outputs":[{"name":"","type":"string","internalType":"string"}],"stateMutability":"view"},{"type":"function","name":"owner","inputs":[],"outputs":[{"name":"","type":"address","internalType":"address"}],"stateMutability":"view"},{"type":"function","name":"ownerOf","inputs":[{"name":"tokenId","type":"uint256","internalType":"uint256"}],"outputs":[{"name":"","type":"address","internalType":"address"}],"stateMutability":"view"},{"type":"function","name":"renounceOwnership","inputs":[],"outputs":[],"stateMutability":"nonpayable"},{"type":"function","name":"safeTransferFrom","inputs":[{"name":"from","type":"address","internalType":"address"},{"name":"to","type":"address","internalType":"address"},{"name":"tokenId","type":"uint256","internalType":"uint256"}],"outputs":[],"stateMutability":"nonpayable"},{"type":"function","name":"safeTransferFrom","inputs":[{"name":"from","type":"address","internalType":"address"},{"name":"to","type":"address","internalType":"address"},{"name":"tokenId","type":"uint256","internalType":"uint256"},{"name":"data","type":"bytes","internalType":"bytes"}],"outputs":[],"stateMutability":"nonpayable"},{"type":"function","name":"setApprovalForAll","inputs":[{"name":"operator","type":"address","internalType":"address"},{"name":"approved","type":"bool","internalType":"bool"}],"outputs":[],"stateMutability":"nonpayable"},{"type":"function","name":"setPricePerNight","inputs":[{"name":"roomId","type":"uint256","internalType":"uint256"},{"name":"date","type":"uint256","internalType":"uint256"},{"name":"pricePerNight","type":"uint256","internalType":"uint256"}],"outputs":[],"stateMutability":"nonpayable"},{"type":"function","name":"supportsInterface","inputs":[{"name":"interfaceId","type":"bytes4","internalType":"bytes4"}],"outputs":[{"name":"","type":"bool","internalType":"bool"}],"stateMutability":"view"},{"type":"function","name":"symbol","inputs":[],"outputs":[{"name":"","type":"string","internalType":"string"}],"stateMutability":"view"},{"type":"function","name":"tokenURI","inputs":[{"name":"tokenId","type":"uint256","internalType":"uint256"}],"outputs":[{"name":"","type":"string","internalType":"string"}],"stateMutability":"view"},{"type":"function","name":"totalRoomDays","inputs":[],"outputs":[{"name":"","type":"uint256","internalType":"uint256"}],"stateMutability":"view"},{"type":"function","name":"transferFrom","inputs":[{"name":"from","type":"address","internalType":"address"},{"name":"to","type":"address","internalType":"address"},{"name":"tokenId","type":"uint256","internalType":"uint256"}],"outputs":[],"stateMutability":"nonpayable"},{"type":"function","name":"transferOwnership","inputs":[{"name":"newOwner","type":"address","internalType":"address"}],"outputs":[],"stateMutability":"nonpayable"},{"type":"function","name":"transferRoomDay","inputs":[{"name":"tokenId","type":"uint256","internalType":"uint256"}],"outputs":[],"stateMutability":"payable"},{"type":"function","name":"withdrawFunds","inputs":[],"outputs":[],"stateMutability":"nonpayable"},{"type":"event","name":"Approval","inputs":[{"name":"owner","type":"address","indexed":true,"internalType":"address"},{"name":"approved","type":"address","indexed":true,"internalType":"address"},{"name":"tokenId","type":"uint256","indexed":true,"internalType":"uint256"}],"anonymous":false},{"type":"event","name":"ApprovalForAll","inputs":[{"name":"owner","type":"address","indexed":true,"internalType":"address"},{"name":"operator","type":"address","indexed":true,"internalType":"address"},{"name":"approved","type":"bool","indexed":false,"internalType":"bool"}],"anonymous":false},{"type":"event","name":"OwnershipTransferred","inputs":[{"name":"previousOwner","type":"address","indexed":true,"internalType":"address"},{"name":"newOwner","type":"address","indexed":true,"internalType":"address"}],"anonymous":false},{"type":"event","name":"Transfer","inputs":[{"name":"from","type":"address","indexed":true,"internalType":"address"},{"name":"to","type":"address","indexed":true,"internalType":"address"},{"name":"tokenId","type":"uint256","indexed":true,"internalType":"uint256"}],"anonymous":false},{"type":"error","name":"ERC721IncorrectOwner","inputs":[{"name":"sender","type":"address","internalType":"address"},{"name":"tokenId","type":"uint256","internalType":"uint256"},{"name":"owner","type":"address","internalType":"address"}]},{"type":"error","name":"ERC721InsufficientApproval","inputs":[{"name":"operator","type":"address","internalType":"address"},{"name":"tokenId","type":"uint256","internalType":"uint256"}]},{"type":"error","name":"ERC721InvalidApprover","inputs":[{"name":"approver","type":"address","internalType":"address"}]},{"type":"error","name":"ERC721InvalidOperator","inputs":[{"name":"operator","type":"address","internalType":"address"}]},{"type":"error","name":"ERC721InvalidOwner","inputs":[{"name":"owner","type":"address","internalType":"address"}]},{"type":"error","name":"ERC721InvalidReceiver","inputs":[{"name":"receiver","type":"address","internalType":"address"}]},{"type":"error","name":"ERC721InvalidSender","inputs":[{"name":"sender","type":"address","internalType":"address"}]},{"type":"error","name":"ERC721NonexistentToken","inputs":[{"name":"tokenId","type":"uint256","internalType":"uint256"}]},{"type":"error","name":"OwnableInvalidOwner","inputs":[{"name":"owner","type":"address","internalType":"address"}]},{"type":"error","name":"OwnableUnauthorizedAccount","inputs":[{"name":"account","type":"address","internalType":"address"}]}],"bytecode":{"object":"0x608060405234801561000f575f5ffd5b50336040518060400160405280600a81526020017f486f74656c526f6f6d73000000000000000000000000000000000000000000008152506040518060400160405280600581526020017f48524f4f4d000000000000000000000000000000000000000000000000000000815250815f908161008b9190610463565b50806001908161009b9190610463565b5050505f73ffffffffffffffffffffffffffffffffffffffff168173ffffffffffffffffffffffffffffffffffffffff160361010e575f6040517f1e4fbdf70000000000000000000000000000000000000000000000000000000081526004016101059190610571565b60405180910390fd5b61011d8161016360201b60201c565b503360075f6101000a81548173ffffffffffffffffffffffffffffffffffffffff021916908373ffffffffffffffffffffffffffffffffffffffff16021790555061058a565b5f60065f9054906101000a900473ffffffffffffffffffffffffffffffffffffffff1690508160065f6101000a81548173ffffffffffffffffffffffffffffffffffffffff021916908373ffffffffffffffffffffffffffffffffffffffff1602179055508173ffffffffffffffffffffffffffffffffffffffff168173ffffffffffffffffffffffffffffffffffffffff167f8be0079c531659141344cd1fd0a4f28419497f9722a3daafe3b4186f6b6457e060405160405180910390a35050565b5f81519050919050565b7f4e487b71000000000000000000000000000000000000000000000000000000005f52604160045260245ffd5b7f4e487b71000000000000000000000000000000000000000000000000000000005f52602260045260245ffd5b5f60028204905060018216806102a157607f821691505b6020821081036102b4576102b361025d565b5b50919050565b5f819050815f5260205f209050919050565b5f6020601f8301049050919050565b5f82821b905092915050565b5f600883026103167fffffffffffffffffffffffffffffffffffffffffffffffffffffffffffffffff826102db565b61032086836102db565b95508019841693508086168417925050509392505050565b5f819050919050565b5f819050919050565b5f61036461035f61035a84610338565b610341565b610338565b9050919050565b5f819050919050565b61037d8361034a565b6103916103898261036b565b8484546102e7565b825550505050565b5f5f905090565b6103a8610399565b6103b3818484610374565b505050565b5b818110156103d6576103cb5f826103a0565b6001810190506103b9565b5050565b601f82111561041b576103ec816102ba565b6103f5846102cc565b81016020851015610404578190505b610418610410856102cc565b8301826103b8565b50505b505050565b5f82821c905092915050565b5f61043b5f1984600802610420565b1980831691505092915050565b5f610453838361042c565b9150826002028217905092915050565b61046c82610226565b67ffffffffffffffff81111561048557610484610230565b5b61048f825461028a565b61049a8282856103da565b5f60209050601f8311600181146104cb575f84156104b9578287015190505b6104c38582610448565b86555061052a565b601f1984166104d9866102ba565b5f5b82811015610500578489015182556001820191506020850194506020810190506104db565b8683101561051d5784890151610519601f89168261042c565b8355505b6001600288020188555050505b505050505050565b5f73ffffffffffffffffffffffffffffffffffffffff82169050919050565b5f61055b82610532565b9050919050565b61056b81610551565b82525050565b5f6020820190506105845f830184610562565b92915050565b61460f806105975f395ff3fe60806040526004361061019b575f3560e01c8063509fb0cd116100eb5780639d3f4c2811610089578063c87b56dd11610063578063c87b56dd146105a0578063d30dba98146105dc578063e985e9c514610618578063f2fde38b146106545761019b565b80639d3f4c2814610526578063a22cb46514610550578063b88d4fde146105785761019b565b8063715018a6116100c5578063715018a61461049257806384e10a90146104a85780638da5cb5b146104d257806395d89b41146104fc5761019b565b8063509fb0cd146103de5780636352211e1461041a57806370a08231146104565761019b565b806323b872dd1161015857806330a32f661161013257806330a32f66146103485780633282e1a41461037257806342842e0e1461038e578063488bab48146103b65761019b565b806323b872dd146102ce57806324600fc3146102f65780632d9cb9d51461030c5761019b565b806301ffc9a71461019f5780630396cde6146101db57806306fdde0314610203578063081812fc1461022d578063095ea7b314610269578063194adba214610291575b5f5ffd5b3480156101aa575f5ffd5b506101c560048036038101906101c091906130d6565b61067c565b6040516101d2919061311b565b60405180910390f35b3480156101e6575f5ffd5b5061020160048036038101906101fc919061318a565b61075d565b005b34801561020e575f5ffd5b50610217610bd7565b6040516102249190613271565b60405180910390f35b348015610238575f5ffd5b50610253600480360381019061024e9190613291565b610c66565b60405161026091906132fb565b60405180910390f35b348015610274575f5ffd5b5061028f600480360381019061028a919061333e565b610c81565b005b34801561029c575f5ffd5b506102b760048036038101906102b29190613291565b610c97565b6040516102c592919061338b565b60405180910390f35b3480156102d9575f5ffd5b506102f460048036038101906102ef91906133b2565b610e00565b005b348015610301575f5ffd5b5061030a610eff565b005b348015610317575f5ffd5b50610332600480360381019061032d9190613402565b610fbe565b60405161033f9190613440565b60405180910390f35b348015610353575f5ffd5b5061035c611026565b6040516103699190613440565b60405180910390f35b61038c60048036038101906103879190613291565b61102c565b005b348015610399575f5ffd5b506103b460048036038101906103af91906133b2565b611305565b005b3480156103c1575f5ffd5b506103dc60048036038101906103d79190613459565b611324565b005b3480156103e9575f5ffd5b5061040460048036038101906103ff9190613402565b611493565b60405161041191906136b4565b60405180910390f35b348015610425575f5ffd5b50610440600480360381019061043b9190613291565b61168b565b60405161044d91906132fb565b60405180910390f35b348015610461575f5ffd5b5061047c600480360381019061047791906136d4565b61169c565b6040516104899190613440565b60405180910390f35b34801561049d575f5ffd5b506104a6611752565b005b3480156104b3575f5ffd5b506104bc611765565b6040516104c99190613820565b60405180910390f35b3480156104dd575f5ffd5b506104e661185d565b6040516104f391906132fb565b60405180910390f35b348015610507575f5ffd5b50610510611885565b60405161051d9190613271565b60405180910390f35b348015610531575f5ffd5b5061053a611915565b6040516105479190613440565b60405180910390f35b34801561055b575f5ffd5b506105766004803603810190610571919061386a565b61191a565b005b348015610583575f5ffd5b5061059e600480360381019061059991906139d4565b611930565b005b3480156105ab575f5ffd5b506105c660048036038101906105c19190613291565b611955565b6040516105d39190613271565b60405180910390f35b3480156105e7575f5ffd5b5061060260048036038101906105fd9190613402565b6119bb565b60405161060f9190613a63565b60405180910390f35b348015610623575f5ffd5b5061063e60048036038101906106399190613a7c565b6119ee565b60405161064b919061311b565b60405180910390f35b34801561065f575f5ffd5b5061067a600480360381019061067591906136d4565b611a7c565b005b5f7f80ac58cd000000000000000000000000000000000000000000000000000000007bffffffffffffffffffffffffffffffffffffffffffffffffffffffff1916827bffffffffffffffffffffffffffffffffffffffffffffffffffffffff1916148061074657507f5b5e139f000000000000000000000000000000000000000000000000000000007bffffffffffffffffffffffffffffffffffffffffffffffffffffffff1916827bffffffffffffffffffffffffffffffffffffffffffffffffffffffff1916145b80610756575061075582611b00565b5b9050919050565b60075f9054906101000a900473ffffffffffffffffffffffffffffffffffffffff1673ffffffffffffffffffffffffffffffffffffffff163373ffffffffffffffffffffffffffffffffffffffff16146107ec576040517f08c379a00000000000000000000000000000000000000000000000000000000081526004016107e390613b04565b60405180910390fd5b5f851180156107fc575060648511155b61083b576040517f08c379a000000000000000000000000000000000000000000000000000000000815260040161083290613b6c565b60405180910390fd5b8284111561087e576040517f08c379a000000000000000000000000000000000000000000000000000000000815260040161087590613bd4565b60405180910390fd5b428410156108c1576040517f08c379a00000000000000000000000000000000000000000000000000000000081526004016108b890613c3c565b60405180910390fd5b5f8490505b838111610bcf575f6108d88783611b69565b9050600c5f8881526020019081526020015f205f8381526020019081526020015f205f9054906101000a900460ff1615610947576040517f08c379a000000000000000000000000000000000000000000000000000000000815260040161093e90613cca565b60405180910390fd5b60085f81548092919061095990613d15565b91905055505f6040518060e00160405280898152602001848152602001866003811115610989576109886134e1565b5b81526020018581526020015f60048111156109a7576109a66134e1565b5b81526020018381526020013373ffffffffffffffffffffffffffffffffffffffff168152509050600a81908060018154018082558091505060019003905f5260205f2090600702015f909190919091505f820151815f0155602082015181600101556040820151816002015f6101000a81548160ff02191690836003811115610a3357610a326134e1565b5b0217905550606082015181600301556080820151816004015f6101000a81548160ff02191690836004811115610a6c57610a6b6134e1565b5b021790555060a0820151816005015560c0820151816006015f6101000a81548173ffffffffffffffffffffffffffffffffffffffff021916908373ffffffffffffffffffffffffffffffffffffffff1602179055505050610ace83865f611bcf565b80600b5f8481526020019081526020015f205f820151815f0155602082015181600101556040820151816002015f6101000a81548160ff02191690836003811115610b1c57610b1b6134e1565b5b0217905550606082015181600301556080820151816004015f6101000a81548160ff02191690836004811115610b5557610b546134e1565b5b021790555060a0820151816005015560c0820151816006015f6101000a81548173ffffffffffffffffffffffffffffffffffffffff021916908373ffffffffffffffffffffffffffffffffffffffff160217905550905050610bb73383611bf6565b50506201518081610bc89190613d5c565b90506108c6565b505050505050565b60605f8054610be590613dbc565b80601f0160208091040260200160405190810160405280929190818152602001828054610c1190613dbc565b8015610c5c5780601f10610c3357610100808354040283529160200191610c5c565b820191905f5260205f20905b815481529060010190602001808311610c3f57829003601f168201915b5050505050905090565b5f610c7082611c13565b50610c7a82611c99565b9050919050565b610c938282610c8e611cd2565b611cd9565b5050565b5f5f5f600b5f8581526020019081526020015f206040518060e00160405290815f820154815260200160018201548152602001600282015f9054906101000a900460ff166003811115610ced57610cec6134e1565b5b6003811115610cff57610cfe6134e1565b5b815260200160038201548152602001600482015f9054906101000a900460ff166004811115610d3157610d306134e1565b5b6004811115610d4357610d426134e1565b5b815260200160058201548152602001600682015f9054906101000a900473ffffffffffffffffffffffffffffffffffffffff1673ffffffffffffffffffffffffffffffffffffffff1673ffffffffffffffffffffffffffffffffffffffff168152505090505f815f015103610ded576040517f08c379a0000000000000000000000000000000000000000000000000000000008152600401610de490613e36565b60405180910390fd5b805f015181602001519250925050915091565b5f73ffffffffffffffffffffffffffffffffffffffff168273ffffffffffffffffffffffffffffffffffffffff1603610e70575f6040517f64a0ae92000000000000000000000000000000000000000000000000000000008152600401610e6791906132fb565b60405180910390fd5b5f610e838383610e7e611cd2565b611ceb565b90508373ffffffffffffffffffffffffffffffffffffffff168173ffffffffffffffffffffffffffffffffffffffff1614610ef9578382826040517f64283d7b000000000000000000000000000000000000000000000000000000008152600401610ef093929190613e54565b60405180910390fd5b50505050565b610f07611ef6565b5f4790505f610f1461185d565b73ffffffffffffffffffffffffffffffffffffffff1682604051610f3790613eb6565b5f6040518083038185875af1925050503d805f8114610f71576040519150601f19603f3d011682016040523d82523d5f602084013e610f76565b606091505b5050905080610fba576040517f08c379a0000000000000000000000000000000000000000000000000000000008152600401610fb190613f14565b60405180910390fd5b5050565b5f610fc98383611b69565b90505f600b5f8381526020019081526020015f205f015403611020576040517f08c379a000000000000000000000000000000000000000000000000000000000815260040161101790613e36565b60405180910390fd5b92915050565b60085481565b5f600b5f8381526020019081526020015f206040518060e00160405290815f820154815260200160018201548152602001600282015f9054906101000a900460ff1660038111156110805761107f6134e1565b5b6003811115611092576110916134e1565b5b815260200160038201548152602001600482015f9054906101000a900460ff1660048111156110c4576110c36134e1565b5b60048111156110d6576110d56134e1565b5b815260200160058201548152602001600682015f9054906101000a900473ffffffffffffffffffffffffffffffffffffffff1673ffffffffffffffffffffffffffffffffffffffff1673ffffffffffffffffffffffffffffffffffffffff168152505090505f600481111561114e5761114d6134e1565b5b81608001516004811115611165576111646134e1565b5b146111a5576040517f08c379a000000000000000000000000000000000000000000000000000000000815260040161119c90613fa2565b60405180910390fd5b80606001513410156111ec576040517f08c379a00000000000000000000000000000000000000000000000000000000081526004016111e390614030565b60405180910390fd5b4281602001511015611233576040517f08c379a000000000000000000000000000000000000000000000000000000000815260040161122a906140be565b60405180910390fd5b6001600b5f8481526020019081526020015f206004015f6101000a81548160ff0219169083600481111561126a576112696134e1565b5b021790555033600b5f8481526020019081526020015f206006015f6101000a81548173ffffffffffffffffffffffffffffffffffffffff021916908373ffffffffffffffffffffffffffffffffffffffff1602179055506112d5816020015182604001516001611bcf565b61130160075f9054906101000a900473ffffffffffffffffffffffffffffffffffffffff163384611f7d565b5050565b61131f83838360405180602001604052805f815250611930565b505050565b61132c611ef6565b600c5f8481526020019081526020015f205f8381526020019081526020015f205f9054906101000a900460ff1615611399576040517f08c379a000000000000000000000000000000000000000000000000000000000815260040161139090614126565b60405180910390fd5b5f831180156113a9575060648311155b6113e8576040517f08c379a00000000000000000000000000000000000000000000000000000000081526004016113df90613b6c565b60405180910390fd5b5f821161142a576040517f08c379a00000000000000000000000000000000000000000000000000000000081526004016114219061418e565b60405180910390fd5b5f811161146c576040517f08c379a0000000000000000000000000000000000000000000000000000000008152600401611463906141f6565b60405180910390fd5b80600b5f61147a8686611b69565b81526020019081526020015f2060030181905550505050565b60605f82846114a29190613d5c565b9050600a805490508111156114ba57600a8054905090505b5f84826114c79190614214565b90505f8167ffffffffffffffff8111156114e4576114e36138b0565b5b60405190808252806020026020018201604052801561151d57816020015b61150a613000565b8152602001906001900390816115025790505b5090505f5f90505b8281101561167e57600a818861153b9190613d5c565b8154811061154c5761154b614247565b5b905f5260205f2090600702016040518060e00160405290815f820154815260200160018201548152602001600282015f9054906101000a900460ff16600381111561159a576115996134e1565b5b60038111156115ac576115ab6134e1565b5b815260200160038201548152602001600482015f9054906101000a900460ff1660048111156115de576115dd6134e1565b5b60048111156115f0576115ef6134e1565b5b815260200160058201548152602001600682015f9054906101000a900473ffffffffffffffffffffffffffffffffffffffff1673ffffffffffffffffffffffffffffffffffffffff1673ffffffffffffffffffffffffffffffffffffffff168152505082828151811061166657611665614247565b5b60200260200101819052508080600101915050611525565b5080935050505092915050565b5f61169582611c13565b9050919050565b5f5f73ffffffffffffffffffffffffffffffffffffffff168273ffffffffffffffffffffffffffffffffffffffff160361170d575f6040517f89c62b6400000000000000000000000000000000000000000000000000000000815260040161170491906132fb565b60405180910390fd5b60035f8373ffffffffffffffffffffffffffffffffffffffff1673ffffffffffffffffffffffffffffffffffffffff1681526020019081526020015f20549050919050565b61175a611ef6565b6117635f6120e5565b565b60606009805480602002602001604051908101604052809291908181526020015f905b82821015611854578382905f5260205f2090600502016040518060c00160405290815f82015481526020016001820154815260200160028201548152602001600382015f9054906101000a900460ff1660048111156117ea576117e96134e1565b5b60048111156117fc576117fb6134e1565b5b81526020016003820160019054906101000a900460ff166003811115611825576118246134e1565b5b6003811115611837576118366134e1565b5b815260200160048201548152505081526020019060010190611788565b50505050905090565b5f60065f9054906101000a900473ffffffffffffffffffffffffffffffffffffffff16905090565b60606001805461189490613dbc565b80601f01602080910402602001604051908101604052809291908181526020018280546118c090613dbc565b801561190b5780601f106118e25761010080835404028352916020019161190b565b820191905f5260205f20905b8154815290600101906020018083116118ee57829003601f168201915b5050505050905090565b606481565b61192c611925611cd2565b83836121a8565b5050565b61193b848484610e00565b61194f611946611cd2565b85858585612311565b50505050565b606061196082611c13565b505f61196a6124bd565b90505f8151116119885760405180602001604052805f8152506119b3565b80611992846124d3565b6040516020016119a39291906142ae565b6040516020818303038152906040525b915050919050565b5f600b5f6119c98585611b69565b81526020019081526020015f206004015f9054906101000a900460ff16905092915050565b5f60055f8473ffffffffffffffffffffffffffffffffffffffff1673ffffffffffffffffffffffffffffffffffffffff1681526020019081526020015f205f8373ffffffffffffffffffffffffffffffffffffffff1673ffffffffffffffffffffffffffffffffffffffff1681526020019081526020015f205f9054906101000a900460ff16905092915050565b611a84611ef6565b5f73ffffffffffffffffffffffffffffffffffffffff168173ffffffffffffffffffffffffffffffffffffffff1603611af4575f6040517f1e4fbdf7000000000000000000000000000000000000000000000000000000008152600401611aeb91906132fb565b60405180910390fd5b611afd816120e5565b50565b5f7f01ffc9a7000000000000000000000000000000000000000000000000000000007bffffffffffffffffffffffffffffffffffffffffffffffffffffffff1916827bffffffffffffffffffffffffffffffffffffffffffffffffffffffff1916149050919050565b5f5f5f5f611b768561259d565b925092509250856103e882606485611b8e91906142d1565b61271087611b9c91906142d1565b611ba69190613d5c565b611bb09190613d5c565b611bba91906142d1565b611bc49190613d5c565b935050505092915050565b5f5f5f611bdb8661259d565b925092509250611bee83838387896125ca565b505050505050565b611c0f828260405180602001604052805f815250612886565b5050565b5f5f611c1e836128a9565b90505f73ffffffffffffffffffffffffffffffffffffffff168173ffffffffffffffffffffffffffffffffffffffff1603611c9057826040517f7e273289000000000000000000000000000000000000000000000000000000008152600401611c879190613440565b60405180910390fd5b80915050919050565b5f60045f8381526020019081526020015f205f9054906101000a900473ffffffffffffffffffffffffffffffffffffffff169050919050565b5f33905090565b611ce683838360016128e2565b505050565b5f5f611cf6846128a9565b90505f73ffffffffffffffffffffffffffffffffffffffff168373ffffffffffffffffffffffffffffffffffffffff1614611d3757611d36818486612aa1565b5b5f73ffffffffffffffffffffffffffffffffffffffff168173ffffffffffffffffffffffffffffffffffffffff1614611dc257611d765f855f5f6128e2565b600160035f8373ffffffffffffffffffffffffffffffffffffffff1673ffffffffffffffffffffffffffffffffffffffff1681526020019081526020015f205f82825403925050819055505b5f73ffffffffffffffffffffffffffffffffffffffff168573ffffffffffffffffffffffffffffffffffffffff1614611e4157600160035f8773ffffffffffffffffffffffffffffffffffffffff1673ffffffffffffffffffffffffffffffffffffffff1681526020019081526020015f205f82825401925050819055505b8460025f8681526020019081526020015f205f6101000a81548173ffffffffffffffffffffffffffffffffffffffff021916908373ffffffffffffffffffffffffffffffffffffffff160217905550838573ffffffffffffffffffffffffffffffffffffffff168273ffffffffffffffffffffffffffffffffffffffff167fddf252ad1be2c89b69c2b068fc378daa952ba7f163c4a11628f55a4df523b3ef60405160405180910390a4809150509392505050565b611efe611cd2565b73ffffffffffffffffffffffffffffffffffffffff16611f1c61185d565b73ffffffffffffffffffffffffffffffffffffffff1614611f7b57611f3f611cd2565b6040517f118cdaa7000000000000000000000000000000000000000000000000000000008152600401611f7291906132fb565b60405180910390fd5b565b5f73ffffffffffffffffffffffffffffffffffffffff168273ffffffffffffffffffffffffffffffffffffffff1603611fed575f6040517f64a0ae92000000000000000000000000000000000000000000000000000000008152600401611fe491906132fb565b60405180910390fd5b5f611ff983835f611ceb565b90505f73ffffffffffffffffffffffffffffffffffffffff168173ffffffffffffffffffffffffffffffffffffffff160361206b57816040517f7e2732890000000000000000000000000000000000000000000000000000000081526004016120629190613440565b60405180910390fd5b8373ffffffffffffffffffffffffffffffffffffffff168173ffffffffffffffffffffffffffffffffffffffff16146120df578382826040517f64283d7b0000000000000000000000000000000000000000000000000000000081526004016120d693929190613e54565b60405180910390fd5b50505050565b5f60065f9054906101000a900473ffffffffffffffffffffffffffffffffffffffff1690508160065f6101000a81548173ffffffffffffffffffffffffffffffffffffffff021916908373ffffffffffffffffffffffffffffffffffffffff1602179055508173ffffffffffffffffffffffffffffffffffffffff168173ffffffffffffffffffffffffffffffffffffffff167f8be0079c531659141344cd1fd0a4f28419497f9722a3daafe3b4186f6b6457e060405160405180910390a35050565b5f73ffffffffffffffffffffffffffffffffffffffff168273ffffffffffffffffffffffffffffffffffffffff160361221857816040517f5b08ba1800000000000000000000000000000000000000000000000000000000815260040161220f91906132fb565b60405180910390fd5b8060055f8573ffffffffffffffffffffffffffffffffffffffff1673ffffffffffffffffffffffffffffffffffffffff1681526020019081526020015f205f8473ffffffffffffffffffffffffffffffffffffffff1673ffffffffffffffffffffffffffffffffffffffff1681526020019081526020015f205f6101000a81548160ff0219169083151502179055508173ffffffffffffffffffffffffffffffffffffffff168373ffffffffffffffffffffffffffffffffffffffff167f17307eab39ab6107e8899845ad3d59bd9653f200f220920489ca2b5937696c3183604051612304919061311b565b60405180910390a3505050565b5f8373ffffffffffffffffffffffffffffffffffffffff163b11156124b6578273ffffffffffffffffffffffffffffffffffffffff1663150b7a02868685856040518563ffffffff1660e01b815260040161236f9493929190614364565b6020604051808303815f875af19250505080156123aa57506040513d601f19601f820116820180604052508101906123a791906143c2565b60015b61242b573d805f81146123d8576040519150601f19603f3d011682016040523d82523d5f602084013e6123dd565b606091505b505f81510361242357836040517f64a0ae9200000000000000000000000000000000000000000000000000000000815260040161241a91906132fb565b60405180910390fd5b805181602001fd5b63150b7a0260e01b7bffffffffffffffffffffffffffffffffffffffffffffffffffffffff1916817bffffffffffffffffffffffffffffffffffffffffffffffffffffffff1916146124b457836040517f64a0ae920000000000000000000000000000000000000000000000000000000081526004016124ab91906132fb565b60405180910390fd5b505b5050505050565b606060405180602001604052805f815250905090565b60605f60016124e184612b64565b0190505f8167ffffffffffffffff8111156124ff576124fe6138b0565b5b6040519080825280601f01601f1916602001820160405280156125315781602001600182028036833780820191505090505b5090505f82602001820190505b600115612592578080600190039150507f3031323334353637383961626364656600000000000000000000000000000000600a86061a8153600a8581612587576125866143ed565b5b0494505f850361253e575b819350505050919050565b5f5f5f6125b762015180856125b2919061441a565b612cb5565b8093508194508295505050509193909250565b5f5f90505f5f90505b6009805490508110156127715786600982815481106125f5576125f4614247565b5b905f5260205f2090600502015f01541480156126335750856009828154811061262157612620614247565b5b905f5260205f20906005020160010154145b80156126615750846009828154811061264f5761264e614247565b5b905f5260205f20906005020160020154145b80156126bf575083600481111561267b5761267a6134e1565b5b6009828154811061268f5761268e614247565b5b905f5260205f2090600502016003015f9054906101000a900460ff1660048111156126bd576126bc6134e1565b5b145b801561271e57508260038111156126d9576126d86134e1565b5b600982815481106126ed576126ec614247565b5b905f5260205f20906005020160030160019054906101000a900460ff16600381111561271c5761271b6134e1565b5b145b15612764576009818154811061273757612736614247565b5b905f5260205f2090600502016004015f81548092919061275690613d15565b919050555060019150612771565b80806001019150506125d3565b508061287e575f6040518060c001604052808881526020018781526020018681526020018560048111156127a8576127a76134e1565b5b81526020018460038111156127c0576127bf6134e1565b5b815260200160018152509050600981908060018154018082558091505060019003905f5260205f2090600502015f909190919091505f820151815f015560208201518160010155604082015181600201556060820151816003015f6101000a81548160ff0219169083600481111561283b5761283a6134e1565b5b021790555060808201518160030160016101000a81548160ff0219169083600381111561286b5761286a6134e1565b5b021790555060a082015181600401555050505b505050505050565b6128908383612e4d565b6128a461289b611cd2565b5f858585612311565b505050565b5f60025f8381526020019081526020015f205f9054906101000a900473ffffffffffffffffffffffffffffffffffffffff169050919050565b808061291a57505f73ffffffffffffffffffffffffffffffffffffffff168273ffffffffffffffffffffffffffffffffffffffff1614155b15612a4c575f61292984611c13565b90505f73ffffffffffffffffffffffffffffffffffffffff168373ffffffffffffffffffffffffffffffffffffffff161415801561299357508273ffffffffffffffffffffffffffffffffffffffff168173ffffffffffffffffffffffffffffffffffffffff1614155b80156129a657506129a481846119ee565b155b156129e857826040517fa9fbf51f0000000000000000000000000000000000000000000000000000000081526004016129df91906132fb565b60405180910390fd5b8115612a4a57838573ffffffffffffffffffffffffffffffffffffffff168273ffffffffffffffffffffffffffffffffffffffff167f8c5be1e5ebec7d5bd14f71427d1e84f3dd0314c0f7b2291e5b200ac8c7c3b92560405160405180910390a45b505b8360045f8581526020019081526020015f205f6101000a81548173ffffffffffffffffffffffffffffffffffffffff021916908373ffffffffffffffffffffffffffffffffffffffff16021790555050505050565b612aac838383612f40565b612b5f575f73ffffffffffffffffffffffffffffffffffffffff168373ffffffffffffffffffffffffffffffffffffffff1603612b2057806040517f7e273289000000000000000000000000000000000000000000000000000000008152600401612b179190613440565b60405180910390fd5b81816040517f177e802f000000000000000000000000000000000000000000000000000000008152600401612b5692919061444a565b60405180910390fd5b505050565b5f5f5f90507a184f03e93ff9f4daa797ed6e38ed64bf6a1f0100000000000000008310612bc0577a184f03e93ff9f4daa797ed6e38ed64bf6a1f0100000000000000008381612bb657612bb56143ed565b5b0492506040810190505b6d04ee2d6d415b85acef81000000008310612bfd576d04ee2d6d415b85acef81000000008381612bf357612bf26143ed565b5b0492506020810190505b662386f26fc100008310612c2c57662386f26fc100008381612c2257612c216143ed565b5b0492506010810190505b6305f5e1008310612c55576305f5e1008381612c4b57612c4a6143ed565b5b0492506008810190505b6127108310612c7a576127108381612c7057612c6f6143ed565b5b0492506004810190505b60648310612c9d5760648381612c9357612c926143ed565b5b0492506002810190505b600a8310612cac576001810190505b80915050919050565b5f5f5f5f8490505f62253d8c62010bd983612cd0919061447a565b612cda919061447a565b90505f62023ab1826004612cee91906144bb565b612cf89190614531565b9050600460038262023ab1612d0d91906144bb565b612d17919061447a565b612d219190614531565b82612d2c9190614599565b91505f62164b09600184612d40919061447a565b610fa0612d4d91906144bb565b612d579190614531565b9050601f6004826105b5612d6b91906144bb565b612d759190614531565b84612d809190614599565b612d8a919061447a565b92505f61098f846050612d9d91906144bb565b612da79190614531565b90505f60508261098f612dba91906144bb565b612dc49190614531565b85612dcf9190614599565b9050600b82612dde9190614531565b945084600c612ded91906144bb565b600283612dfa919061447a565b612e049190614599565b91508483603186612e159190614599565b6064612e2191906144bb565b612e2b919061447a565b612e35919061447a565b92508298508197508096505050505050509193909250565b5f73ffffffffffffffffffffffffffffffffffffffff168273ffffffffffffffffffffffffffffffffffffffff1603612ebd575f6040517f64a0ae92000000000000000000000000000000000000000000000000000000008152600401612eb491906132fb565b60405180910390fd5b5f612ec983835f611ceb565b90505f73ffffffffffffffffffffffffffffffffffffffff168173ffffffffffffffffffffffffffffffffffffffff1614612f3b575f6040517f73c6ac6e000000000000000000000000000000000000000000000000000000008152600401612f3291906132fb565b60405180910390fd5b505050565b5f5f73ffffffffffffffffffffffffffffffffffffffff168373ffffffffffffffffffffffffffffffffffffffff1614158015612ff757508273ffffffffffffffffffffffffffffffffffffffff168473ffffffffffffffffffffffffffffffffffffffff161480612fb85750612fb784846119ee565b5b80612ff657508273ffffffffffffffffffffffffffffffffffffffff16612fde83611c99565b73ffffffffffffffffffffffffffffffffffffffff16145b5b90509392505050565b6040518060e001604052805f81526020015f81526020015f600381111561302a576130296134e1565b5b81526020015f81526020015f6004811115613048576130476134e1565b5b81526020015f81526020015f73ffffffffffffffffffffffffffffffffffffffff1681525090565b5f604051905090565b5f5ffd5b5f5ffd5b5f7fffffffff0000000000000000000000000000000000000000000000000000000082169050919050565b6130b581613081565b81146130bf575f5ffd5b50565b5f813590506130d0816130ac565b92915050565b5f602082840312156130eb576130ea613079565b5b5f6130f8848285016130c2565b91505092915050565b5f8115159050919050565b61311581613101565b82525050565b5f60208201905061312e5f83018461310c565b92915050565b5f819050919050565b61314681613134565b8114613150575f5ffd5b50565b5f813590506131618161313d565b92915050565b60048110613173575f5ffd5b50565b5f8135905061318481613167565b92915050565b5f5f5f5f5f60a086880312156131a3576131a2613079565b5b5f6131b088828901613153565b95505060206131c188828901613153565b94505060406131d288828901613153565b93505060606131e388828901613176565b92505060806131f488828901613153565b9150509295509295909350565b5f81519050919050565b5f82825260208201905092915050565b8281835e5f83830152505050565b5f601f19601f8301169050919050565b5f61324382613201565b61324d818561320b565b935061325d81856020860161321b565b61326681613229565b840191505092915050565b5f6020820190508181035f8301526132898184613239565b905092915050565b5f602082840312156132a6576132a5613079565b5b5f6132b384828501613153565b91505092915050565b5f73ffffffffffffffffffffffffffffffffffffffff82169050919050565b5f6132e5826132bc565b9050919050565b6132f5816132db565b82525050565b5f60208201905061330e5f8301846132ec565b92915050565b61331d816132db565b8114613327575f5ffd5b50565b5f8135905061333881613314565b92915050565b5f5f6040838503121561335457613353613079565b5b5f6133618582860161332a565b925050602061337285828601613153565b9150509250929050565b61338581613134565b82525050565b5f60408201905061339e5f83018561337c565b6133ab602083018461337c565b9392505050565b5f5f5f606084860312156133c9576133c8613079565b5b5f6133d68682870161332a565b93505060206133e78682870161332a565b92505060406133f886828701613153565b9150509250925092565b5f5f6040838503121561341857613417613079565b5b5f61342585828601613153565b925050602061343685828601613153565b9150509250929050565b5f6020820190506134535f83018461337c565b92915050565b5f5f5f606084860312156134705761346f613079565b5b5f61347d86828701613153565b935050602061348e86828701613153565b925050604061349f86828701613153565b9150509250925092565b5f81519050919050565b5f82825260208201905092915050565b5f819050602082019050919050565b6134db81613134565b82525050565b7f4e487b71000000000000000000000000000000000000000000000000000000005f52602160045260245ffd5b6004811061351f5761351e6134e1565b5b50565b5f81905061352f8261350e565b919050565b5f61353e82613522565b9050919050565b61354e81613534565b82525050565b60058110613565576135646134e1565b5b50565b5f81905061357582613554565b919050565b5f61358482613568565b9050919050565b6135948161357a565b82525050565b6135a3816132db565b82525050565b60e082015f8201516135bd5f8501826134d2565b5060208201516135d060208501826134d2565b5060408201516135e36040850182613545565b5060608201516135f660608501826134d2565b506080820151613609608085018261358b565b5060a082015161361c60a08501826134d2565b5060c082015161362f60c085018261359a565b50505050565b5f61364083836135a9565b60e08301905092915050565b5f602082019050919050565b5f613662826134a9565b61366c81856134b3565b9350613677836134c3565b805f5b838110156136a757815161368e8882613635565b97506136998361364c565b92505060018101905061367a565b5085935050505092915050565b5f6020820190508181035f8301526136cc8184613658565b905092915050565b5f602082840312156136e9576136e8613079565b5b5f6136f68482850161332a565b91505092915050565b5f81519050919050565b5f82825260208201905092915050565b5f819050602082019050919050565b60c082015f82015161373c5f8501826134d2565b50602082015161374f60208501826134d2565b50604082015161376260408501826134d2565b506060820151613775606085018261358b565b5060808201516137886080850182613545565b5060a082015161379b60a08501826134d2565b50505050565b5f6137ac8383613728565b60c08301905092915050565b5f602082019050919050565b5f6137ce826136ff565b6137d88185613709565b93506137e383613719565b805f5b838110156138135781516137fa88826137a1565b9750613805836137b8565b9250506001810190506137e6565b5085935050505092915050565b5f6020820190508181035f83015261383881846137c4565b905092915050565b61384981613101565b8114613853575f5ffd5b50565b5f8135905061386481613840565b92915050565b5f5f604083850312156138805761387f613079565b5b5f61388d8582860161332a565b925050602061389e85828601613856565b9150509250929050565b5f5ffd5b5f5ffd5b7f4e487b71000000000000000000000000000000000000000000000000000000005f52604160045260245ffd5b6138e682613229565b810181811067ffffffffffffffff82111715613905576139046138b0565b5b80604052505050565b5f613917613070565b905061392382826138dd565b919050565b5f67ffffffffffffffff821115613942576139416138b0565b5b61394b82613229565b9050602081019050919050565b828183375f83830152505050565b5f61397861397384613928565b61390e565b905082815260208101848484011115613994576139936138ac565b5b61399f848285613958565b509392505050565b5f82601f8301126139bb576139ba6138a8565b5b81356139cb848260208601613966565b91505092915050565b5f5f5f5f608085870312156139ec576139eb613079565b5b5f6139f98782880161332a565b9450506020613a0a8782880161332a565b9350506040613a1b87828801613153565b925050606085013567ffffffffffffffff811115613a3c57613a3b61307d565b5b613a48878288016139a7565b91505092959194509250565b613a5d8161357a565b82525050565b5f602082019050613a765f830184613a54565b92915050565b5f5f60408385031215613a9257613a91613079565b5b5f613a9f8582860161332a565b9250506020613ab08582860161332a565b9150509250929050565b7f4f6e6c79206f776e65722063616e206d696e7420726f6f6d20646179730000005f82015250565b5f613aee601d8361320b565b9150613af982613aba565b602082019050919050565b5f6020820190508181035f830152613b1b81613ae2565b9050919050565b7f496e76616c696420726f6f6d206e756d626572000000000000000000000000005f82015250565b5f613b5660138361320b565b9150613b6182613b22565b602082019050919050565b5f6020820190508181035f830152613b8381613b4a565b9050919050565b7f496e76616c696420646174652072616e676500000000000000000000000000005f82015250565b5f613bbe60128361320b565b9150613bc982613b8a565b602082019050919050565b5f6020820190508181035f830152613beb81613bb2565b9050919050565b7f43616e6e6f7420626f6f6b2070617374206461746573000000000000000000005f82015250565b5f613c2660168361320b565b9150613c3182613bf2565b602082019050919050565b5f6020820190508181035f830152613c5381613c1a565b9050919050565b7f526f6f6d20616c726561647920626f6f6b656420666f722074686973206461745f8201527f6500000000000000000000000000000000000000000000000000000000000000602082015250565b5f613cb460218361320b565b9150613cbf82613c5a565b604082019050919050565b5f6020820190508181035f830152613ce181613ca8565b9050919050565b7f4e487b71000000000000000000000000000000000000000000000000000000005f52601160045260245ffd5b5f613d1f82613134565b91507fffffffffffffffffffffffffffffffffffffffffffffffffffffffffffffffff8203613d5157613d50613ce8565b5b600182019050919050565b5f613d6682613134565b9150613d7183613134565b9250828201905080821115613d8957613d88613ce8565b5b92915050565b7f4e487b71000000000000000000000000000000000000000000000000000000005f52602260045260245ffd5b5f6002820490506001821680613dd357607f821691505b602082108103613de657613de5613d8f565b5b50919050565b7f526f6f6d20646179206e6f7420666f756e6400000000000000000000000000005f82015250565b5f613e2060128361320b565b9150613e2b82613dec565b602082019050919050565b5f6020820190508181035f830152613e4d81613e14565b9050919050565b5f606082019050613e675f8301866132ec565b613e74602083018561337c565b613e8160408301846132ec565b949350505050565b5f81905092915050565b50565b5f613ea15f83613e89565b9150613eac82613e93565b5f82019050919050565b5f613ec082613e96565b9150819050919050565b7f5472616e73666572206661696c656400000000000000000000000000000000005f82015250565b5f613efe600f8361320b565b9150613f0982613eca565b602082019050919050565b5f6020820190508181035f830152613f2b81613ef2565b9050919050565b7f526f6f6d206973206e6f7420617661696c61626c6520666f72207472616e73665f8201527f6572000000000000000000000000000000000000000000000000000000000000602082015250565b5f613f8c60228361320b565b9150613f9782613f32565b604082019050919050565b5f6020820190508181035f830152613fb981613f80565b9050919050565b7f496e73756666696369656e74207061796d656e7420666f72207472616e7366655f8201527f7200000000000000000000000000000000000000000000000000000000000000602082015250565b5f61401a60218361320b565b915061402582613fc0565b604082019050919050565b5f6020820190508181035f8301526140478161400e565b9050919050565b7f43616e6e6f74207472616e73666572206578706972656420726f6f6d206461795f8201527f7300000000000000000000000000000000000000000000000000000000000000602082015250565b5f6140a860218361320b565b91506140b38261404e565b604082019050919050565b5f6020820190508181035f8301526140d58161409c565b9050919050565b7f526f6f6d20697320616c726561647920626f6f6b6564000000000000000000005f82015250565b5f61411060168361320b565b915061411b826140dc565b602082019050919050565b5f6020820190508181035f83015261413d81614104565b9050919050565b7f496e76616c6964206461746500000000000000000000000000000000000000005f82015250565b5f614178600c8361320b565b915061418382614144565b602082019050919050565b5f6020820190508181035f8301526141a58161416c565b9050919050565b7f496e76616c696420707269636520706572206e696768740000000000000000005f82015250565b5f6141e060178361320b565b91506141eb826141ac565b602082019050919050565b5f6020820190508181035f83015261420d816141d4565b9050919050565b5f61421e82613134565b915061422983613134565b925082820390508181111561424157614240613ce8565b5b92915050565b7f4e487b71000000000000000000000000000000000000000000000000000000005f52603260045260245ffd5b5f81905092915050565b5f61428882613201565b6142928185614274565b93506142a281856020860161321b565b80840191505092915050565b5f6142b9828561427e565b91506142c5828461427e565b91508190509392505050565b5f6142db82613134565b91506142e683613134565b92508282026142f481613134565b9150828204841483151761430b5761430a613ce8565b5b5092915050565b5f81519050919050565b5f82825260208201905092915050565b5f61433682614312565b614340818561431c565b935061435081856020860161321b565b61435981613229565b840191505092915050565b5f6080820190506143775f8301876132ec565b61438460208301866132ec565b614391604083018561337c565b81810360608301526143a3818461432c565b905095945050505050565b5f815190506143bc816130ac565b92915050565b5f602082840312156143d7576143d6613079565b5b5f6143e4848285016143ae565b91505092915050565b7f4e487b71000000000000000000000000000000000000000000000000000000005f52601260045260245ffd5b5f61442482613134565b915061442f83613134565b92508261443f5761443e6143ed565b5b828204905092915050565b5f60408201905061445d5f8301856132ec565b61446a602083018461337c565b9392505050565b5f819050919050565b5f61448482614471565b915061448f83614471565b92508282019050828112155f8312168382125f8412151617156144b5576144b4613ce8565b5b92915050565b5f6144c582614471565b91506144d083614471565b92508282026144de81614471565b91507f800000000000000000000000000000000000000000000000000000000000000084145f8412161561451557614514613ce8565b5b828205841483151761452a57614529613ce8565b5b5092915050565b5f61453b82614471565b915061454683614471565b925082614556576145556143ed565b5b60015f0383147f80000000000000000000000000000000000000000000000000000000000000008314161561458e5761458d613ce8565b5b828205905092915050565b5f6145a382614471565b91506145ae83614471565b925082820390508181125f8412168282135f8512151617156145d3576145d2613ce8565b5b9291505056fea2646970667358221220fb68464dd0262e3396b622b57b805023698d1b3e98c9e09939e879e1cfae637964736f6c634300081c0033","linkReferences":{}},"methodIdentifiers":{"TOTAL_ROOMS()":"9d3f4c28","approve(address,uint256)":"095ea7b3","balanceOf(address)":"70a08231","getAllRoomDays(uint256,uint256)":"509fb0cd","getApproved(uint256)":"081812fc","getRoomDay(uint256)":"194adba2","getRoomDayToken(uint256,uint256)":"2d9cb9d5","getTotals()":"84e10a90","isApprovedForAll(address,address)":"e985e9c5","isRoomBooked(uint256,uint256)":"d30dba98","mintRoomDays(uint256,uint256,uint256,uint8,uint256)":"0396cde6","name()":"06fdde03","owner()":"8da5cb5b","ownerOf(uint256)":"6352211e","renounceOwnership()":"715018a6","safeTransferFrom(address,address,uint256)":"42842e0e","safeTransferFrom(address,address,uint256,bytes)":"b88d4fde","setApprovalForAll(address,bool)":"a22cb465","setPricePerNight(uint256,uint256,uint256)":"488bab48","supportsInterface(bytes4)":"01ffc9a7","symbol()":"95d89b41","tokenURI(uint256)":"c87b56dd","totalRoomDays()":"30a32f66","transferFrom(address,address,uint256)":"23b872dd","transferOwnership(address)":"f2fde38b","transferRoomDay(uint256)":"3282e1a4","withdrawFunds()":"24600fc3"},"id":36}